{
	"contracts/vanthenaNft.sol": {
		"vanthenaNft": {
			"abi": [
				{
					"inputs": [
						{
							"internalType": "string",
							"name": "name_",
							"type": "string"
						},
						{
							"internalType": "string",
							"name": "symbol_",
							"type": "string"
						}
					],
					"stateMutability": "nonpayable",
					"type": "constructor"
				},
				{
					"anonymous": false,
					"inputs": [
						{
							"indexed": true,
							"internalType": "address",
							"name": "owner",
							"type": "address"
						},
						{
							"indexed": true,
							"internalType": "address",
							"name": "approved",
							"type": "address"
						},
						{
							"indexed": true,
							"internalType": "uint256",
							"name": "tokenId",
							"type": "uint256"
						}
					],
					"name": "Approval",
					"type": "event"
				},
				{
					"anonymous": false,
					"inputs": [
						{
							"indexed": true,
							"internalType": "address",
							"name": "owner",
							"type": "address"
						},
						{
							"indexed": true,
							"internalType": "address",
							"name": "operator",
							"type": "address"
						},
						{
							"indexed": false,
							"internalType": "bool",
							"name": "approved",
							"type": "bool"
						}
					],
					"name": "ApprovalForAll",
					"type": "event"
				},
				{
					"anonymous": false,
					"inputs": [
						{
							"indexed": true,
							"internalType": "address",
							"name": "from",
							"type": "address"
						},
						{
							"indexed": true,
							"internalType": "address",
							"name": "to",
							"type": "address"
						},
						{
							"indexed": true,
							"internalType": "uint256",
							"name": "tokenId",
							"type": "uint256"
						}
					],
					"name": "Transfer",
					"type": "event"
				},
				{
					"inputs": [
						{
							"internalType": "address",
							"name": "to",
							"type": "address"
						},
						{
							"internalType": "uint256",
							"name": "tokenId",
							"type": "uint256"
						}
					],
					"name": "approve",
					"outputs": [],
					"stateMutability": "nonpayable",
					"type": "function"
				},
				{
					"inputs": [
						{
							"internalType": "address",
							"name": "owner",
							"type": "address"
						}
					],
					"name": "balanceOf",
					"outputs": [
						{
							"internalType": "uint256",
							"name": "",
							"type": "uint256"
						}
					],
					"stateMutability": "view",
					"type": "function"
				},
				{
					"inputs": [
						{
							"internalType": "uint256",
							"name": "tokenId",
							"type": "uint256"
						}
					],
					"name": "burn",
					"outputs": [],
					"stateMutability": "nonpayable",
					"type": "function"
				},
				{
					"inputs": [
						{
							"internalType": "uint256",
							"name": "tokenId",
							"type": "uint256"
						}
					],
					"name": "getApproved",
					"outputs": [
						{
							"internalType": "address",
							"name": "",
							"type": "address"
						}
					],
					"stateMutability": "view",
					"type": "function"
				},
				{
					"inputs": [
						{
							"internalType": "address",
							"name": "owner",
							"type": "address"
						},
						{
							"internalType": "address",
							"name": "operator",
							"type": "address"
						}
					],
					"name": "isApprovedForAll",
					"outputs": [
						{
							"internalType": "bool",
							"name": "",
							"type": "bool"
						}
					],
					"stateMutability": "view",
					"type": "function"
				},
				{
					"inputs": [
						{
							"internalType": "address",
							"name": "to",
							"type": "address"
						}
					],
					"name": "mint",
					"outputs": [
						{
							"internalType": "uint256",
							"name": "",
							"type": "uint256"
						}
					],
					"stateMutability": "nonpayable",
					"type": "function"
				},
				{
					"inputs": [],
					"name": "name",
					"outputs": [
						{
							"internalType": "string",
							"name": "",
							"type": "string"
						}
					],
					"stateMutability": "view",
					"type": "function"
				},
				{
					"inputs": [
						{
							"internalType": "uint256",
							"name": "tokenId",
							"type": "uint256"
						}
					],
					"name": "ownerOf",
					"outputs": [
						{
							"internalType": "address",
							"name": "",
							"type": "address"
						}
					],
					"stateMutability": "view",
					"type": "function"
				},
				{
					"inputs": [
						{
							"internalType": "address",
							"name": "from",
							"type": "address"
						},
						{
							"internalType": "address",
							"name": "to",
							"type": "address"
						},
						{
							"internalType": "uint256",
							"name": "tokenId",
							"type": "uint256"
						}
					],
					"name": "safeTransferFrom",
					"outputs": [],
					"stateMutability": "nonpayable",
					"type": "function"
				},
				{
					"inputs": [
						{
							"internalType": "address",
							"name": "from",
							"type": "address"
						},
						{
							"internalType": "address",
							"name": "to",
							"type": "address"
						},
						{
							"internalType": "uint256",
							"name": "tokenId",
							"type": "uint256"
						},
						{
							"internalType": "bytes",
							"name": "data",
							"type": "bytes"
						}
					],
					"name": "safeTransferFrom",
					"outputs": [],
					"stateMutability": "nonpayable",
					"type": "function"
				},
				{
					"inputs": [
						{
							"internalType": "address",
							"name": "operator",
							"type": "address"
						},
						{
							"internalType": "bool",
							"name": "approved",
							"type": "bool"
						}
					],
					"name": "setApprovalForAll",
					"outputs": [],
					"stateMutability": "nonpayable",
					"type": "function"
				},
				{
					"inputs": [
						{
							"internalType": "bytes4",
							"name": "interfaceId",
							"type": "bytes4"
						}
					],
					"name": "supportsInterface",
					"outputs": [
						{
							"internalType": "bool",
							"name": "",
							"type": "bool"
						}
					],
					"stateMutability": "view",
					"type": "function"
				},
				{
					"inputs": [],
					"name": "symbol",
					"outputs": [
						{
							"internalType": "string",
							"name": "",
							"type": "string"
						}
					],
					"stateMutability": "view",
					"type": "function"
				},
				{
					"inputs": [
						{
							"internalType": "uint256",
							"name": "tokenId",
							"type": "uint256"
						}
					],
					"name": "tokenURI",
					"outputs": [
						{
							"internalType": "string",
							"name": "",
							"type": "string"
						}
					],
					"stateMutability": "view",
					"type": "function"
				},
				{
					"inputs": [
						{
							"internalType": "address",
							"name": "from",
							"type": "address"
						},
						{
							"internalType": "address",
							"name": "to",
							"type": "address"
						},
						{
							"internalType": "uint256",
							"name": "tokenId",
							"type": "uint256"
						}
					],
					"name": "transferFrom",
					"outputs": [],
					"stateMutability": "nonpayable",
					"type": "function"
				}
			],
			"devdoc": {
				"kind": "dev",
				"methods": {
					"approve(address,uint256)": {
						"details": "See {IERC721-approve}."
					},
					"balanceOf(address)": {
						"details": "See {IERC721-balanceOf}."
					},
					"constructor": {
						"details": "Initializes the contract by setting a `name` and a `symbol` to the token collection."
					},
					"getApproved(uint256)": {
						"details": "See {IERC721-getApproved}."
					},
					"isApprovedForAll(address,address)": {
						"details": "See {IERC721-isApprovedForAll}."
					},
					"name()": {
						"details": "See {IERC721Metadata-name}."
					},
					"ownerOf(uint256)": {
						"details": "See {IERC721-ownerOf}."
					},
					"safeTransferFrom(address,address,uint256)": {
						"details": "See {IERC721-safeTransferFrom}."
					},
					"safeTransferFrom(address,address,uint256,bytes)": {
						"details": "See {IERC721-safeTransferFrom}."
					},
					"setApprovalForAll(address,bool)": {
						"details": "See {IERC721-setApprovalForAll}."
					},
					"supportsInterface(bytes4)": {
						"details": "See {IERC165-supportsInterface}."
					},
					"symbol()": {
						"details": "See {IERC721Metadata-symbol}."
					},
					"tokenURI(uint256)": {
						"details": "See {IERC721Metadata-tokenURI}."
					},
					"transferFrom(address,address,uint256)": {
						"details": "See {IERC721-transferFrom}."
					}
				},
				"version": 1
			},
			"evm": {
				"assembly": "    /* \"contracts/vanthenaNft.sol\":545:17431  contract vanthenaNft is Context, ERC165, IERC721, IERC721Metadata  {... */\n  mstore(0x40, 0x80)\n    /* \"contracts/vanthenaNft.sol\":1401:1514  constructor(string memory name_, string memory symbol_) {... */\n  callvalue\n  dup1\n  iszero\n  tag_1\n  jumpi\n  0x00\n  dup1\n  revert\ntag_1:\n  pop\n  mload(0x40)\n  sub(codesize, bytecodeSize)\n  dup1\n  bytecodeSize\n  dup4\n  codecopy\n  dup2\n  dup2\n  add\n  0x40\n  mstore\n  dup2\n  add\n  swap1\n  tag_2\n  swap2\n  swap1\n  tag_3\n  jump\t// in\ntag_2:\n    /* \"contracts/vanthenaNft.sol\":1475:1480  name_ */\n  dup2\n    /* \"contracts/vanthenaNft.sol\":1467:1472  _name */\n  0x01\n    /* \"contracts/vanthenaNft.sol\":1467:1480  _name = name_ */\n  swap1\n  dup1\n  mload\n  swap1\n  0x20\n  add\n  swap1\n  tag_6\n  swap3\n  swap2\n  swap1\n  tag_7\n  jump\t// in\ntag_6:\n  pop\n    /* \"contracts/vanthenaNft.sol\":1500:1507  symbol_ */\n  dup1\n    /* \"contracts/vanthenaNft.sol\":1490:1497  _symbol */\n  0x02\n    /* \"contracts/vanthenaNft.sol\":1490:1507  _symbol = symbol_ */\n  swap1\n  dup1\n  mload\n  swap1\n  0x20\n  add\n  swap1\n  tag_8\n  swap3\n  swap2\n  swap1\n  tag_7\n  jump\t// in\ntag_8:\n  pop\n    /* \"contracts/vanthenaNft.sol\":1401:1514  constructor(string memory name_, string memory symbol_) {... */\n  pop\n  pop\n    /* \"contracts/vanthenaNft.sol\":545:17431  contract vanthenaNft is Context, ERC165, IERC721, IERC721Metadata  {... */\n  jump(tag_9)\ntag_7:\n  dup3\n  dup1\n  sload\n  tag_10\n  swap1\n  tag_11\n  jump\t// in\ntag_10:\n  swap1\n  0x00\n  mstore\n  keccak256(0x00, 0x20)\n  swap1\n  0x1f\n  add\n  0x20\n  swap1\n  div\n  dup2\n  add\n  swap3\n  dup3\n  tag_13\n  jumpi\n  0x00\n  dup6\n  sstore\n  jump(tag_12)\ntag_13:\n  dup3\n  0x1f\n  lt\n  tag_14\n  jumpi\n  dup1\n  mload\n  not(0xff)\n  and\n  dup4\n  dup1\n  add\n  or\n  dup6\n  sstore\n  jump(tag_12)\ntag_14:\n  dup3\n  dup1\n  add\n  0x01\n  add\n  dup6\n  sstore\n  dup3\n  iszero\n  tag_12\n  jumpi\n  swap2\n  dup3\n  add\ntag_15:\n  dup3\n  dup2\n  gt\n  iszero\n  tag_16\n  jumpi\n  dup3\n  mload\n  dup3\n  sstore\n  swap2\n  0x20\n  add\n  swap2\n  swap1\n  0x01\n  add\n  swap1\n  jump(tag_15)\ntag_16:\ntag_12:\n  pop\n  swap1\n  pop\n  tag_17\n  swap2\n  swap1\n  tag_18\n  jump\t// in\ntag_17:\n  pop\n  swap1\n  jump\t// out\ntag_18:\ntag_19:\n  dup1\n  dup3\n  gt\n  iszero\n  tag_20\n  jumpi\n  0x00\n  dup2\n  0x00\n  swap1\n  sstore\n  pop\n  0x01\n  add\n  jump(tag_19)\ntag_20:\n  pop\n  swap1\n  jump\t// out\n    /* \"#utility.yul\":7:428   */\ntag_22:\n    /* \"#utility.yul\":96:101   */\n  0x00\n    /* \"#utility.yul\":121:187   */\n  tag_24\n    /* \"#utility.yul\":137:186   */\n  tag_25\n    /* \"#utility.yul\":179:185   */\n  dup5\n    /* \"#utility.yul\":137:186   */\n  tag_26\n  jump\t// in\ntag_25:\n    /* \"#utility.yul\":121:187   */\n  tag_27\n  jump\t// in\ntag_24:\n    /* \"#utility.yul\":112:187   */\n  swap1\n  pop\n    /* \"#utility.yul\":210:216   */\n  dup3\n    /* \"#utility.yul\":203:208   */\n  dup2\n    /* \"#utility.yul\":196:217   */\n  mstore\n    /* \"#utility.yul\":248:252   */\n  0x20\n    /* \"#utility.yul\":241:246   */\n  dup2\n    /* \"#utility.yul\":237:253   */\n  add\n    /* \"#utility.yul\":286:289   */\n  dup5\n    /* \"#utility.yul\":277:283   */\n  dup5\n    /* \"#utility.yul\":272:275   */\n  dup5\n    /* \"#utility.yul\":268:284   */\n  add\n    /* \"#utility.yul\":265:290   */\n  gt\n    /* \"#utility.yul\":262:374   */\n  iszero\n  tag_28\n  jumpi\n    /* \"#utility.yul\":293:372   */\n  tag_29\n  tag_30\n  jump\t// in\ntag_29:\n    /* \"#utility.yul\":262:374   */\ntag_28:\n    /* \"#utility.yul\":383:422   */\n  tag_31\n    /* \"#utility.yul\":415:421   */\n  dup5\n    /* \"#utility.yul\":410:413   */\n  dup3\n    /* \"#utility.yul\":405:408   */\n  dup6\n    /* \"#utility.yul\":383:422   */\n  tag_32\n  jump\t// in\ntag_31:\n    /* \"#utility.yul\":102:428   */\n  pop\n    /* \"#utility.yul\":7:428   */\n  swap4\n  swap3\n  pop\n  pop\n  pop\n  jump\t// out\n    /* \"#utility.yul\":448:803   */\ntag_33:\n    /* \"#utility.yul\":515:520   */\n  0x00\n    /* \"#utility.yul\":564:567   */\n  dup3\n    /* \"#utility.yul\":557:561   */\n  0x1f\n    /* \"#utility.yul\":549:555   */\n  dup4\n    /* \"#utility.yul\":545:562   */\n  add\n    /* \"#utility.yul\":541:568   */\n  slt\n    /* \"#utility.yul\":531:653   */\n  tag_35\n  jumpi\n    /* \"#utility.yul\":572:651   */\n  tag_36\n  tag_37\n  jump\t// in\ntag_36:\n    /* \"#utility.yul\":531:653   */\ntag_35:\n    /* \"#utility.yul\":682:688   */\n  dup2\n    /* \"#utility.yul\":676:689   */\n  mload\n    /* \"#utility.yul\":707:797   */\n  tag_38\n    /* \"#utility.yul\":793:796   */\n  dup5\n    /* \"#utility.yul\":785:791   */\n  dup3\n    /* \"#utility.yul\":778:782   */\n  0x20\n    /* \"#utility.yul\":770:776   */\n  dup7\n    /* \"#utility.yul\":766:783   */\n  add\n    /* \"#utility.yul\":707:797   */\n  tag_22\n  jump\t// in\ntag_38:\n    /* \"#utility.yul\":698:797   */\n  swap2\n  pop\n    /* \"#utility.yul\":521:803   */\n  pop\n    /* \"#utility.yul\":448:803   */\n  swap3\n  swap2\n  pop\n  pop\n  jump\t// out\n    /* \"#utility.yul\":809:1662   */\ntag_3:\n    /* \"#utility.yul\":908:914   */\n  0x00\n    /* \"#utility.yul\":916:922   */\n  dup1\n    /* \"#utility.yul\":965:967   */\n  0x40\n    /* \"#utility.yul\":953:962   */\n  dup4\n    /* \"#utility.yul\":944:951   */\n  dup6\n    /* \"#utility.yul\":940:963   */\n  sub\n    /* \"#utility.yul\":936:968   */\n  slt\n    /* \"#utility.yul\":933:1052   */\n  iszero\n  tag_40\n  jumpi\n    /* \"#utility.yul\":971:1050   */\n  tag_41\n  tag_42\n  jump\t// in\ntag_41:\n    /* \"#utility.yul\":933:1052   */\ntag_40:\n    /* \"#utility.yul\":1112:1113   */\n  0x00\n    /* \"#utility.yul\":1101:1110   */\n  dup4\n    /* \"#utility.yul\":1097:1114   */\n  add\n    /* \"#utility.yul\":1091:1115   */\n  mload\n    /* \"#utility.yul\":1142:1160   */\n  0xffffffffffffffff\n    /* \"#utility.yul\":1134:1140   */\n  dup2\n    /* \"#utility.yul\":1131:1161   */\n  gt\n    /* \"#utility.yul\":1128:1245   */\n  iszero\n  tag_43\n  jumpi\n    /* \"#utility.yul\":1164:1243   */\n  tag_44\n  tag_45\n  jump\t// in\ntag_44:\n    /* \"#utility.yul\":1128:1245   */\ntag_43:\n    /* \"#utility.yul\":1269:1343   */\n  tag_46\n    /* \"#utility.yul\":1335:1342   */\n  dup6\n    /* \"#utility.yul\":1326:1332   */\n  dup3\n    /* \"#utility.yul\":1315:1324   */\n  dup7\n    /* \"#utility.yul\":1311:1333   */\n  add\n    /* \"#utility.yul\":1269:1343   */\n  tag_33\n  jump\t// in\ntag_46:\n    /* \"#utility.yul\":1259:1343   */\n  swap3\n  pop\n    /* \"#utility.yul\":1062:1353   */\n  pop\n    /* \"#utility.yul\":1413:1415   */\n  0x20\n    /* \"#utility.yul\":1402:1411   */\n  dup4\n    /* \"#utility.yul\":1398:1416   */\n  add\n    /* \"#utility.yul\":1392:1417   */\n  mload\n    /* \"#utility.yul\":1444:1462   */\n  0xffffffffffffffff\n    /* \"#utility.yul\":1436:1442   */\n  dup2\n    /* \"#utility.yul\":1433:1463   */\n  gt\n    /* \"#utility.yul\":1430:1547   */\n  iszero\n  tag_47\n  jumpi\n    /* \"#utility.yul\":1466:1545   */\n  tag_48\n  tag_45\n  jump\t// in\ntag_48:\n    /* \"#utility.yul\":1430:1547   */\ntag_47:\n    /* \"#utility.yul\":1571:1645   */\n  tag_49\n    /* \"#utility.yul\":1637:1644   */\n  dup6\n    /* \"#utility.yul\":1628:1634   */\n  dup3\n    /* \"#utility.yul\":1617:1626   */\n  dup7\n    /* \"#utility.yul\":1613:1635   */\n  add\n    /* \"#utility.yul\":1571:1645   */\n  tag_33\n  jump\t// in\ntag_49:\n    /* \"#utility.yul\":1561:1645   */\n  swap2\n  pop\n    /* \"#utility.yul\":1363:1655   */\n  pop\n    /* \"#utility.yul\":809:1662   */\n  swap3\n  pop\n  swap3\n  swap1\n  pop\n  jump\t// out\n    /* \"#utility.yul\":1668:1797   */\ntag_27:\n    /* \"#utility.yul\":1702:1708   */\n  0x00\n    /* \"#utility.yul\":1729:1749   */\n  tag_51\n  tag_52\n  jump\t// in\ntag_51:\n    /* \"#utility.yul\":1719:1749   */\n  swap1\n  pop\n    /* \"#utility.yul\":1758:1791   */\n  tag_53\n    /* \"#utility.yul\":1786:1790   */\n  dup3\n    /* \"#utility.yul\":1778:1784   */\n  dup3\n    /* \"#utility.yul\":1758:1791   */\n  tag_54\n  jump\t// in\ntag_53:\n    /* \"#utility.yul\":1668:1797   */\n  swap2\n  swap1\n  pop\n  jump\t// out\n    /* \"#utility.yul\":1803:1878   */\ntag_52:\n    /* \"#utility.yul\":1836:1842   */\n  0x00\n    /* \"#utility.yul\":1869:1871   */\n  0x40\n    /* \"#utility.yul\":1863:1872   */\n  mload\n    /* \"#utility.yul\":1853:1872   */\n  swap1\n  pop\n    /* \"#utility.yul\":1803:1878   */\n  swap1\n  jump\t// out\n    /* \"#utility.yul\":1884:2192   */\ntag_26:\n    /* \"#utility.yul\":1946:1950   */\n  0x00\n    /* \"#utility.yul\":2036:2054   */\n  0xffffffffffffffff\n    /* \"#utility.yul\":2028:2034   */\n  dup3\n    /* \"#utility.yul\":2025:2055   */\n  gt\n    /* \"#utility.yul\":2022:2078   */\n  iszero\n  tag_57\n  jumpi\n    /* \"#utility.yul\":2058:2076   */\n  tag_58\n  tag_59\n  jump\t// in\ntag_58:\n    /* \"#utility.yul\":2022:2078   */\ntag_57:\n    /* \"#utility.yul\":2096:2125   */\n  tag_60\n    /* \"#utility.yul\":2118:2124   */\n  dup3\n    /* \"#utility.yul\":2096:2125   */\n  tag_61\n  jump\t// in\ntag_60:\n    /* \"#utility.yul\":2088:2125   */\n  swap1\n  pop\n    /* \"#utility.yul\":2180:2184   */\n  0x20\n    /* \"#utility.yul\":2174:2178   */\n  dup2\n    /* \"#utility.yul\":2170:2185   */\n  add\n    /* \"#utility.yul\":2162:2185   */\n  swap1\n  pop\n    /* \"#utility.yul\":1884:2192   */\n  swap2\n  swap1\n  pop\n  jump\t// out\n    /* \"#utility.yul\":2198:2505   */\ntag_32:\n    /* \"#utility.yul\":2266:2267   */\n  0x00\n    /* \"#utility.yul\":2276:2389   */\ntag_63:\n    /* \"#utility.yul\":2290:2296   */\n  dup4\n    /* \"#utility.yul\":2287:2288   */\n  dup2\n    /* \"#utility.yul\":2284:2297   */\n  lt\n    /* \"#utility.yul\":2276:2389   */\n  iszero\n  tag_65\n  jumpi\n    /* \"#utility.yul\":2375:2376   */\n  dup1\n    /* \"#utility.yul\":2370:2373   */\n  dup3\n    /* \"#utility.yul\":2366:2377   */\n  add\n    /* \"#utility.yul\":2360:2378   */\n  mload\n    /* \"#utility.yul\":2356:2357   */\n  dup2\n    /* \"#utility.yul\":2351:2354   */\n  dup5\n    /* \"#utility.yul\":2347:2358   */\n  add\n    /* \"#utility.yul\":2340:2379   */\n  mstore\n    /* \"#utility.yul\":2312:2314   */\n  0x20\n    /* \"#utility.yul\":2309:2310   */\n  dup2\n    /* \"#utility.yul\":2305:2315   */\n  add\n    /* \"#utility.yul\":2300:2315   */\n  swap1\n  pop\n    /* \"#utility.yul\":2276:2389   */\n  jump(tag_63)\ntag_65:\n    /* \"#utility.yul\":2407:2413   */\n  dup4\n    /* \"#utility.yul\":2404:2405   */\n  dup2\n    /* \"#utility.yul\":2401:2414   */\n  gt\n    /* \"#utility.yul\":2398:2499   */\n  iszero\n  tag_66\n  jumpi\n    /* \"#utility.yul\":2487:2488   */\n  0x00\n    /* \"#utility.yul\":2478:2484   */\n  dup5\n    /* \"#utility.yul\":2473:2476   */\n  dup5\n    /* \"#utility.yul\":2469:2485   */\n  add\n    /* \"#utility.yul\":2462:2489   */\n  mstore\n    /* \"#utility.yul\":2398:2499   */\ntag_66:\n    /* \"#utility.yul\":2247:2505   */\n  pop\n    /* \"#utility.yul\":2198:2505   */\n  pop\n  pop\n  pop\n  jump\t// out\n    /* \"#utility.yul\":2511:2831   */\ntag_11:\n    /* \"#utility.yul\":2555:2561   */\n  0x00\n    /* \"#utility.yul\":2592:2593   */\n  0x02\n    /* \"#utility.yul\":2586:2590   */\n  dup3\n    /* \"#utility.yul\":2582:2594   */\n  div\n    /* \"#utility.yul\":2572:2594   */\n  swap1\n  pop\n    /* \"#utility.yul\":2639:2640   */\n  0x01\n    /* \"#utility.yul\":2633:2637   */\n  dup3\n    /* \"#utility.yul\":2629:2641   */\n  and\n    /* \"#utility.yul\":2660:2678   */\n  dup1\n    /* \"#utility.yul\":2650:2731   */\n  tag_68\n  jumpi\n    /* \"#utility.yul\":2716:2720   */\n  0x7f\n    /* \"#utility.yul\":2708:2714   */\n  dup3\n    /* \"#utility.yul\":2704:2721   */\n  and\n    /* \"#utility.yul\":2694:2721   */\n  swap2\n  pop\n    /* \"#utility.yul\":2650:2731   */\ntag_68:\n    /* \"#utility.yul\":2778:2780   */\n  0x20\n    /* \"#utility.yul\":2770:2776   */\n  dup3\n    /* \"#utility.yul\":2767:2781   */\n  lt\n    /* \"#utility.yul\":2747:2765   */\n  dup2\n    /* \"#utility.yul\":2744:2782   */\n  eq\n    /* \"#utility.yul\":2741:2825   */\n  iszero\n  tag_69\n  jumpi\n    /* \"#utility.yul\":2797:2815   */\n  tag_70\n  tag_71\n  jump\t// in\ntag_70:\n    /* \"#utility.yul\":2741:2825   */\ntag_69:\n    /* \"#utility.yul\":2562:2831   */\n  pop\n    /* \"#utility.yul\":2511:2831   */\n  swap2\n  swap1\n  pop\n  jump\t// out\n    /* \"#utility.yul\":2837:3118   */\ntag_54:\n    /* \"#utility.yul\":2920:2947   */\n  tag_73\n    /* \"#utility.yul\":2942:2946   */\n  dup3\n    /* \"#utility.yul\":2920:2947   */\n  tag_61\n  jump\t// in\ntag_73:\n    /* \"#utility.yul\":2912:2918   */\n  dup2\n    /* \"#utility.yul\":2908:2948   */\n  add\n    /* \"#utility.yul\":3050:3056   */\n  dup2\n    /* \"#utility.yul\":3038:3048   */\n  dup2\n    /* \"#utility.yul\":3035:3057   */\n  lt\n    /* \"#utility.yul\":3014:3032   */\n  0xffffffffffffffff\n    /* \"#utility.yul\":3002:3012   */\n  dup3\n    /* \"#utility.yul\":2999:3033   */\n  gt\n    /* \"#utility.yul\":2996:3058   */\n  or\n    /* \"#utility.yul\":2993:3081   */\n  iszero\n  tag_74\n  jumpi\n    /* \"#utility.yul\":3061:3079   */\n  tag_75\n  tag_59\n  jump\t// in\ntag_75:\n    /* \"#utility.yul\":2993:3081   */\ntag_74:\n    /* \"#utility.yul\":3101:3111   */\n  dup1\n    /* \"#utility.yul\":3097:3099   */\n  0x40\n    /* \"#utility.yul\":3090:3112   */\n  mstore\n    /* \"#utility.yul\":2880:3118   */\n  pop\n    /* \"#utility.yul\":2837:3118   */\n  pop\n  pop\n  jump\t// out\n    /* \"#utility.yul\":3124:3304   */\ntag_71:\n    /* \"#utility.yul\":3172:3249   */\n  0x4e487b7100000000000000000000000000000000000000000000000000000000\n    /* \"#utility.yul\":3169:3170   */\n  0x00\n    /* \"#utility.yul\":3162:3250   */\n  mstore\n    /* \"#utility.yul\":3269:3273   */\n  0x22\n    /* \"#utility.yul\":3266:3267   */\n  0x04\n    /* \"#utility.yul\":3259:3274   */\n  mstore\n    /* \"#utility.yul\":3293:3297   */\n  0x24\n    /* \"#utility.yul\":3290:3291   */\n  0x00\n    /* \"#utility.yul\":3283:3298   */\n  revert\n    /* \"#utility.yul\":3310:3490   */\ntag_59:\n    /* \"#utility.yul\":3358:3435   */\n  0x4e487b7100000000000000000000000000000000000000000000000000000000\n    /* \"#utility.yul\":3355:3356   */\n  0x00\n    /* \"#utility.yul\":3348:3436   */\n  mstore\n    /* \"#utility.yul\":3455:3459   */\n  0x41\n    /* \"#utility.yul\":3452:3453   */\n  0x04\n    /* \"#utility.yul\":3445:3460   */\n  mstore\n    /* \"#utility.yul\":3479:3483   */\n  0x24\n    /* \"#utility.yul\":3476:3477   */\n  0x00\n    /* \"#utility.yul\":3469:3484   */\n  revert\n    /* \"#utility.yul\":3496:3613   */\ntag_37:\n    /* \"#utility.yul\":3605:3606   */\n  0x00\n    /* \"#utility.yul\":3602:3603   */\n  dup1\n    /* \"#utility.yul\":3595:3607   */\n  revert\n    /* \"#utility.yul\":3619:3736   */\ntag_30:\n    /* \"#utility.yul\":3728:3729   */\n  0x00\n    /* \"#utility.yul\":3725:3726   */\n  dup1\n    /* \"#utility.yul\":3718:3730   */\n  revert\n    /* \"#utility.yul\":3742:3859   */\ntag_45:\n    /* \"#utility.yul\":3851:3852   */\n  0x00\n    /* \"#utility.yul\":3848:3849   */\n  dup1\n    /* \"#utility.yul\":3841:3853   */\n  revert\n    /* \"#utility.yul\":3865:3982   */\ntag_42:\n    /* \"#utility.yul\":3974:3975   */\n  0x00\n    /* \"#utility.yul\":3971:3972   */\n  dup1\n    /* \"#utility.yul\":3964:3976   */\n  revert\n    /* \"#utility.yul\":3988:4090   */\ntag_61:\n    /* \"#utility.yul\":4029:4035   */\n  0x00\n    /* \"#utility.yul\":4080:4082   */\n  0x1f\n    /* \"#utility.yul\":4076:4083   */\n  not\n    /* \"#utility.yul\":4071:4073   */\n  0x1f\n    /* \"#utility.yul\":4064:4069   */\n  dup4\n    /* \"#utility.yul\":4060:4074   */\n  add\n    /* \"#utility.yul\":4056:4084   */\n  and\n    /* \"#utility.yul\":4046:4084   */\n  swap1\n  pop\n    /* \"#utility.yul\":3988:4090   */\n  swap2\n  swap1\n  pop\n  jump\t// out\n    /* \"contracts/vanthenaNft.sol\":545:17431  contract vanthenaNft is Context, ERC165, IERC721, IERC721Metadata  {... */\ntag_9:\n  dataSize(sub_0)\n  dup1\n  dataOffset(sub_0)\n  0x00\n  codecopy\n  0x00\n  return\nstop\n\nsub_0: assembly {\n        /* \"contracts/vanthenaNft.sol\":545:17431  contract vanthenaNft is Context, ERC165, IERC721, IERC721Metadata  {... */\n      mstore(0x40, 0x80)\n      callvalue\n      dup1\n      iszero\n      tag_1\n      jumpi\n      0x00\n      dup1\n      revert\n    tag_1:\n      pop\n      jumpi(tag_2, lt(calldatasize, 0x04))\n      shr(0xe0, calldataload(0x00))\n      dup1\n      0x6352211e\n      gt\n      tag_18\n      jumpi\n      dup1\n      0xa22cb465\n      gt\n      tag_19\n      jumpi\n      dup1\n      0xa22cb465\n      eq\n      tag_14\n      jumpi\n      dup1\n      0xb88d4fde\n      eq\n      tag_15\n      jumpi\n      dup1\n      0xc87b56dd\n      eq\n      tag_16\n      jumpi\n      dup1\n      0xe985e9c5\n      eq\n      tag_17\n      jumpi\n      jump(tag_2)\n    tag_19:\n      dup1\n      0x6352211e\n      eq\n      tag_10\n      jumpi\n      dup1\n      0x6a627842\n      eq\n      tag_11\n      jumpi\n      dup1\n      0x70a08231\n      eq\n      tag_12\n      jumpi\n      dup1\n      0x95d89b41\n      eq\n      tag_13\n      jumpi\n      jump(tag_2)\n    tag_18:\n      dup1\n      0x095ea7b3\n      gt\n      tag_20\n      jumpi\n      dup1\n      0x095ea7b3\n      eq\n      tag_6\n      jumpi\n      dup1\n      0x23b872dd\n      eq\n      tag_7\n      jumpi\n      dup1\n      0x42842e0e\n      eq\n      tag_8\n      jumpi\n      dup1\n      0x42966c68\n      eq\n      tag_9\n      jumpi\n      jump(tag_2)\n    tag_20:\n      dup1\n      0x01ffc9a7\n      eq\n      tag_3\n      jumpi\n      dup1\n      0x06fdde03\n      eq\n      tag_4\n      jumpi\n      dup1\n      0x081812fc\n      eq\n      tag_5\n      jumpi\n    tag_2:\n      0x00\n      dup1\n      revert\n        /* \"contracts/vanthenaNft.sol\":1581:1881  function supportsInterface(bytes4 interfaceId) public view virtual override(ERC165, IERC165) returns (bool) {... */\n    tag_3:\n      tag_21\n      0x04\n      dup1\n      calldatasize\n      sub\n      dup2\n      add\n      swap1\n      tag_22\n      swap2\n      swap1\n      tag_23\n      jump\t// in\n    tag_22:\n      tag_24\n      jump\t// in\n    tag_21:\n      mload(0x40)\n      tag_25\n      swap2\n      swap1\n      tag_26\n      jump\t// in\n    tag_25:\n      mload(0x40)\n      dup1\n      swap2\n      sub\n      swap1\n      return\n        /* \"contracts/vanthenaNft.sol\":2482:2580  function name() public view virtual override returns (string memory) {... */\n    tag_4:\n      tag_27\n      tag_28\n      jump\t// in\n    tag_27:\n      mload(0x40)\n      tag_29\n      swap2\n      swap1\n      tag_30\n      jump\t// in\n    tag_29:\n      mload(0x40)\n      dup1\n      swap2\n      sub\n      swap1\n      return\n        /* \"contracts/vanthenaNft.sol\":3951:4118  function getApproved(uint256 tokenId) public view virtual override returns (address) {... */\n    tag_5:\n      tag_31\n      0x04\n      dup1\n      calldatasize\n      sub\n      dup2\n      add\n      swap1\n      tag_32\n      swap2\n      swap1\n      tag_33\n      jump\t// in\n    tag_32:\n      tag_34\n      jump\t// in\n    tag_31:\n      mload(0x40)\n      tag_35\n      swap2\n      swap1\n      tag_36\n      jump\t// in\n    tag_35:\n      mload(0x40)\n      dup1\n      swap2\n      sub\n      swap1\n      return\n        /* \"contracts/vanthenaNft.sol\":3479:3890  function approve(address to, uint256 tokenId) public virtual override {... */\n    tag_6:\n      tag_37\n      0x04\n      dup1\n      calldatasize\n      sub\n      dup2\n      add\n      swap1\n      tag_38\n      swap2\n      swap1\n      tag_39\n      jump\t// in\n    tag_38:\n      tag_40\n      jump\t// in\n    tag_37:\n      stop\n        /* \"contracts/vanthenaNft.sol\":4628:4954  function transferFrom(... */\n    tag_7:\n      tag_41\n      0x04\n      dup1\n      calldatasize\n      sub\n      dup2\n      add\n      swap1\n      tag_42\n      swap2\n      swap1\n      tag_43\n      jump\t// in\n    tag_42:\n      tag_44\n      jump\t// in\n    tag_41:\n      stop\n        /* \"contracts/vanthenaNft.sol\":5020:5199  function safeTransferFrom(... */\n    tag_8:\n      tag_45\n      0x04\n      dup1\n      calldatasize\n      sub\n      dup2\n      add\n      swap1\n      tag_46\n      swap2\n      swap1\n      tag_43\n      jump\t// in\n    tag_46:\n      tag_47\n      jump\t// in\n    tag_45:\n      stop\n        /* \"contracts/vanthenaNft.sol\":5796:6009  function burn(uint256 tokenId) public virtual {... */\n    tag_9:\n      tag_48\n      0x04\n      dup1\n      calldatasize\n      sub\n      dup2\n      add\n      swap1\n      tag_49\n      swap2\n      swap1\n      tag_33\n      jump\t// in\n    tag_49:\n      tag_50\n      jump\t// in\n    tag_48:\n      stop\n        /* \"contracts/vanthenaNft.sol\":2201:2420  function ownerOf(uint256 tokenId) public view virtual override returns (address) {... */\n    tag_10:\n      tag_51\n      0x04\n      dup1\n      calldatasize\n      sub\n      dup2\n      add\n      swap1\n      tag_52\n      swap2\n      swap1\n      tag_33\n      jump\t// in\n    tag_52:\n      tag_53\n      jump\t// in\n    tag_51:\n      mload(0x40)\n      tag_54\n      swap2\n      swap1\n      tag_36\n      jump\t// in\n    tag_54:\n      mload(0x40)\n      dup1\n      swap2\n      sub\n      swap1\n      return\n        /* \"contracts/vanthenaNft.sol\":5585:5790  function mint(address to) public virtual returns(uint256){... */\n    tag_11:\n      tag_55\n      0x04\n      dup1\n      calldatasize\n      sub\n      dup2\n      add\n      swap1\n      tag_56\n      swap2\n      swap1\n      tag_57\n      jump\t// in\n    tag_56:\n      tag_58\n      jump\t// in\n    tag_55:\n      mload(0x40)\n      tag_59\n      swap2\n      swap1\n      tag_60\n      jump\t// in\n    tag_59:\n      mload(0x40)\n      dup1\n      swap2\n      sub\n      swap1\n      return\n        /* \"contracts/vanthenaNft.sol\":1940:2144  function balanceOf(address owner) public view virtual override returns (uint256) {... */\n    tag_12:\n      tag_61\n      0x04\n      dup1\n      calldatasize\n      sub\n      dup2\n      add\n      swap1\n      tag_62\n      swap2\n      swap1\n      tag_57\n      jump\t// in\n    tag_62:\n      tag_63\n      jump\t// in\n    tag_61:\n      mload(0x40)\n      tag_64\n      swap2\n      swap1\n      tag_60\n      jump\t// in\n    tag_64:\n      mload(0x40)\n      dup1\n      swap2\n      sub\n      swap1\n      return\n        /* \"contracts/vanthenaNft.sol\":2644:2746  function symbol() public view virtual override returns (string memory) {... */\n    tag_13:\n      tag_65\n      tag_66\n      jump\t// in\n    tag_65:\n      mload(0x40)\n      tag_67\n      swap2\n      swap1\n      tag_30\n      jump\t// in\n    tag_67:\n      mload(0x40)\n      dup1\n      swap2\n      sub\n      swap1\n      return\n        /* \"contracts/vanthenaNft.sol\":4185:4338  function setApprovalForAll(address operator, bool approved) public virtual override {... */\n    tag_14:\n      tag_68\n      0x04\n      dup1\n      calldatasize\n      sub\n      dup2\n      add\n      swap1\n      tag_69\n      swap2\n      swap1\n      tag_70\n      jump\t// in\n    tag_69:\n      tag_71\n      jump\t// in\n    tag_68:\n      stop\n        /* \"contracts/vanthenaNft.sol\":5265:5579  function safeTransferFrom(... */\n    tag_15:\n      tag_72\n      0x04\n      dup1\n      calldatasize\n      sub\n      dup2\n      add\n      swap1\n      tag_73\n      swap2\n      swap1\n      tag_74\n      jump\t// in\n    tag_73:\n      tag_75\n      jump\t// in\n    tag_72:\n      stop\n        /* \"contracts/vanthenaNft.sol\":2812:3088  function tokenURI(uint256 tokenId) public view virtual override returns (string memory) {... */\n    tag_16:\n      tag_76\n      0x04\n      dup1\n      calldatasize\n      sub\n      dup2\n      add\n      swap1\n      tag_77\n      swap2\n      swap1\n      tag_33\n      jump\t// in\n    tag_77:\n      tag_78\n      jump\t// in\n    tag_76:\n      mload(0x40)\n      tag_79\n      swap2\n      swap1\n      tag_30\n      jump\t// in\n    tag_79:\n      mload(0x40)\n      dup1\n      swap2\n      sub\n      swap1\n      return\n        /* \"contracts/vanthenaNft.sol\":4404:4566  function isApprovedForAll(address owner, address operator) public view virtual override returns (bool) {... */\n    tag_17:\n      tag_80\n      0x04\n      dup1\n      calldatasize\n      sub\n      dup2\n      add\n      swap1\n      tag_81\n      swap2\n      swap1\n      tag_82\n      jump\t// in\n    tag_81:\n      tag_83\n      jump\t// in\n    tag_80:\n      mload(0x40)\n      tag_84\n      swap2\n      swap1\n      tag_26\n      jump\t// in\n    tag_84:\n      mload(0x40)\n      dup1\n      swap2\n      sub\n      swap1\n      return\n        /* \"contracts/vanthenaNft.sol\":1581:1881  function supportsInterface(bytes4 interfaceId) public view virtual override(ERC165, IERC165) returns (bool) {... */\n    tag_24:\n        /* \"contracts/vanthenaNft.sol\":1683:1687  bool */\n      0x00\n        /* \"contracts/vanthenaNft.sol\":1733:1758  type(IERC721).interfaceId */\n      0x80ac58cd00000000000000000000000000000000000000000000000000000000\n        /* \"contracts/vanthenaNft.sol\":1718:1758  interfaceId == type(IERC721).interfaceId */\n      not(0xffffffffffffffffffffffffffffffffffffffffffffffffffffffff)\n      and\n        /* \"contracts/vanthenaNft.sol\":1718:1729  interfaceId */\n      dup3\n        /* \"contracts/vanthenaNft.sol\":1718:1758  interfaceId == type(IERC721).interfaceId */\n      not(0xffffffffffffffffffffffffffffffffffffffffffffffffffffffff)\n      and\n      eq\n        /* \"contracts/vanthenaNft.sol\":1718:1822  interfaceId == type(IERC721).interfaceId ||... */\n      dup1\n      tag_86\n      jumpi\n      pop\n        /* \"contracts/vanthenaNft.sol\":1789:1822  type(IERC721Metadata).interfaceId */\n      0x5b5e139f00000000000000000000000000000000000000000000000000000000\n        /* \"contracts/vanthenaNft.sol\":1774:1822  interfaceId == type(IERC721Metadata).interfaceId */\n      not(0xffffffffffffffffffffffffffffffffffffffffffffffffffffffff)\n      and\n        /* \"contracts/vanthenaNft.sol\":1774:1785  interfaceId */\n      dup3\n        /* \"contracts/vanthenaNft.sol\":1774:1822  interfaceId == type(IERC721Metadata).interfaceId */\n      not(0xffffffffffffffffffffffffffffffffffffffffffffffffffffffff)\n      and\n      eq\n        /* \"contracts/vanthenaNft.sol\":1718:1822  interfaceId == type(IERC721).interfaceId ||... */\n    tag_86:\n        /* \"contracts/vanthenaNft.sol\":1718:1874  interfaceId == type(IERC721).interfaceId ||... */\n      dup1\n      tag_87\n      jumpi\n      pop\n        /* \"contracts/vanthenaNft.sol\":1838:1874  super.supportsInterface(interfaceId) */\n      tag_88\n        /* \"contracts/vanthenaNft.sol\":1862:1873  interfaceId */\n      dup3\n        /* \"contracts/vanthenaNft.sol\":1838:1861  super.supportsInterface */\n      tag_89\n        /* \"contracts/vanthenaNft.sol\":1838:1874  super.supportsInterface(interfaceId) */\n      jump\t// in\n    tag_88:\n        /* \"contracts/vanthenaNft.sol\":1718:1874  interfaceId == type(IERC721).interfaceId ||... */\n    tag_87:\n        /* \"contracts/vanthenaNft.sol\":1699:1874  return... */\n      swap1\n      pop\n        /* \"contracts/vanthenaNft.sol\":1581:1881  function supportsInterface(bytes4 interfaceId) public view virtual override(ERC165, IERC165) returns (bool) {... */\n      swap2\n      swap1\n      pop\n      jump\t// out\n        /* \"contracts/vanthenaNft.sol\":2482:2580  function name() public view virtual override returns (string memory) {... */\n    tag_28:\n        /* \"contracts/vanthenaNft.sol\":2536:2549  string memory */\n      0x60\n        /* \"contracts/vanthenaNft.sol\":2568:2573  _name */\n      0x01\n        /* \"contracts/vanthenaNft.sol\":2561:2573  return _name */\n      dup1\n      sload\n      tag_91\n      swap1\n      tag_92\n      jump\t// in\n    tag_91:\n      dup1\n      0x1f\n      add\n      0x20\n      dup1\n      swap2\n      div\n      mul\n      0x20\n      add\n      mload(0x40)\n      swap1\n      dup2\n      add\n      0x40\n      mstore\n      dup1\n      swap3\n      swap2\n      swap1\n      dup2\n      dup2\n      mstore\n      0x20\n      add\n      dup3\n      dup1\n      sload\n      tag_93\n      swap1\n      tag_92\n      jump\t// in\n    tag_93:\n      dup1\n      iszero\n      tag_94\n      jumpi\n      dup1\n      0x1f\n      lt\n      tag_95\n      jumpi\n      0x0100\n      dup1\n      dup4\n      sload\n      div\n      mul\n      dup4\n      mstore\n      swap2\n      0x20\n      add\n      swap2\n      jump(tag_94)\n    tag_95:\n      dup3\n      add\n      swap2\n      swap1\n      0x00\n      mstore\n      keccak256(0x00, 0x20)\n      swap1\n    tag_96:\n      dup2\n      sload\n      dup2\n      mstore\n      swap1\n      0x01\n      add\n      swap1\n      0x20\n      add\n      dup1\n      dup4\n      gt\n      tag_96\n      jumpi\n      dup3\n      swap1\n      sub\n      0x1f\n      and\n      dup3\n      add\n      swap2\n    tag_94:\n      pop\n      pop\n      pop\n      pop\n      pop\n      swap1\n      pop\n        /* \"contracts/vanthenaNft.sol\":2482:2580  function name() public view virtual override returns (string memory) {... */\n      swap1\n      jump\t// out\n        /* \"contracts/vanthenaNft.sol\":3951:4118  function getApproved(uint256 tokenId) public view virtual override returns (address) {... */\n    tag_34:\n        /* \"contracts/vanthenaNft.sol\":4027:4034  address */\n      0x00\n        /* \"contracts/vanthenaNft.sol\":4046:4069  _requireMinted(tokenId) */\n      tag_98\n        /* \"contracts/vanthenaNft.sol\":4061:4068  tokenId */\n      dup3\n        /* \"contracts/vanthenaNft.sol\":4046:4060  _requireMinted */\n      tag_99\n        /* \"contracts/vanthenaNft.sol\":4046:4069  _requireMinted(tokenId) */\n      jump\t// in\n    tag_98:\n        /* \"contracts/vanthenaNft.sol\":4087:4102  _tokenApprovals */\n      0x05\n        /* \"contracts/vanthenaNft.sol\":4087:4111  _tokenApprovals[tokenId] */\n      0x00\n        /* \"contracts/vanthenaNft.sol\":4103:4110  tokenId */\n      dup4\n        /* \"contracts/vanthenaNft.sol\":4087:4111  _tokenApprovals[tokenId] */\n      dup2\n      mstore\n      0x20\n      add\n      swap1\n      dup2\n      mstore\n      0x20\n      add\n      0x00\n      keccak256\n      0x00\n      swap1\n      sload\n      swap1\n      0x0100\n      exp\n      swap1\n      div\n      0xffffffffffffffffffffffffffffffffffffffff\n      and\n        /* \"contracts/vanthenaNft.sol\":4080:4111  return _tokenApprovals[tokenId] */\n      swap1\n      pop\n        /* \"contracts/vanthenaNft.sol\":3951:4118  function getApproved(uint256 tokenId) public view virtual override returns (address) {... */\n      swap2\n      swap1\n      pop\n      jump\t// out\n        /* \"contracts/vanthenaNft.sol\":3479:3890  function approve(address to, uint256 tokenId) public virtual override {... */\n    tag_40:\n        /* \"contracts/vanthenaNft.sol\":3559:3572  address owner */\n      0x00\n        /* \"contracts/vanthenaNft.sol\":3575:3603  vanthenaNft.ownerOf(tokenId) */\n      tag_101\n        /* \"contracts/vanthenaNft.sol\":3595:3602  tokenId */\n      dup3\n        /* \"contracts/vanthenaNft.sol\":3575:3594  vanthenaNft.ownerOf */\n      tag_53\n        /* \"contracts/vanthenaNft.sol\":3575:3603  vanthenaNft.ownerOf(tokenId) */\n      jump\t// in\n    tag_101:\n        /* \"contracts/vanthenaNft.sol\":3559:3603  address owner = vanthenaNft.ownerOf(tokenId) */\n      swap1\n      pop\n        /* \"contracts/vanthenaNft.sol\":3627:3632  owner */\n      dup1\n        /* \"contracts/vanthenaNft.sol\":3621:3632  to != owner */\n      0xffffffffffffffffffffffffffffffffffffffff\n      and\n        /* \"contracts/vanthenaNft.sol\":3621:3623  to */\n      dup4\n        /* \"contracts/vanthenaNft.sol\":3621:3632  to != owner */\n      0xffffffffffffffffffffffffffffffffffffffff\n      and\n      eq\n      iszero\n        /* \"contracts/vanthenaNft.sol\":3613:3670  require(to != owner, \"ERC721: approval to current owner\") */\n      tag_102\n      jumpi\n      mload(0x40)\n      0x08c379a000000000000000000000000000000000000000000000000000000000\n      dup2\n      mstore\n      0x04\n      add\n      tag_103\n      swap1\n      tag_104\n      jump\t// in\n    tag_103:\n      mload(0x40)\n      dup1\n      swap2\n      sub\n      swap1\n      revert\n    tag_102:\n        /* \"contracts/vanthenaNft.sol\":3718:3723  owner */\n      dup1\n        /* \"contracts/vanthenaNft.sol\":3702:3723  _msgSender() == owner */\n      0xffffffffffffffffffffffffffffffffffffffff\n      and\n        /* \"contracts/vanthenaNft.sol\":3702:3714  _msgSender() */\n      tag_105\n        /* \"contracts/vanthenaNft.sol\":3702:3712  _msgSender */\n      tag_106\n        /* \"contracts/vanthenaNft.sol\":3702:3714  _msgSender() */\n      jump\t// in\n    tag_105:\n        /* \"contracts/vanthenaNft.sol\":3702:3723  _msgSender() == owner */\n      0xffffffffffffffffffffffffffffffffffffffff\n      and\n      eq\n        /* \"contracts/vanthenaNft.sol\":3702:3764  _msgSender() == owner || isApprovedForAll(owner, _msgSender()) */\n      dup1\n      tag_107\n      jumpi\n      pop\n        /* \"contracts/vanthenaNft.sol\":3727:3764  isApprovedForAll(owner, _msgSender()) */\n      tag_108\n        /* \"contracts/vanthenaNft.sol\":3744:3749  owner */\n      dup2\n        /* \"contracts/vanthenaNft.sol\":3751:3763  _msgSender() */\n      tag_109\n        /* \"contracts/vanthenaNft.sol\":3751:3761  _msgSender */\n      tag_106\n        /* \"contracts/vanthenaNft.sol\":3751:3763  _msgSender() */\n      jump\t// in\n    tag_109:\n        /* \"contracts/vanthenaNft.sol\":3727:3743  isApprovedForAll */\n      tag_83\n        /* \"contracts/vanthenaNft.sol\":3727:3764  isApprovedForAll(owner, _msgSender()) */\n      jump\t// in\n    tag_108:\n        /* \"contracts/vanthenaNft.sol\":3702:3764  _msgSender() == owner || isApprovedForAll(owner, _msgSender()) */\n    tag_107:\n        /* \"contracts/vanthenaNft.sol\":3681:3851  require(... */\n      tag_110\n      jumpi\n      mload(0x40)\n      0x08c379a000000000000000000000000000000000000000000000000000000000\n      dup2\n      mstore\n      0x04\n      add\n      tag_111\n      swap1\n      tag_112\n      jump\t// in\n    tag_111:\n      mload(0x40)\n      dup1\n      swap2\n      sub\n      swap1\n      revert\n    tag_110:\n        /* \"contracts/vanthenaNft.sol\":3862:3883  _approve(to, tokenId) */\n      tag_113\n        /* \"contracts/vanthenaNft.sol\":3871:3873  to */\n      dup4\n        /* \"contracts/vanthenaNft.sol\":3875:3882  tokenId */\n      dup4\n        /* \"contracts/vanthenaNft.sol\":3862:3870  _approve */\n      tag_114\n        /* \"contracts/vanthenaNft.sol\":3862:3883  _approve(to, tokenId) */\n      jump\t// in\n    tag_113:\n        /* \"contracts/vanthenaNft.sol\":3549:3890  {... */\n      pop\n        /* \"contracts/vanthenaNft.sol\":3479:3890  function approve(address to, uint256 tokenId) public virtual override {... */\n      pop\n      pop\n      jump\t// out\n        /* \"contracts/vanthenaNft.sol\":4628:4954  function transferFrom(... */\n    tag_44:\n        /* \"contracts/vanthenaNft.sol\":4817:4858  _isApprovedOrOwner(_msgSender(), tokenId) */\n      tag_116\n        /* \"contracts/vanthenaNft.sol\":4836:4848  _msgSender() */\n      tag_117\n        /* \"contracts/vanthenaNft.sol\":4836:4846  _msgSender */\n      tag_106\n        /* \"contracts/vanthenaNft.sol\":4836:4848  _msgSender() */\n      jump\t// in\n    tag_117:\n        /* \"contracts/vanthenaNft.sol\":4850:4857  tokenId */\n      dup3\n        /* \"contracts/vanthenaNft.sol\":4817:4835  _isApprovedOrOwner */\n      tag_118\n        /* \"contracts/vanthenaNft.sol\":4817:4858  _isApprovedOrOwner(_msgSender(), tokenId) */\n      jump\t// in\n    tag_116:\n        /* \"contracts/vanthenaNft.sol\":4809:4908  require(_isApprovedOrOwner(_msgSender(), tokenId), \"ERC721: caller is not token owner or approved\") */\n      tag_119\n      jumpi\n      mload(0x40)\n      0x08c379a000000000000000000000000000000000000000000000000000000000\n      dup2\n      mstore\n      0x04\n      add\n      tag_120\n      swap1\n      tag_121\n      jump\t// in\n    tag_120:\n      mload(0x40)\n      dup1\n      swap2\n      sub\n      swap1\n      revert\n    tag_119:\n        /* \"contracts/vanthenaNft.sol\":4919:4947  _transfer(from, to, tokenId) */\n      tag_122\n        /* \"contracts/vanthenaNft.sol\":4929:4933  from */\n      dup4\n        /* \"contracts/vanthenaNft.sol\":4935:4937  to */\n      dup4\n        /* \"contracts/vanthenaNft.sol\":4939:4946  tokenId */\n      dup4\n        /* \"contracts/vanthenaNft.sol\":4919:4928  _transfer */\n      tag_123\n        /* \"contracts/vanthenaNft.sol\":4919:4947  _transfer(from, to, tokenId) */\n      jump\t// in\n    tag_122:\n        /* \"contracts/vanthenaNft.sol\":4628:4954  function transferFrom(... */\n      pop\n      pop\n      pop\n      jump\t// out\n        /* \"contracts/vanthenaNft.sol\":5020:5199  function safeTransferFrom(... */\n    tag_47:\n        /* \"contracts/vanthenaNft.sol\":5153:5192  safeTransferFrom(from, to, tokenId, \"\") */\n      tag_125\n        /* \"contracts/vanthenaNft.sol\":5170:5174  from */\n      dup4\n        /* \"contracts/vanthenaNft.sol\":5176:5178  to */\n      dup4\n        /* \"contracts/vanthenaNft.sol\":5180:5187  tokenId */\n      dup4\n        /* \"contracts/vanthenaNft.sol\":5153:5192  safeTransferFrom(from, to, tokenId, \"\") */\n      mload(0x40)\n      dup1\n      0x20\n      add\n      0x40\n      mstore\n      dup1\n      0x00\n      dup2\n      mstore\n      pop\n        /* \"contracts/vanthenaNft.sol\":5153:5169  safeTransferFrom */\n      tag_75\n        /* \"contracts/vanthenaNft.sol\":5153:5192  safeTransferFrom(from, to, tokenId, \"\") */\n      jump\t// in\n    tag_125:\n        /* \"contracts/vanthenaNft.sol\":5020:5199  function safeTransferFrom(... */\n      pop\n      pop\n      pop\n      jump\t// out\n        /* \"contracts/vanthenaNft.sol\":5796:6009  function burn(uint256 tokenId) public virtual {... */\n    tag_50:\n        /* \"contracts/vanthenaNft.sol\":5852:5865  address owner */\n      0x00\n        /* \"contracts/vanthenaNft.sol\":5868:5884  ownerOf(tokenId) */\n      tag_127\n        /* \"contracts/vanthenaNft.sol\":5876:5883  tokenId */\n      dup3\n        /* \"contracts/vanthenaNft.sol\":5868:5875  ownerOf */\n      tag_53\n        /* \"contracts/vanthenaNft.sol\":5868:5884  ownerOf(tokenId) */\n      jump\t// in\n    tag_127:\n        /* \"contracts/vanthenaNft.sol\":5852:5884  address owner = ownerOf(tokenId) */\n      swap1\n      pop\n        /* \"contracts/vanthenaNft.sol\":5915:5916  1 */\n      0x01\n        /* \"contracts/vanthenaNft.sol\":5895:5904  _balances */\n      0x04\n        /* \"contracts/vanthenaNft.sol\":5895:5911  _balances[owner] */\n      0x00\n        /* \"contracts/vanthenaNft.sol\":5905:5910  owner */\n      dup4\n        /* \"contracts/vanthenaNft.sol\":5895:5911  _balances[owner] */\n      0xffffffffffffffffffffffffffffffffffffffff\n      and\n      0xffffffffffffffffffffffffffffffffffffffff\n      and\n      dup2\n      mstore\n      0x20\n      add\n      swap1\n      dup2\n      mstore\n      0x20\n      add\n      0x00\n      keccak256\n      0x00\n        /* \"contracts/vanthenaNft.sol\":5895:5916  _balances[owner] -= 1 */\n      dup3\n      dup3\n      sload\n      tag_128\n      swap2\n      swap1\n      tag_129\n      jump\t// in\n    tag_128:\n      swap3\n      pop\n      pop\n      dup2\n      swap1\n      sstore\n      pop\n        /* \"contracts/vanthenaNft.sol\":5933:5940  _owners */\n      0x03\n        /* \"contracts/vanthenaNft.sol\":5933:5949  _owners[tokenId] */\n      0x00\n        /* \"contracts/vanthenaNft.sol\":5941:5948  tokenId */\n      dup4\n        /* \"contracts/vanthenaNft.sol\":5933:5949  _owners[tokenId] */\n      dup2\n      mstore\n      0x20\n      add\n      swap1\n      dup2\n      mstore\n      0x20\n      add\n      0x00\n      keccak256\n      0x00\n        /* \"contracts/vanthenaNft.sol\":5926:5949  delete _owners[tokenId] */\n      0x0100\n      exp\n      dup2\n      sload\n      swap1\n      0xffffffffffffffffffffffffffffffffffffffff\n      mul\n      not\n      and\n      swap1\n      sstore\n        /* \"contracts/vanthenaNft.sol\":5993:6000  tokenId */\n      dup2\n        /* \"contracts/vanthenaNft.sol\":5989:5990  0 */\n      0x00\n        /* \"contracts/vanthenaNft.sol\":5965:6001  Transfer(owner, address(0), tokenId) */\n      0xffffffffffffffffffffffffffffffffffffffff\n      and\n        /* \"contracts/vanthenaNft.sol\":5974:5979  owner */\n      dup3\n        /* \"contracts/vanthenaNft.sol\":5965:6001  Transfer(owner, address(0), tokenId) */\n      0xffffffffffffffffffffffffffffffffffffffff\n      and\n      0xddf252ad1be2c89b69c2b068fc378daa952ba7f163c4a11628f55a4df523b3ef\n      mload(0x40)\n      mload(0x40)\n      dup1\n      swap2\n      sub\n      swap1\n      log4\n        /* \"contracts/vanthenaNft.sol\":5842:6009  {... */\n      pop\n        /* \"contracts/vanthenaNft.sol\":5796:6009  function burn(uint256 tokenId) public virtual {... */\n      pop\n      jump\t// out\n        /* \"contracts/vanthenaNft.sol\":2201:2420  function ownerOf(uint256 tokenId) public view virtual override returns (address) {... */\n    tag_53:\n        /* \"contracts/vanthenaNft.sol\":2273:2280  address */\n      0x00\n        /* \"contracts/vanthenaNft.sol\":2292:2305  address owner */\n      dup1\n        /* \"contracts/vanthenaNft.sol\":2308:2325  _ownerOf(tokenId) */\n      tag_131\n        /* \"contracts/vanthenaNft.sol\":2317:2324  tokenId */\n      dup4\n        /* \"contracts/vanthenaNft.sol\":2308:2316  _ownerOf */\n      tag_132\n        /* \"contracts/vanthenaNft.sol\":2308:2325  _ownerOf(tokenId) */\n      jump\t// in\n    tag_131:\n        /* \"contracts/vanthenaNft.sol\":2292:2325  address owner = _ownerOf(tokenId) */\n      swap1\n      pop\n        /* \"contracts/vanthenaNft.sol\":2360:2361  0 */\n      0x00\n        /* \"contracts/vanthenaNft.sol\":2343:2362  owner != address(0) */\n      0xffffffffffffffffffffffffffffffffffffffff\n      and\n        /* \"contracts/vanthenaNft.sol\":2343:2348  owner */\n      dup2\n        /* \"contracts/vanthenaNft.sol\":2343:2362  owner != address(0) */\n      0xffffffffffffffffffffffffffffffffffffffff\n      and\n      eq\n      iszero\n        /* \"contracts/vanthenaNft.sol\":2335:2391  require(owner != address(0), \"ERC721: invalid token ID\") */\n      tag_133\n      jumpi\n      mload(0x40)\n      0x08c379a000000000000000000000000000000000000000000000000000000000\n      dup2\n      mstore\n      0x04\n      add\n      tag_134\n      swap1\n      tag_135\n      jump\t// in\n    tag_134:\n      mload(0x40)\n      dup1\n      swap2\n      sub\n      swap1\n      revert\n    tag_133:\n        /* \"contracts/vanthenaNft.sol\":2408:2413  owner */\n      dup1\n        /* \"contracts/vanthenaNft.sol\":2401:2413  return owner */\n      swap2\n      pop\n      pop\n        /* \"contracts/vanthenaNft.sol\":2201:2420  function ownerOf(uint256 tokenId) public view virtual override returns (address) {... */\n      swap2\n      swap1\n      pop\n      jump\t// out\n        /* \"contracts/vanthenaNft.sol\":5585:5790  function mint(address to) public virtual returns(uint256){... */\n    tag_58:\n        /* \"contracts/vanthenaNft.sol\":5634:5641  uint256 */\n      0x00\n        /* \"contracts/vanthenaNft.sol\":5652:5667  uint256 tokenId */\n      dup1\n        /* \"contracts/vanthenaNft.sol\":5670:5695  _tokenIdTracker.current() */\n      tag_137\n        /* \"contracts/vanthenaNft.sol\":5670:5685  _tokenIdTracker */\n      0x00\n        /* \"contracts/vanthenaNft.sol\":5670:5693  _tokenIdTracker.current */\n      tag_138\n        /* \"contracts/vanthenaNft.sol\":5670:5695  _tokenIdTracker.current() */\n      jump\t// in\n    tag_137:\n        /* \"contracts/vanthenaNft.sol\":5652:5695  uint256 tokenId = _tokenIdTracker.current() */\n      swap1\n      pop\n        /* \"contracts/vanthenaNft.sol\":5705:5722  _mint(to,tokenId) */\n      tag_139\n        /* \"contracts/vanthenaNft.sol\":5711:5713  to */\n      dup4\n        /* \"contracts/vanthenaNft.sol\":5714:5721  tokenId */\n      dup3\n        /* \"contracts/vanthenaNft.sol\":5705:5710  _mint */\n      tag_140\n        /* \"contracts/vanthenaNft.sol\":5705:5722  _mint(to,tokenId) */\n      jump\t// in\n    tag_139:\n        /* \"contracts/vanthenaNft.sol\":5732:5759  _tokenIdTracker.increment() */\n      tag_141\n        /* \"contracts/vanthenaNft.sol\":5732:5747  _tokenIdTracker */\n      0x00\n        /* \"contracts/vanthenaNft.sol\":5732:5757  _tokenIdTracker.increment */\n      tag_142\n        /* \"contracts/vanthenaNft.sol\":5732:5759  _tokenIdTracker.increment() */\n      jump\t// in\n    tag_141:\n        /* \"contracts/vanthenaNft.sol\":5776:5783  tokenId */\n      dup1\n        /* \"contracts/vanthenaNft.sol\":5769:5783  return tokenId */\n      swap2\n      pop\n      pop\n        /* \"contracts/vanthenaNft.sol\":5585:5790  function mint(address to) public virtual returns(uint256){... */\n      swap2\n      swap1\n      pop\n      jump\t// out\n        /* \"contracts/vanthenaNft.sol\":1940:2144  function balanceOf(address owner) public view virtual override returns (uint256) {... */\n    tag_63:\n        /* \"contracts/vanthenaNft.sol\":2012:2019  uint256 */\n      0x00\n        /* \"contracts/vanthenaNft.sol\":2056:2057  0 */\n      dup1\n        /* \"contracts/vanthenaNft.sol\":2039:2058  owner != address(0) */\n      0xffffffffffffffffffffffffffffffffffffffff\n      and\n        /* \"contracts/vanthenaNft.sol\":2039:2044  owner */\n      dup3\n        /* \"contracts/vanthenaNft.sol\":2039:2058  owner != address(0) */\n      0xffffffffffffffffffffffffffffffffffffffff\n      and\n      eq\n      iszero\n        /* \"contracts/vanthenaNft.sol\":2031:2104  require(owner != address(0), \"ERC721: address zero is not a valid owner\") */\n      tag_144\n      jumpi\n      mload(0x40)\n      0x08c379a000000000000000000000000000000000000000000000000000000000\n      dup2\n      mstore\n      0x04\n      add\n      tag_145\n      swap1\n      tag_146\n      jump\t// in\n    tag_145:\n      mload(0x40)\n      dup1\n      swap2\n      sub\n      swap1\n      revert\n    tag_144:\n        /* \"contracts/vanthenaNft.sol\":2121:2130  _balances */\n      0x04\n        /* \"contracts/vanthenaNft.sol\":2121:2137  _balances[owner] */\n      0x00\n        /* \"contracts/vanthenaNft.sol\":2131:2136  owner */\n      dup4\n        /* \"contracts/vanthenaNft.sol\":2121:2137  _balances[owner] */\n      0xffffffffffffffffffffffffffffffffffffffff\n      and\n      0xffffffffffffffffffffffffffffffffffffffff\n      and\n      dup2\n      mstore\n      0x20\n      add\n      swap1\n      dup2\n      mstore\n      0x20\n      add\n      0x00\n      keccak256\n      sload\n        /* \"contracts/vanthenaNft.sol\":2114:2137  return _balances[owner] */\n      swap1\n      pop\n        /* \"contracts/vanthenaNft.sol\":1940:2144  function balanceOf(address owner) public view virtual override returns (uint256) {... */\n      swap2\n      swap1\n      pop\n      jump\t// out\n        /* \"contracts/vanthenaNft.sol\":2644:2746  function symbol() public view virtual override returns (string memory) {... */\n    tag_66:\n        /* \"contracts/vanthenaNft.sol\":2700:2713  string memory */\n      0x60\n        /* \"contracts/vanthenaNft.sol\":2732:2739  _symbol */\n      0x02\n        /* \"contracts/vanthenaNft.sol\":2725:2739  return _symbol */\n      dup1\n      sload\n      tag_148\n      swap1\n      tag_92\n      jump\t// in\n    tag_148:\n      dup1\n      0x1f\n      add\n      0x20\n      dup1\n      swap2\n      div\n      mul\n      0x20\n      add\n      mload(0x40)\n      swap1\n      dup2\n      add\n      0x40\n      mstore\n      dup1\n      swap3\n      swap2\n      swap1\n      dup2\n      dup2\n      mstore\n      0x20\n      add\n      dup3\n      dup1\n      sload\n      tag_149\n      swap1\n      tag_92\n      jump\t// in\n    tag_149:\n      dup1\n      iszero\n      tag_150\n      jumpi\n      dup1\n      0x1f\n      lt\n      tag_151\n      jumpi\n      0x0100\n      dup1\n      dup4\n      sload\n      div\n      mul\n      dup4\n      mstore\n      swap2\n      0x20\n      add\n      swap2\n      jump(tag_150)\n    tag_151:\n      dup3\n      add\n      swap2\n      swap1\n      0x00\n      mstore\n      keccak256(0x00, 0x20)\n      swap1\n    tag_152:\n      dup2\n      sload\n      dup2\n      mstore\n      swap1\n      0x01\n      add\n      swap1\n      0x20\n      add\n      dup1\n      dup4\n      gt\n      tag_152\n      jumpi\n      dup3\n      swap1\n      sub\n      0x1f\n      and\n      dup3\n      add\n      swap2\n    tag_150:\n      pop\n      pop\n      pop\n      pop\n      pop\n      swap1\n      pop\n        /* \"contracts/vanthenaNft.sol\":2644:2746  function symbol() public view virtual override returns (string memory) {... */\n      swap1\n      jump\t// out\n        /* \"contracts/vanthenaNft.sol\":4185:4338  function setApprovalForAll(address operator, bool approved) public virtual override {... */\n    tag_71:\n        /* \"contracts/vanthenaNft.sol\":4279:4331  _setApprovalForAll(_msgSender(), operator, approved) */\n      tag_154\n        /* \"contracts/vanthenaNft.sol\":4298:4310  _msgSender() */\n      tag_155\n        /* \"contracts/vanthenaNft.sol\":4298:4308  _msgSender */\n      tag_106\n        /* \"contracts/vanthenaNft.sol\":4298:4310  _msgSender() */\n      jump\t// in\n    tag_155:\n        /* \"contracts/vanthenaNft.sol\":4312:4320  operator */\n      dup4\n        /* \"contracts/vanthenaNft.sol\":4322:4330  approved */\n      dup4\n        /* \"contracts/vanthenaNft.sol\":4279:4297  _setApprovalForAll */\n      tag_156\n        /* \"contracts/vanthenaNft.sol\":4279:4331  _setApprovalForAll(_msgSender(), operator, approved) */\n      jump\t// in\n    tag_154:\n        /* \"contracts/vanthenaNft.sol\":4185:4338  function setApprovalForAll(address operator, bool approved) public virtual override {... */\n      pop\n      pop\n      jump\t// out\n        /* \"contracts/vanthenaNft.sol\":5265:5579  function safeTransferFrom(... */\n    tag_75:\n        /* \"contracts/vanthenaNft.sol\":5433:5474  _isApprovedOrOwner(_msgSender(), tokenId) */\n      tag_158\n        /* \"contracts/vanthenaNft.sol\":5452:5464  _msgSender() */\n      tag_159\n        /* \"contracts/vanthenaNft.sol\":5452:5462  _msgSender */\n      tag_106\n        /* \"contracts/vanthenaNft.sol\":5452:5464  _msgSender() */\n      jump\t// in\n    tag_159:\n        /* \"contracts/vanthenaNft.sol\":5466:5473  tokenId */\n      dup4\n        /* \"contracts/vanthenaNft.sol\":5433:5451  _isApprovedOrOwner */\n      tag_118\n        /* \"contracts/vanthenaNft.sol\":5433:5474  _isApprovedOrOwner(_msgSender(), tokenId) */\n      jump\t// in\n    tag_158:\n        /* \"contracts/vanthenaNft.sol\":5425:5524  require(_isApprovedOrOwner(_msgSender(), tokenId), \"ERC721: caller is not token owner or approved\") */\n      tag_160\n      jumpi\n      mload(0x40)\n      0x08c379a000000000000000000000000000000000000000000000000000000000\n      dup2\n      mstore\n      0x04\n      add\n      tag_161\n      swap1\n      tag_121\n      jump\t// in\n    tag_161:\n      mload(0x40)\n      dup1\n      swap2\n      sub\n      swap1\n      revert\n    tag_160:\n        /* \"contracts/vanthenaNft.sol\":5534:5572  _safeTransfer(from, to, tokenId, data) */\n      tag_162\n        /* \"contracts/vanthenaNft.sol\":5548:5552  from */\n      dup5\n        /* \"contracts/vanthenaNft.sol\":5554:5556  to */\n      dup5\n        /* \"contracts/vanthenaNft.sol\":5558:5565  tokenId */\n      dup5\n        /* \"contracts/vanthenaNft.sol\":5567:5571  data */\n      dup5\n        /* \"contracts/vanthenaNft.sol\":5534:5547  _safeTransfer */\n      tag_163\n        /* \"contracts/vanthenaNft.sol\":5534:5572  _safeTransfer(from, to, tokenId, data) */\n      jump\t// in\n    tag_162:\n        /* \"contracts/vanthenaNft.sol\":5265:5579  function safeTransferFrom(... */\n      pop\n      pop\n      pop\n      pop\n      jump\t// out\n        /* \"contracts/vanthenaNft.sol\":2812:3088  function tokenURI(uint256 tokenId) public view virtual override returns (string memory) {... */\n    tag_78:\n        /* \"contracts/vanthenaNft.sol\":2885:2898  string memory */\n      0x60\n        /* \"contracts/vanthenaNft.sol\":2910:2933  _requireMinted(tokenId) */\n      tag_165\n        /* \"contracts/vanthenaNft.sol\":2925:2932  tokenId */\n      dup3\n        /* \"contracts/vanthenaNft.sol\":2910:2924  _requireMinted */\n      tag_99\n        /* \"contracts/vanthenaNft.sol\":2910:2933  _requireMinted(tokenId) */\n      jump\t// in\n    tag_165:\n        /* \"contracts/vanthenaNft.sol\":2944:2965  string memory baseURI */\n      0x00\n        /* \"contracts/vanthenaNft.sol\":2968:2978  _baseURI() */\n      tag_166\n        /* \"contracts/vanthenaNft.sol\":2968:2976  _baseURI */\n      tag_167\n        /* \"contracts/vanthenaNft.sol\":2968:2978  _baseURI() */\n      jump\t// in\n    tag_166:\n        /* \"contracts/vanthenaNft.sol\":2944:2978  string memory baseURI = _baseURI() */\n      swap1\n      pop\n        /* \"contracts/vanthenaNft.sol\":3019:3020  0 */\n      0x00\n        /* \"contracts/vanthenaNft.sol\":3001:3008  baseURI */\n      dup2\n        /* \"contracts/vanthenaNft.sol\":2995:3016  bytes(baseURI).length */\n      mload\n        /* \"contracts/vanthenaNft.sol\":2995:3020  bytes(baseURI).length > 0 */\n      gt\n        /* \"contracts/vanthenaNft.sol\":2995:3081  bytes(baseURI).length > 0 ? string(abi.encodePacked(baseURI, tokenId.toString())) : \"\" */\n      tag_168\n      jumpi\n      mload(0x40)\n      dup1\n      0x20\n      add\n      0x40\n      mstore\n      dup1\n      0x00\n      dup2\n      mstore\n      pop\n      jump(tag_169)\n    tag_168:\n        /* \"contracts/vanthenaNft.sol\":3047:3054  baseURI */\n      dup1\n        /* \"contracts/vanthenaNft.sol\":3056:3074  tokenId.toString() */\n      tag_170\n        /* \"contracts/vanthenaNft.sol\":3056:3063  tokenId */\n      dup5\n        /* \"contracts/vanthenaNft.sol\":3056:3072  tokenId.toString */\n      tag_171\n        /* \"contracts/vanthenaNft.sol\":3056:3074  tokenId.toString() */\n      jump\t// in\n    tag_170:\n        /* \"contracts/vanthenaNft.sol\":3030:3075  abi.encodePacked(baseURI, tokenId.toString()) */\n      add(0x20, mload(0x40))\n      tag_172\n      swap3\n      swap2\n      swap1\n      tag_173\n      jump\t// in\n    tag_172:\n      mload(0x40)\n      0x20\n      dup2\n      dup4\n      sub\n      sub\n      dup2\n      mstore\n      swap1\n      0x40\n      mstore\n        /* \"contracts/vanthenaNft.sol\":2995:3081  bytes(baseURI).length > 0 ? string(abi.encodePacked(baseURI, tokenId.toString())) : \"\" */\n    tag_169:\n        /* \"contracts/vanthenaNft.sol\":2988:3081  return bytes(baseURI).length > 0 ? string(abi.encodePacked(baseURI, tokenId.toString())) : \"\" */\n      swap2\n      pop\n      pop\n        /* \"contracts/vanthenaNft.sol\":2812:3088  function tokenURI(uint256 tokenId) public view virtual override returns (string memory) {... */\n      swap2\n      swap1\n      pop\n      jump\t// out\n        /* \"contracts/vanthenaNft.sol\":4404:4566  function isApprovedForAll(address owner, address operator) public view virtual override returns (bool) {... */\n    tag_83:\n        /* \"contracts/vanthenaNft.sol\":4501:4505  bool */\n      0x00\n        /* \"contracts/vanthenaNft.sol\":4524:4542  _operatorApprovals */\n      0x06\n        /* \"contracts/vanthenaNft.sol\":4524:4549  _operatorApprovals[owner] */\n      0x00\n        /* \"contracts/vanthenaNft.sol\":4543:4548  owner */\n      dup5\n        /* \"contracts/vanthenaNft.sol\":4524:4549  _operatorApprovals[owner] */\n      0xffffffffffffffffffffffffffffffffffffffff\n      and\n      0xffffffffffffffffffffffffffffffffffffffff\n      and\n      dup2\n      mstore\n      0x20\n      add\n      swap1\n      dup2\n      mstore\n      0x20\n      add\n      0x00\n      keccak256\n        /* \"contracts/vanthenaNft.sol\":4524:4559  _operatorApprovals[owner][operator] */\n      0x00\n        /* \"contracts/vanthenaNft.sol\":4550:4558  operator */\n      dup4\n        /* \"contracts/vanthenaNft.sol\":4524:4559  _operatorApprovals[owner][operator] */\n      0xffffffffffffffffffffffffffffffffffffffff\n      and\n      0xffffffffffffffffffffffffffffffffffffffff\n      and\n      dup2\n      mstore\n      0x20\n      add\n      swap1\n      dup2\n      mstore\n      0x20\n      add\n      0x00\n      keccak256\n      0x00\n      swap1\n      sload\n      swap1\n      0x0100\n      exp\n      swap1\n      div\n      0xff\n      and\n        /* \"contracts/vanthenaNft.sol\":4517:4559  return _operatorApprovals[owner][operator] */\n      swap1\n      pop\n        /* \"contracts/vanthenaNft.sol\":4404:4566  function isApprovedForAll(address owner, address operator) public view virtual override returns (bool) {... */\n      swap3\n      swap2\n      pop\n      pop\n      jump\t// out\n        /* \"@openzeppelin/contracts/utils/introspection/ERC165.sol\":829:984  function supportsInterface(bytes4 interfaceId) public view virtual override returns (bool) {... */\n    tag_89:\n        /* \"@openzeppelin/contracts/utils/introspection/ERC165.sol\":914:918  bool */\n      0x00\n        /* \"@openzeppelin/contracts/utils/introspection/ERC165.sol\":952:977  type(IERC165).interfaceId */\n      0x01ffc9a700000000000000000000000000000000000000000000000000000000\n        /* \"@openzeppelin/contracts/utils/introspection/ERC165.sol\":937:977  interfaceId == type(IERC165).interfaceId */\n      not(0xffffffffffffffffffffffffffffffffffffffffffffffffffffffff)\n      and\n        /* \"@openzeppelin/contracts/utils/introspection/ERC165.sol\":937:948  interfaceId */\n      dup3\n        /* \"@openzeppelin/contracts/utils/introspection/ERC165.sol\":937:977  interfaceId == type(IERC165).interfaceId */\n      not(0xffffffffffffffffffffffffffffffffffffffffffffffffffffffff)\n      and\n      eq\n        /* \"@openzeppelin/contracts/utils/introspection/ERC165.sol\":930:977  return interfaceId == type(IERC165).interfaceId */\n      swap1\n      pop\n        /* \"@openzeppelin/contracts/utils/introspection/ERC165.sol\":829:984  function supportsInterface(bytes4 interfaceId) public view virtual override returns (bool) {... */\n      swap2\n      swap1\n      pop\n      jump\t// out\n        /* \"contracts/vanthenaNft.sol\":13942:14075  function _requireMinted(uint256 tokenId) internal view virtual {... */\n    tag_99:\n        /* \"contracts/vanthenaNft.sol\":14023:14039  _exists(tokenId) */\n      tag_177\n        /* \"contracts/vanthenaNft.sol\":14031:14038  tokenId */\n      dup2\n        /* \"contracts/vanthenaNft.sol\":14023:14030  _exists */\n      tag_178\n        /* \"contracts/vanthenaNft.sol\":14023:14039  _exists(tokenId) */\n      jump\t// in\n    tag_177:\n        /* \"contracts/vanthenaNft.sol\":14015:14068  require(_exists(tokenId), \"ERC721: invalid token ID\") */\n      tag_179\n      jumpi\n      mload(0x40)\n      0x08c379a000000000000000000000000000000000000000000000000000000000\n      dup2\n      mstore\n      0x04\n      add\n      tag_180\n      swap1\n      tag_135\n      jump\t// in\n    tag_180:\n      mload(0x40)\n      dup1\n      swap2\n      sub\n      swap1\n      revert\n    tag_179:\n        /* \"contracts/vanthenaNft.sol\":13942:14075  function _requireMinted(uint256 tokenId) internal view virtual {... */\n      pop\n      jump\t// out\n        /* \"@openzeppelin/contracts/utils/Context.sol\":640:736  function _msgSender() internal view virtual returns (address) {... */\n    tag_106:\n        /* \"@openzeppelin/contracts/utils/Context.sol\":693:700  address */\n      0x00\n        /* \"@openzeppelin/contracts/utils/Context.sol\":719:729  msg.sender */\n      caller\n        /* \"@openzeppelin/contracts/utils/Context.sol\":712:729  return msg.sender */\n      swap1\n      pop\n        /* \"@openzeppelin/contracts/utils/Context.sol\":640:736  function _msgSender() internal view virtual returns (address) {... */\n      swap1\n      jump\t// out\n        /* \"contracts/vanthenaNft.sol\":13239:13415  function _approve(address to, uint256 tokenId) internal virtual {... */\n    tag_114:\n        /* \"contracts/vanthenaNft.sol\":13340:13342  to */\n      dup2\n        /* \"contracts/vanthenaNft.sol\":13313:13328  _tokenApprovals */\n      0x05\n        /* \"contracts/vanthenaNft.sol\":13313:13337  _tokenApprovals[tokenId] */\n      0x00\n        /* \"contracts/vanthenaNft.sol\":13329:13336  tokenId */\n      dup4\n        /* \"contracts/vanthenaNft.sol\":13313:13337  _tokenApprovals[tokenId] */\n      dup2\n      mstore\n      0x20\n      add\n      swap1\n      dup2\n      mstore\n      0x20\n      add\n      0x00\n      keccak256\n      0x00\n        /* \"contracts/vanthenaNft.sol\":13313:13342  _tokenApprovals[tokenId] = to */\n      0x0100\n      exp\n      dup2\n      sload\n      dup2\n      0xffffffffffffffffffffffffffffffffffffffff\n      mul\n      not\n      and\n      swap1\n      dup4\n      0xffffffffffffffffffffffffffffffffffffffff\n      and\n      mul\n      or\n      swap1\n      sstore\n      pop\n        /* \"contracts/vanthenaNft.sol\":13400:13407  tokenId */\n      dup1\n        /* \"contracts/vanthenaNft.sol\":13396:13398  to */\n      dup3\n        /* \"contracts/vanthenaNft.sol\":13357:13408  Approval(vanthenaNft.ownerOf(tokenId), to, tokenId) */\n      0xffffffffffffffffffffffffffffffffffffffff\n      and\n        /* \"contracts/vanthenaNft.sol\":13366:13394  vanthenaNft.ownerOf(tokenId) */\n      tag_183\n        /* \"contracts/vanthenaNft.sol\":13386:13393  tokenId */\n      dup4\n        /* \"contracts/vanthenaNft.sol\":13366:13385  vanthenaNft.ownerOf */\n      tag_53\n        /* \"contracts/vanthenaNft.sol\":13366:13394  vanthenaNft.ownerOf(tokenId) */\n      jump\t// in\n    tag_183:\n        /* \"contracts/vanthenaNft.sol\":13357:13408  Approval(vanthenaNft.ownerOf(tokenId), to, tokenId) */\n      0xffffffffffffffffffffffffffffffffffffffff\n      and\n      0x8c5be1e5ebec7d5bd14f71427d1e84f3dd0314c0f7b2291e5b200ac8c7c3b925\n      mload(0x40)\n      mload(0x40)\n      dup1\n      swap2\n      sub\n      swap1\n      log4\n        /* \"contracts/vanthenaNft.sol\":13239:13415  function _approve(address to, uint256 tokenId) internal virtual {... */\n      pop\n      pop\n      jump\t// out\n        /* \"contracts/vanthenaNft.sol\":7986:8252  function _isApprovedOrOwner(address spender, uint256 tokenId) internal view virtual returns (bool) {... */\n    tag_118:\n        /* \"contracts/vanthenaNft.sol\":8079:8083  bool */\n      0x00\n        /* \"contracts/vanthenaNft.sol\":8095:8108  address owner */\n      dup1\n        /* \"contracts/vanthenaNft.sol\":8111:8139  vanthenaNft.ownerOf(tokenId) */\n      tag_185\n        /* \"contracts/vanthenaNft.sol\":8131:8138  tokenId */\n      dup4\n        /* \"contracts/vanthenaNft.sol\":8111:8130  vanthenaNft.ownerOf */\n      tag_53\n        /* \"contracts/vanthenaNft.sol\":8111:8139  vanthenaNft.ownerOf(tokenId) */\n      jump\t// in\n    tag_185:\n        /* \"contracts/vanthenaNft.sol\":8095:8139  address owner = vanthenaNft.ownerOf(tokenId) */\n      swap1\n      pop\n        /* \"contracts/vanthenaNft.sol\":8168:8173  owner */\n      dup1\n        /* \"contracts/vanthenaNft.sol\":8157:8173  spender == owner */\n      0xffffffffffffffffffffffffffffffffffffffff\n      and\n        /* \"contracts/vanthenaNft.sol\":8157:8164  spender */\n      dup5\n        /* \"contracts/vanthenaNft.sol\":8157:8173  spender == owner */\n      0xffffffffffffffffffffffffffffffffffffffff\n      and\n      eq\n        /* \"contracts/vanthenaNft.sol\":8157:8209  spender == owner || isApprovedForAll(owner, spender) */\n      dup1\n      tag_186\n      jumpi\n      pop\n        /* \"contracts/vanthenaNft.sol\":8177:8209  isApprovedForAll(owner, spender) */\n      tag_187\n        /* \"contracts/vanthenaNft.sol\":8194:8199  owner */\n      dup2\n        /* \"contracts/vanthenaNft.sol\":8201:8208  spender */\n      dup6\n        /* \"contracts/vanthenaNft.sol\":8177:8193  isApprovedForAll */\n      tag_83\n        /* \"contracts/vanthenaNft.sol\":8177:8209  isApprovedForAll(owner, spender) */\n      jump\t// in\n    tag_187:\n        /* \"contracts/vanthenaNft.sol\":8157:8209  spender == owner || isApprovedForAll(owner, spender) */\n    tag_186:\n        /* \"contracts/vanthenaNft.sol\":8157:8244  spender == owner || isApprovedForAll(owner, spender) || getApproved(tokenId) == spender */\n      dup1\n      tag_188\n      jumpi\n      pop\n        /* \"contracts/vanthenaNft.sol\":8237:8244  spender */\n      dup4\n        /* \"contracts/vanthenaNft.sol\":8213:8244  getApproved(tokenId) == spender */\n      0xffffffffffffffffffffffffffffffffffffffff\n      and\n        /* \"contracts/vanthenaNft.sol\":8213:8233  getApproved(tokenId) */\n      tag_189\n        /* \"contracts/vanthenaNft.sol\":8225:8232  tokenId */\n      dup5\n        /* \"contracts/vanthenaNft.sol\":8213:8224  getApproved */\n      tag_34\n        /* \"contracts/vanthenaNft.sol\":8213:8233  getApproved(tokenId) */\n      jump\t// in\n    tag_189:\n        /* \"contracts/vanthenaNft.sol\":8213:8244  getApproved(tokenId) == spender */\n      0xffffffffffffffffffffffffffffffffffffffff\n      and\n      eq\n        /* \"contracts/vanthenaNft.sol\":8157:8244  spender == owner || isApprovedForAll(owner, spender) || getApproved(tokenId) == spender */\n    tag_188:\n        /* \"contracts/vanthenaNft.sol\":8149:8245  return (spender == owner || isApprovedForAll(owner, spender) || getApproved(tokenId) == spender) */\n      swap2\n      pop\n      pop\n        /* \"contracts/vanthenaNft.sol\":7986:8252  function _isApprovedOrOwner(address spender, uint256 tokenId) internal view virtual returns (bool) {... */\n      swap3\n      swap2\n      pop\n      pop\n      jump\t// out\n        /* \"contracts/vanthenaNft.sol\":11884:13127  function _transfer(... */\n    tag_123:\n        /* \"contracts/vanthenaNft.sol\":12043:12047  from */\n      dup3\n        /* \"contracts/vanthenaNft.sol\":12011:12047  vanthenaNft.ownerOf(tokenId) == from */\n      0xffffffffffffffffffffffffffffffffffffffff\n      and\n        /* \"contracts/vanthenaNft.sol\":12011:12039  vanthenaNft.ownerOf(tokenId) */\n      tag_191\n        /* \"contracts/vanthenaNft.sol\":12031:12038  tokenId */\n      dup3\n        /* \"contracts/vanthenaNft.sol\":12011:12030  vanthenaNft.ownerOf */\n      tag_53\n        /* \"contracts/vanthenaNft.sol\":12011:12039  vanthenaNft.ownerOf(tokenId) */\n      jump\t// in\n    tag_191:\n        /* \"contracts/vanthenaNft.sol\":12011:12047  vanthenaNft.ownerOf(tokenId) == from */\n      0xffffffffffffffffffffffffffffffffffffffff\n      and\n      eq\n        /* \"contracts/vanthenaNft.sol\":12003:12089  require(vanthenaNft.ownerOf(tokenId) == from, \"ERC721: transfer from incorrect owner\") */\n      tag_192\n      jumpi\n      mload(0x40)\n      0x08c379a000000000000000000000000000000000000000000000000000000000\n      dup2\n      mstore\n      0x04\n      add\n      tag_193\n      swap1\n      tag_194\n      jump\t// in\n    tag_193:\n      mload(0x40)\n      dup1\n      swap2\n      sub\n      swap1\n      revert\n    tag_192:\n        /* \"contracts/vanthenaNft.sol\":12121:12122  0 */\n      0x00\n        /* \"contracts/vanthenaNft.sol\":12107:12123  to != address(0) */\n      0xffffffffffffffffffffffffffffffffffffffff\n      and\n        /* \"contracts/vanthenaNft.sol\":12107:12109  to */\n      dup3\n        /* \"contracts/vanthenaNft.sol\":12107:12123  to != address(0) */\n      0xffffffffffffffffffffffffffffffffffffffff\n      and\n      eq\n      iszero\n        /* \"contracts/vanthenaNft.sol\":12099:12164  require(to != address(0), \"ERC721: transfer to the zero address\") */\n      tag_195\n      jumpi\n      mload(0x40)\n      0x08c379a000000000000000000000000000000000000000000000000000000000\n      dup2\n      mstore\n      0x04\n      add\n      tag_196\n      swap1\n      tag_197\n      jump\t// in\n    tag_196:\n      mload(0x40)\n      dup1\n      swap2\n      sub\n      swap1\n      revert\n    tag_195:\n        /* \"contracts/vanthenaNft.sol\":12175:12217  _beforeTokenTransfer(from, to, tokenId, 1) */\n      tag_198\n        /* \"contracts/vanthenaNft.sol\":12196:12200  from */\n      dup4\n        /* \"contracts/vanthenaNft.sol\":12202:12204  to */\n      dup4\n        /* \"contracts/vanthenaNft.sol\":12206:12213  tokenId */\n      dup4\n        /* \"contracts/vanthenaNft.sol\":12215:12216  1 */\n      0x01\n        /* \"contracts/vanthenaNft.sol\":12175:12195  _beforeTokenTransfer */\n      tag_199\n        /* \"contracts/vanthenaNft.sol\":12175:12217  _beforeTokenTransfer(from, to, tokenId, 1) */\n      jump\t// in\n    tag_198:\n        /* \"contracts/vanthenaNft.sol\":12349:12353  from */\n      dup3\n        /* \"contracts/vanthenaNft.sol\":12317:12353  vanthenaNft.ownerOf(tokenId) == from */\n      0xffffffffffffffffffffffffffffffffffffffff\n      and\n        /* \"contracts/vanthenaNft.sol\":12317:12345  vanthenaNft.ownerOf(tokenId) */\n      tag_200\n        /* \"contracts/vanthenaNft.sol\":12337:12344  tokenId */\n      dup3\n        /* \"contracts/vanthenaNft.sol\":12317:12336  vanthenaNft.ownerOf */\n      tag_53\n        /* \"contracts/vanthenaNft.sol\":12317:12345  vanthenaNft.ownerOf(tokenId) */\n      jump\t// in\n    tag_200:\n        /* \"contracts/vanthenaNft.sol\":12317:12353  vanthenaNft.ownerOf(tokenId) == from */\n      0xffffffffffffffffffffffffffffffffffffffff\n      and\n      eq\n        /* \"contracts/vanthenaNft.sol\":12309:12395  require(vanthenaNft.ownerOf(tokenId) == from, \"ERC721: transfer from incorrect owner\") */\n      tag_201\n      jumpi\n      mload(0x40)\n      0x08c379a000000000000000000000000000000000000000000000000000000000\n      dup2\n      mstore\n      0x04\n      add\n      tag_202\n      swap1\n      tag_194\n      jump\t// in\n    tag_202:\n      mload(0x40)\n      dup1\n      swap2\n      sub\n      swap1\n      revert\n    tag_201:\n        /* \"contracts/vanthenaNft.sol\":12464:12479  _tokenApprovals */\n      0x05\n        /* \"contracts/vanthenaNft.sol\":12464:12488  _tokenApprovals[tokenId] */\n      0x00\n        /* \"contracts/vanthenaNft.sol\":12480:12487  tokenId */\n      dup3\n        /* \"contracts/vanthenaNft.sol\":12464:12488  _tokenApprovals[tokenId] */\n      dup2\n      mstore\n      0x20\n      add\n      swap1\n      dup2\n      mstore\n      0x20\n      add\n      0x00\n      keccak256\n      0x00\n        /* \"contracts/vanthenaNft.sol\":12457:12488  delete _tokenApprovals[tokenId] */\n      0x0100\n      exp\n      dup2\n      sload\n      swap1\n      0xffffffffffffffffffffffffffffffffffffffff\n      mul\n      not\n      and\n      swap1\n      sstore\n        /* \"contracts/vanthenaNft.sol\":12951:12952  1 */\n      0x01\n        /* \"contracts/vanthenaNft.sol\":12932:12941  _balances */\n      0x04\n        /* \"contracts/vanthenaNft.sol\":12932:12947  _balances[from] */\n      0x00\n        /* \"contracts/vanthenaNft.sol\":12942:12946  from */\n      dup6\n        /* \"contracts/vanthenaNft.sol\":12932:12947  _balances[from] */\n      0xffffffffffffffffffffffffffffffffffffffff\n      and\n      0xffffffffffffffffffffffffffffffffffffffff\n      and\n      dup2\n      mstore\n      0x20\n      add\n      swap1\n      dup2\n      mstore\n      0x20\n      add\n      0x00\n      keccak256\n      0x00\n        /* \"contracts/vanthenaNft.sol\":12932:12952  _balances[from] -= 1 */\n      dup3\n      dup3\n      sload\n      sub\n      swap3\n      pop\n      pop\n      dup2\n      swap1\n      sstore\n      pop\n        /* \"contracts/vanthenaNft.sol\":12983:12984  1 */\n      0x01\n        /* \"contracts/vanthenaNft.sol\":12966:12975  _balances */\n      0x04\n        /* \"contracts/vanthenaNft.sol\":12966:12979  _balances[to] */\n      0x00\n        /* \"contracts/vanthenaNft.sol\":12976:12978  to */\n      dup5\n        /* \"contracts/vanthenaNft.sol\":12966:12979  _balances[to] */\n      0xffffffffffffffffffffffffffffffffffffffff\n      and\n      0xffffffffffffffffffffffffffffffffffffffff\n      and\n      dup2\n      mstore\n      0x20\n      add\n      swap1\n      dup2\n      mstore\n      0x20\n      add\n      0x00\n      keccak256\n      0x00\n        /* \"contracts/vanthenaNft.sol\":12966:12984  _balances[to] += 1 */\n      dup3\n      dup3\n      sload\n      add\n      swap3\n      pop\n      pop\n      dup2\n      swap1\n      sstore\n      pop\n        /* \"contracts/vanthenaNft.sol\":13023:13025  to */\n      dup2\n        /* \"contracts/vanthenaNft.sol\":13004:13011  _owners */\n      0x03\n        /* \"contracts/vanthenaNft.sol\":13004:13020  _owners[tokenId] */\n      0x00\n        /* \"contracts/vanthenaNft.sol\":13012:13019  tokenId */\n      dup4\n        /* \"contracts/vanthenaNft.sol\":13004:13020  _owners[tokenId] */\n      dup2\n      mstore\n      0x20\n      add\n      swap1\n      dup2\n      mstore\n      0x20\n      add\n      0x00\n      keccak256\n      0x00\n        /* \"contracts/vanthenaNft.sol\":13004:13025  _owners[tokenId] = to */\n      0x0100\n      exp\n      dup2\n      sload\n      dup2\n      0xffffffffffffffffffffffffffffffffffffffff\n      mul\n      not\n      and\n      swap1\n      dup4\n      0xffffffffffffffffffffffffffffffffffffffff\n      and\n      mul\n      or\n      swap1\n      sstore\n      pop\n        /* \"contracts/vanthenaNft.sol\":13060:13067  tokenId */\n      dup1\n        /* \"contracts/vanthenaNft.sol\":13056:13058  to */\n      dup3\n        /* \"contracts/vanthenaNft.sol\":13041:13068  Transfer(from, to, tokenId) */\n      0xffffffffffffffffffffffffffffffffffffffff\n      and\n        /* \"contracts/vanthenaNft.sol\":13050:13054  from */\n      dup5\n        /* \"contracts/vanthenaNft.sol\":13041:13068  Transfer(from, to, tokenId) */\n      0xffffffffffffffffffffffffffffffffffffffff\n      and\n      0xddf252ad1be2c89b69c2b068fc378daa952ba7f163c4a11628f55a4df523b3ef\n      mload(0x40)\n      mload(0x40)\n      dup1\n      swap2\n      sub\n      swap1\n      log4\n        /* \"contracts/vanthenaNft.sol\":13079:13120  _afterTokenTransfer(from, to, tokenId, 1) */\n      tag_203\n        /* \"contracts/vanthenaNft.sol\":13099:13103  from */\n      dup4\n        /* \"contracts/vanthenaNft.sol\":13105:13107  to */\n      dup4\n        /* \"contracts/vanthenaNft.sol\":13109:13116  tokenId */\n      dup4\n        /* \"contracts/vanthenaNft.sol\":13118:13119  1 */\n      0x01\n        /* \"contracts/vanthenaNft.sol\":13079:13098  _afterTokenTransfer */\n      tag_204\n        /* \"contracts/vanthenaNft.sol\":13079:13120  _afterTokenTransfer(from, to, tokenId, 1) */\n      jump\t// in\n    tag_203:\n        /* \"contracts/vanthenaNft.sol\":11884:13127  function _transfer(... */\n      pop\n      pop\n      pop\n      jump\t// out\n        /* \"contracts/vanthenaNft.sol\":7284:7399  function _ownerOf(uint256 tokenId) internal view virtual returns (address) {... */\n    tag_132:\n        /* \"contracts/vanthenaNft.sol\":7350:7357  address */\n      0x00\n        /* \"contracts/vanthenaNft.sol\":7376:7383  _owners */\n      0x03\n        /* \"contracts/vanthenaNft.sol\":7376:7392  _owners[tokenId] */\n      0x00\n        /* \"contracts/vanthenaNft.sol\":7384:7391  tokenId */\n      dup4\n        /* \"contracts/vanthenaNft.sol\":7376:7392  _owners[tokenId] */\n      dup2\n      mstore\n      0x20\n      add\n      swap1\n      dup2\n      mstore\n      0x20\n      add\n      0x00\n      keccak256\n      0x00\n      swap1\n      sload\n      swap1\n      0x0100\n      exp\n      swap1\n      div\n      0xffffffffffffffffffffffffffffffffffffffff\n      and\n        /* \"contracts/vanthenaNft.sol\":7369:7392  return _owners[tokenId] */\n      swap1\n      pop\n        /* \"contracts/vanthenaNft.sol\":7284:7399  function _ownerOf(uint256 tokenId) internal view virtual returns (address) {... */\n      swap2\n      swap1\n      pop\n      jump\t// out\n        /* \"@openzeppelin/contracts/utils/Counters.sol\":827:939  function current(Counter storage counter) internal view returns (uint256) {... */\n    tag_138:\n        /* \"@openzeppelin/contracts/utils/Counters.sol\":892:899  uint256 */\n      0x00\n        /* \"@openzeppelin/contracts/utils/Counters.sol\":918:925  counter */\n      dup2\n        /* \"@openzeppelin/contracts/utils/Counters.sol\":918:932  counter._value */\n      0x00\n      add\n      sload\n        /* \"@openzeppelin/contracts/utils/Counters.sol\":911:932  return counter._value */\n      swap1\n      pop\n        /* \"@openzeppelin/contracts/utils/Counters.sol\":827:939  function current(Counter storage counter) internal view returns (uint256) {... */\n      swap2\n      swap1\n      pop\n      jump\t// out\n        /* \"contracts/vanthenaNft.sol\":9542:10462  function _mint(address to, uint256 tokenId) internal virtual {... */\n    tag_140:\n        /* \"contracts/vanthenaNft.sol\":9635:9636  0 */\n      0x00\n        /* \"contracts/vanthenaNft.sol\":9621:9637  to != address(0) */\n      0xffffffffffffffffffffffffffffffffffffffff\n      and\n        /* \"contracts/vanthenaNft.sol\":9621:9623  to */\n      dup3\n        /* \"contracts/vanthenaNft.sol\":9621:9637  to != address(0) */\n      0xffffffffffffffffffffffffffffffffffffffff\n      and\n      eq\n      iszero\n        /* \"contracts/vanthenaNft.sol\":9613:9674  require(to != address(0), \"ERC721: mint to the zero address\") */\n      tag_208\n      jumpi\n      mload(0x40)\n      0x08c379a000000000000000000000000000000000000000000000000000000000\n      dup2\n      mstore\n      0x04\n      add\n      tag_209\n      swap1\n      tag_210\n      jump\t// in\n    tag_209:\n      mload(0x40)\n      dup1\n      swap2\n      sub\n      swap1\n      revert\n    tag_208:\n        /* \"contracts/vanthenaNft.sol\":9693:9709  _exists(tokenId) */\n      tag_211\n        /* \"contracts/vanthenaNft.sol\":9701:9708  tokenId */\n      dup2\n        /* \"contracts/vanthenaNft.sol\":9693:9700  _exists */\n      tag_178\n        /* \"contracts/vanthenaNft.sol\":9693:9709  _exists(tokenId) */\n      jump\t// in\n    tag_211:\n        /* \"contracts/vanthenaNft.sol\":9692:9709  !_exists(tokenId) */\n      iszero\n        /* \"contracts/vanthenaNft.sol\":9684:9742  require(!_exists(tokenId), \"ERC721: token already minted\") */\n      tag_212\n      jumpi\n      mload(0x40)\n      0x08c379a000000000000000000000000000000000000000000000000000000000\n      dup2\n      mstore\n      0x04\n      add\n      tag_213\n      swap1\n      tag_214\n      jump\t// in\n    tag_213:\n      mload(0x40)\n      dup1\n      swap2\n      sub\n      swap1\n      revert\n    tag_212:\n        /* \"contracts/vanthenaNft.sol\":9753:9801  _beforeTokenTransfer(address(0), to, tokenId, 1) */\n      tag_215\n        /* \"contracts/vanthenaNft.sol\":9782:9783  0 */\n      0x00\n        /* \"contracts/vanthenaNft.sol\":9786:9788  to */\n      dup4\n        /* \"contracts/vanthenaNft.sol\":9790:9797  tokenId */\n      dup4\n        /* \"contracts/vanthenaNft.sol\":9799:9800  1 */\n      0x01\n        /* \"contracts/vanthenaNft.sol\":9753:9773  _beforeTokenTransfer */\n      tag_199\n        /* \"contracts/vanthenaNft.sol\":9753:9801  _beforeTokenTransfer(address(0), to, tokenId, 1) */\n      jump\t// in\n    tag_215:\n        /* \"contracts/vanthenaNft.sol\":9897:9913  _exists(tokenId) */\n      tag_216\n        /* \"contracts/vanthenaNft.sol\":9905:9912  tokenId */\n      dup2\n        /* \"contracts/vanthenaNft.sol\":9897:9904  _exists */\n      tag_178\n        /* \"contracts/vanthenaNft.sol\":9897:9913  _exists(tokenId) */\n      jump\t// in\n    tag_216:\n        /* \"contracts/vanthenaNft.sol\":9896:9913  !_exists(tokenId) */\n      iszero\n        /* \"contracts/vanthenaNft.sol\":9888:9946  require(!_exists(tokenId), \"ERC721: token already minted\") */\n      tag_217\n      jumpi\n      mload(0x40)\n      0x08c379a000000000000000000000000000000000000000000000000000000000\n      dup2\n      mstore\n      0x04\n      add\n      tag_218\n      swap1\n      tag_214\n      jump\t// in\n    tag_218:\n      mload(0x40)\n      dup1\n      swap2\n      sub\n      swap1\n      revert\n    tag_217:\n        /* \"contracts/vanthenaNft.sol\":10305:10306  1 */\n      0x01\n        /* \"contracts/vanthenaNft.sol\":10288:10297  _balances */\n      0x04\n        /* \"contracts/vanthenaNft.sol\":10288:10301  _balances[to] */\n      0x00\n        /* \"contracts/vanthenaNft.sol\":10298:10300  to */\n      dup5\n        /* \"contracts/vanthenaNft.sol\":10288:10301  _balances[to] */\n      0xffffffffffffffffffffffffffffffffffffffff\n      and\n      0xffffffffffffffffffffffffffffffffffffffff\n      and\n      dup2\n      mstore\n      0x20\n      add\n      swap1\n      dup2\n      mstore\n      0x20\n      add\n      0x00\n      keccak256\n      0x00\n        /* \"contracts/vanthenaNft.sol\":10288:10306  _balances[to] += 1 */\n      dup3\n      dup3\n      sload\n      add\n      swap3\n      pop\n      pop\n      dup2\n      swap1\n      sstore\n      pop\n        /* \"contracts/vanthenaNft.sol\":10346:10348  to */\n      dup2\n        /* \"contracts/vanthenaNft.sol\":10327:10334  _owners */\n      0x03\n        /* \"contracts/vanthenaNft.sol\":10327:10343  _owners[tokenId] */\n      0x00\n        /* \"contracts/vanthenaNft.sol\":10335:10342  tokenId */\n      dup4\n        /* \"contracts/vanthenaNft.sol\":10327:10343  _owners[tokenId] */\n      dup2\n      mstore\n      0x20\n      add\n      swap1\n      dup2\n      mstore\n      0x20\n      add\n      0x00\n      keccak256\n      0x00\n        /* \"contracts/vanthenaNft.sol\":10327:10348  _owners[tokenId] = to */\n      0x0100\n      exp\n      dup2\n      sload\n      dup2\n      0xffffffffffffffffffffffffffffffffffffffff\n      mul\n      not\n      and\n      swap1\n      dup4\n      0xffffffffffffffffffffffffffffffffffffffff\n      and\n      mul\n      or\n      swap1\n      sstore\n      pop\n        /* \"contracts/vanthenaNft.sol\":10389:10396  tokenId */\n      dup1\n        /* \"contracts/vanthenaNft.sol\":10385:10387  to */\n      dup3\n        /* \"contracts/vanthenaNft.sol\":10364:10397  Transfer(address(0), to, tokenId) */\n      0xffffffffffffffffffffffffffffffffffffffff\n      and\n        /* \"contracts/vanthenaNft.sol\":10381:10382  0 */\n      0x00\n        /* \"contracts/vanthenaNft.sol\":10364:10397  Transfer(address(0), to, tokenId) */\n      0xffffffffffffffffffffffffffffffffffffffff\n      and\n      0xddf252ad1be2c89b69c2b068fc378daa952ba7f163c4a11628f55a4df523b3ef\n      mload(0x40)\n      mload(0x40)\n      dup1\n      swap2\n      sub\n      swap1\n      log4\n        /* \"contracts/vanthenaNft.sol\":10408:10455  _afterTokenTransfer(address(0), to, tokenId, 1) */\n      tag_219\n        /* \"contracts/vanthenaNft.sol\":10436:10437  0 */\n      0x00\n        /* \"contracts/vanthenaNft.sol\":10440:10442  to */\n      dup4\n        /* \"contracts/vanthenaNft.sol\":10444:10451  tokenId */\n      dup4\n        /* \"contracts/vanthenaNft.sol\":10453:10454  1 */\n      0x01\n        /* \"contracts/vanthenaNft.sol\":10408:10427  _afterTokenTransfer */\n      tag_204\n        /* \"contracts/vanthenaNft.sol\":10408:10455  _afterTokenTransfer(address(0), to, tokenId, 1) */\n      jump\t// in\n    tag_219:\n        /* \"contracts/vanthenaNft.sol\":9542:10462  function _mint(address to, uint256 tokenId) internal virtual {... */\n      pop\n      pop\n      jump\t// out\n        /* \"@openzeppelin/contracts/utils/Counters.sol\":945:1068  function increment(Counter storage counter) internal {... */\n    tag_142:\n        /* \"@openzeppelin/contracts/utils/Counters.sol\":1050:1051  1 */\n      0x01\n        /* \"@openzeppelin/contracts/utils/Counters.sol\":1032:1039  counter */\n      dup2\n        /* \"@openzeppelin/contracts/utils/Counters.sol\":1032:1046  counter._value */\n      0x00\n      add\n      0x00\n        /* \"@openzeppelin/contracts/utils/Counters.sol\":1032:1051  counter._value += 1 */\n      dup3\n      dup3\n      sload\n      add\n      swap3\n      pop\n      pop\n      dup2\n      swap1\n      sstore\n      pop\n        /* \"@openzeppelin/contracts/utils/Counters.sol\":945:1068  function increment(Counter storage counter) internal {... */\n      pop\n      jump\t// out\n        /* \"contracts/vanthenaNft.sol\":13551:13858  function _setApprovalForAll(... */\n    tag_156:\n        /* \"contracts/vanthenaNft.sol\":13701:13709  operator */\n      dup2\n        /* \"contracts/vanthenaNft.sol\":13692:13709  owner != operator */\n      0xffffffffffffffffffffffffffffffffffffffff\n      and\n        /* \"contracts/vanthenaNft.sol\":13692:13697  owner */\n      dup4\n        /* \"contracts/vanthenaNft.sol\":13692:13709  owner != operator */\n      0xffffffffffffffffffffffffffffffffffffffff\n      and\n      eq\n      iszero\n        /* \"contracts/vanthenaNft.sol\":13684:13739  require(owner != operator, \"ERC721: approve to caller\") */\n      tag_222\n      jumpi\n      mload(0x40)\n      0x08c379a000000000000000000000000000000000000000000000000000000000\n      dup2\n      mstore\n      0x04\n      add\n      tag_223\n      swap1\n      tag_224\n      jump\t// in\n    tag_223:\n      mload(0x40)\n      dup1\n      swap2\n      sub\n      swap1\n      revert\n    tag_222:\n        /* \"contracts/vanthenaNft.sol\":13787:13795  approved */\n      dup1\n        /* \"contracts/vanthenaNft.sol\":13749:13767  _operatorApprovals */\n      0x06\n        /* \"contracts/vanthenaNft.sol\":13749:13774  _operatorApprovals[owner] */\n      0x00\n        /* \"contracts/vanthenaNft.sol\":13768:13773  owner */\n      dup6\n        /* \"contracts/vanthenaNft.sol\":13749:13774  _operatorApprovals[owner] */\n      0xffffffffffffffffffffffffffffffffffffffff\n      and\n      0xffffffffffffffffffffffffffffffffffffffff\n      and\n      dup2\n      mstore\n      0x20\n      add\n      swap1\n      dup2\n      mstore\n      0x20\n      add\n      0x00\n      keccak256\n        /* \"contracts/vanthenaNft.sol\":13749:13784  _operatorApprovals[owner][operator] */\n      0x00\n        /* \"contracts/vanthenaNft.sol\":13775:13783  operator */\n      dup5\n        /* \"contracts/vanthenaNft.sol\":13749:13784  _operatorApprovals[owner][operator] */\n      0xffffffffffffffffffffffffffffffffffffffff\n      and\n      0xffffffffffffffffffffffffffffffffffffffff\n      and\n      dup2\n      mstore\n      0x20\n      add\n      swap1\n      dup2\n      mstore\n      0x20\n      add\n      0x00\n      keccak256\n      0x00\n        /* \"contracts/vanthenaNft.sol\":13749:13795  _operatorApprovals[owner][operator] = approved */\n      0x0100\n      exp\n      dup2\n      sload\n      dup2\n      0xff\n      mul\n      not\n      and\n      swap1\n      dup4\n      iszero\n      iszero\n      mul\n      or\n      swap1\n      sstore\n      pop\n        /* \"contracts/vanthenaNft.sol\":13832:13840  operator */\n      dup2\n        /* \"contracts/vanthenaNft.sol\":13810:13851  ApprovalForAll(owner, operator, approved) */\n      0xffffffffffffffffffffffffffffffffffffffff\n      and\n        /* \"contracts/vanthenaNft.sol\":13825:13830  owner */\n      dup4\n        /* \"contracts/vanthenaNft.sol\":13810:13851  ApprovalForAll(owner, operator, approved) */\n      0xffffffffffffffffffffffffffffffffffffffff\n      and\n      0x17307eab39ab6107e8899845ad3d59bd9653f200f220920489ca2b5937696c31\n        /* \"contracts/vanthenaNft.sol\":13842:13850  approved */\n      dup4\n        /* \"contracts/vanthenaNft.sol\":13810:13851  ApprovalForAll(owner, operator, approved) */\n      mload(0x40)\n      tag_225\n      swap2\n      swap1\n      tag_26\n      jump\t// in\n    tag_225:\n      mload(0x40)\n      dup1\n      swap2\n      sub\n      swap1\n      log3\n        /* \"contracts/vanthenaNft.sol\":13551:13858  function _setApprovalForAll(... */\n      pop\n      pop\n      pop\n      jump\t// out\n        /* \"contracts/vanthenaNft.sol\":6870:7175  function _safeTransfer(... */\n    tag_163:\n        /* \"contracts/vanthenaNft.sol\":7020:7048  _transfer(from, to, tokenId) */\n      tag_227\n        /* \"contracts/vanthenaNft.sol\":7030:7034  from */\n      dup5\n        /* \"contracts/vanthenaNft.sol\":7036:7038  to */\n      dup5\n        /* \"contracts/vanthenaNft.sol\":7040:7047  tokenId */\n      dup5\n        /* \"contracts/vanthenaNft.sol\":7020:7029  _transfer */\n      tag_123\n        /* \"contracts/vanthenaNft.sol\":7020:7048  _transfer(from, to, tokenId) */\n      jump\t// in\n    tag_227:\n        /* \"contracts/vanthenaNft.sol\":7066:7113  _checkOnERC721Received(from, to, tokenId, data) */\n      tag_228\n        /* \"contracts/vanthenaNft.sol\":7089:7093  from */\n      dup5\n        /* \"contracts/vanthenaNft.sol\":7095:7097  to */\n      dup5\n        /* \"contracts/vanthenaNft.sol\":7099:7106  tokenId */\n      dup5\n        /* \"contracts/vanthenaNft.sol\":7108:7112  data */\n      dup5\n        /* \"contracts/vanthenaNft.sol\":7066:7088  _checkOnERC721Received */\n      tag_229\n        /* \"contracts/vanthenaNft.sol\":7066:7113  _checkOnERC721Received(from, to, tokenId, data) */\n      jump\t// in\n    tag_228:\n        /* \"contracts/vanthenaNft.sol\":7058:7168  require(_checkOnERC721Received(from, to, tokenId, data), \"ERC721: transfer to non ERC721Receiver implementer\") */\n      tag_230\n      jumpi\n      mload(0x40)\n      0x08c379a000000000000000000000000000000000000000000000000000000000\n      dup2\n      mstore\n      0x04\n      add\n      tag_231\n      swap1\n      tag_232\n      jump\t// in\n    tag_231:\n      mload(0x40)\n      dup1\n      swap2\n      sub\n      swap1\n      revert\n    tag_230:\n        /* \"contracts/vanthenaNft.sol\":6870:7175  function _safeTransfer(... */\n      pop\n      pop\n      pop\n      pop\n      jump\t// out\n        /* \"contracts/vanthenaNft.sol\":3330:3422  function _baseURI() internal view virtual returns (string memory) {... */\n    tag_167:\n        /* \"contracts/vanthenaNft.sol\":3381:3394  string memory */\n      0x60\n        /* \"contracts/vanthenaNft.sol\":3406:3415  return \"\" */\n      mload(0x40)\n      dup1\n      0x20\n      add\n      0x40\n      mstore\n      dup1\n      0x00\n      dup2\n      mstore\n      pop\n      swap1\n      pop\n        /* \"contracts/vanthenaNft.sol\":3330:3422  function _baseURI() internal view virtual returns (string memory) {... */\n      swap1\n      jump\t// out\n        /* \"@openzeppelin/contracts/utils/Strings.sol\":392:1095  function toString(uint256 value) internal pure returns (string memory) {... */\n    tag_171:\n        /* \"@openzeppelin/contracts/utils/Strings.sol\":448:461  string memory */\n      0x60\n        /* \"@openzeppelin/contracts/utils/Strings.sol\":674:675  0 */\n      0x00\n        /* \"@openzeppelin/contracts/utils/Strings.sol\":665:670  value */\n      dup3\n        /* \"@openzeppelin/contracts/utils/Strings.sol\":665:675  value == 0 */\n      eq\n        /* \"@openzeppelin/contracts/utils/Strings.sol\":661:712  if (value == 0) {... */\n      iszero\n      tag_235\n      jumpi\n        /* \"@openzeppelin/contracts/utils/Strings.sol\":691:701  return \"0\" */\n      mload(0x40)\n      dup1\n      0x40\n      add\n      0x40\n      mstore\n      dup1\n      0x01\n      dup2\n      mstore\n      0x20\n      add\n      0x3000000000000000000000000000000000000000000000000000000000000000\n      dup2\n      mstore\n      pop\n      swap1\n      pop\n      jump(tag_234)\n        /* \"@openzeppelin/contracts/utils/Strings.sol\":661:712  if (value == 0) {... */\n    tag_235:\n        /* \"@openzeppelin/contracts/utils/Strings.sol\":721:733  uint256 temp */\n      0x00\n        /* \"@openzeppelin/contracts/utils/Strings.sol\":736:741  value */\n      dup3\n        /* \"@openzeppelin/contracts/utils/Strings.sol\":721:741  uint256 temp = value */\n      swap1\n      pop\n        /* \"@openzeppelin/contracts/utils/Strings.sol\":751:765  uint256 digits */\n      0x00\n        /* \"@openzeppelin/contracts/utils/Strings.sol\":775:850  while (temp != 0) {... */\n    tag_236:\n        /* \"@openzeppelin/contracts/utils/Strings.sol\":790:791  0 */\n      0x00\n        /* \"@openzeppelin/contracts/utils/Strings.sol\":782:786  temp */\n      dup3\n        /* \"@openzeppelin/contracts/utils/Strings.sol\":782:791  temp != 0 */\n      eq\n        /* \"@openzeppelin/contracts/utils/Strings.sol\":775:850  while (temp != 0) {... */\n      tag_237\n      jumpi\n        /* \"@openzeppelin/contracts/utils/Strings.sol\":807:815  digits++ */\n      dup1\n      dup1\n      tag_238\n      swap1\n      tag_239\n      jump\t// in\n    tag_238:\n      swap2\n      pop\n      pop\n        /* \"@openzeppelin/contracts/utils/Strings.sol\":837:839  10 */\n      0x0a\n        /* \"@openzeppelin/contracts/utils/Strings.sol\":829:839  temp /= 10 */\n      dup3\n      tag_240\n      swap2\n      swap1\n      tag_241\n      jump\t// in\n    tag_240:\n      swap2\n      pop\n        /* \"@openzeppelin/contracts/utils/Strings.sol\":775:850  while (temp != 0) {... */\n      jump(tag_236)\n    tag_237:\n        /* \"@openzeppelin/contracts/utils/Strings.sol\":859:878  bytes memory buffer */\n      0x00\n        /* \"@openzeppelin/contracts/utils/Strings.sol\":891:897  digits */\n      dup2\n        /* \"@openzeppelin/contracts/utils/Strings.sol\":881:898  new bytes(digits) */\n      0xffffffffffffffff\n      dup2\n      gt\n      iszero\n      tag_242\n      jumpi\n      tag_243\n      tag_244\n      jump\t// in\n    tag_243:\n    tag_242:\n      mload(0x40)\n      swap1\n      dup1\n      dup3\n      mstore\n      dup1\n      0x1f\n      add\n      not(0x1f)\n      and\n      0x20\n      add\n      dup3\n      add\n      0x40\n      mstore\n      dup1\n      iszero\n      tag_245\n      jumpi\n      dup2\n      0x20\n      add\n      0x01\n      dup3\n      mul\n      dup1\n      calldatasize\n      dup4\n      calldatacopy\n      dup1\n      dup3\n      add\n      swap2\n      pop\n      pop\n      swap1\n      pop\n    tag_245:\n      pop\n        /* \"@openzeppelin/contracts/utils/Strings.sol\":859:898  bytes memory buffer = new bytes(digits) */\n      swap1\n      pop\n        /* \"@openzeppelin/contracts/utils/Strings.sol\":908:1058  while (value != 0) {... */\n    tag_246:\n        /* \"@openzeppelin/contracts/utils/Strings.sol\":924:925  0 */\n      0x00\n        /* \"@openzeppelin/contracts/utils/Strings.sol\":915:920  value */\n      dup6\n        /* \"@openzeppelin/contracts/utils/Strings.sol\":915:925  value != 0 */\n      eq\n        /* \"@openzeppelin/contracts/utils/Strings.sol\":908:1058  while (value != 0) {... */\n      tag_247\n      jumpi\n        /* \"@openzeppelin/contracts/utils/Strings.sol\":951:952  1 */\n      0x01\n        /* \"@openzeppelin/contracts/utils/Strings.sol\":941:952  digits -= 1 */\n      dup3\n      tag_248\n      swap2\n      swap1\n      tag_129\n      jump\t// in\n    tag_248:\n      swap2\n      pop\n        /* \"@openzeppelin/contracts/utils/Strings.sol\":1017:1019  10 */\n      0x0a\n        /* \"@openzeppelin/contracts/utils/Strings.sol\":1009:1014  value */\n      dup6\n        /* \"@openzeppelin/contracts/utils/Strings.sol\":1009:1019  value % 10 */\n      tag_249\n      swap2\n      swap1\n      tag_250\n      jump\t// in\n    tag_249:\n        /* \"@openzeppelin/contracts/utils/Strings.sol\":996:998  48 */\n      0x30\n        /* \"@openzeppelin/contracts/utils/Strings.sol\":996:1020  48 + uint256(value % 10) */\n      tag_251\n      swap2\n      swap1\n      tag_252\n      jump\t// in\n    tag_251:\n        /* \"@openzeppelin/contracts/utils/Strings.sol\":983:1022  bytes1(uint8(48 + uint256(value % 10))) */\n      0xf8\n      shl\n        /* \"@openzeppelin/contracts/utils/Strings.sol\":966:972  buffer */\n      dup2\n        /* \"@openzeppelin/contracts/utils/Strings.sol\":973:979  digits */\n      dup4\n        /* \"@openzeppelin/contracts/utils/Strings.sol\":966:980  buffer[digits] */\n      dup2\n      mload\n      dup2\n      lt\n      tag_253\n      jumpi\n      tag_254\n      tag_255\n      jump\t// in\n    tag_254:\n    tag_253:\n      0x20\n      add\n      add\n        /* \"@openzeppelin/contracts/utils/Strings.sol\":966:1022  buffer[digits] = bytes1(uint8(48 + uint256(value % 10))) */\n      swap1\n      not(0xffffffffffffffffffffffffffffffffffffffffffffffffffffffffffffff)\n      and\n      swap1\n      dup2\n      0x00\n      byte\n      swap1\n      mstore8\n      pop\n        /* \"@openzeppelin/contracts/utils/Strings.sol\":1045:1047  10 */\n      0x0a\n        /* \"@openzeppelin/contracts/utils/Strings.sol\":1036:1047  value /= 10 */\n      dup6\n      tag_256\n      swap2\n      swap1\n      tag_241\n      jump\t// in\n    tag_256:\n      swap5\n      pop\n        /* \"@openzeppelin/contracts/utils/Strings.sol\":908:1058  while (value != 0) {... */\n      jump(tag_246)\n    tag_247:\n        /* \"@openzeppelin/contracts/utils/Strings.sol\":1081:1087  buffer */\n      dup1\n        /* \"@openzeppelin/contracts/utils/Strings.sol\":1067:1088  return string(buffer) */\n      swap4\n      pop\n      pop\n      pop\n      pop\n        /* \"@openzeppelin/contracts/utils/Strings.sol\":392:1095  function toString(uint256 value) internal pure returns (string memory) {... */\n    tag_234:\n      swap2\n      swap1\n      pop\n      jump\t// out\n        /* \"contracts/vanthenaNft.sol\":7702:7828  function _exists(uint256 tokenId) internal view virtual returns (bool) {... */\n    tag_178:\n        /* \"contracts/vanthenaNft.sol\":7767:7771  bool */\n      0x00\n        /* \"contracts/vanthenaNft.sol\":7819:7820  0 */\n      dup1\n        /* \"contracts/vanthenaNft.sol\":7790:7821  _ownerOf(tokenId) != address(0) */\n      0xffffffffffffffffffffffffffffffffffffffff\n      and\n        /* \"contracts/vanthenaNft.sol\":7790:7807  _ownerOf(tokenId) */\n      tag_258\n        /* \"contracts/vanthenaNft.sol\":7799:7806  tokenId */\n      dup4\n        /* \"contracts/vanthenaNft.sol\":7790:7798  _ownerOf */\n      tag_132\n        /* \"contracts/vanthenaNft.sol\":7790:7807  _ownerOf(tokenId) */\n      jump\t// in\n    tag_258:\n        /* \"contracts/vanthenaNft.sol\":7790:7821  _ownerOf(tokenId) != address(0) */\n      0xffffffffffffffffffffffffffffffffffffffff\n      and\n      eq\n      iszero\n        /* \"contracts/vanthenaNft.sol\":7783:7821  return _ownerOf(tokenId) != address(0) */\n      swap1\n      pop\n        /* \"contracts/vanthenaNft.sol\":7702:7828  function _exists(uint256 tokenId) internal view virtual returns (bool) {... */\n      swap2\n      swap1\n      pop\n      jump\t// out\n        /* \"contracts/vanthenaNft.sol\":16174:16570  function _beforeTokenTransfer(... */\n    tag_199:\n        /* \"contracts/vanthenaNft.sol\":16358:16359  1 */\n      0x01\n        /* \"contracts/vanthenaNft.sol\":16346:16355  batchSize */\n      dup2\n        /* \"contracts/vanthenaNft.sol\":16346:16359  batchSize > 1 */\n      gt\n        /* \"contracts/vanthenaNft.sol\":16342:16564  if (batchSize > 1) {... */\n      iszero\n      tag_260\n      jumpi\n        /* \"contracts/vanthenaNft.sol\":16395:16396  0 */\n      0x00\n        /* \"contracts/vanthenaNft.sol\":16379:16397  from != address(0) */\n      0xffffffffffffffffffffffffffffffffffffffff\n      and\n        /* \"contracts/vanthenaNft.sol\":16379:16383  from */\n      dup5\n        /* \"contracts/vanthenaNft.sol\":16379:16397  from != address(0) */\n      0xffffffffffffffffffffffffffffffffffffffff\n      and\n      eq\n        /* \"contracts/vanthenaNft.sol\":16375:16460  if (from != address(0)) {... */\n      tag_261\n      jumpi\n        /* \"contracts/vanthenaNft.sol\":16436:16445  batchSize */\n      dup1\n        /* \"contracts/vanthenaNft.sol\":16417:16426  _balances */\n      0x04\n        /* \"contracts/vanthenaNft.sol\":16417:16432  _balances[from] */\n      0x00\n        /* \"contracts/vanthenaNft.sol\":16427:16431  from */\n      dup7\n        /* \"contracts/vanthenaNft.sol\":16417:16432  _balances[from] */\n      0xffffffffffffffffffffffffffffffffffffffff\n      and\n      0xffffffffffffffffffffffffffffffffffffffff\n      and\n      dup2\n      mstore\n      0x20\n      add\n      swap1\n      dup2\n      mstore\n      0x20\n      add\n      0x00\n      keccak256\n      0x00\n        /* \"contracts/vanthenaNft.sol\":16417:16445  _balances[from] -= batchSize */\n      dup3\n      dup3\n      sload\n      tag_262\n      swap2\n      swap1\n      tag_129\n      jump\t// in\n    tag_262:\n      swap3\n      pop\n      pop\n      dup2\n      swap1\n      sstore\n      pop\n        /* \"contracts/vanthenaNft.sol\":16375:16460  if (from != address(0)) {... */\n    tag_261:\n        /* \"contracts/vanthenaNft.sol\":16491:16492  0 */\n      0x00\n        /* \"contracts/vanthenaNft.sol\":16477:16493  to != address(0) */\n      0xffffffffffffffffffffffffffffffffffffffff\n      and\n        /* \"contracts/vanthenaNft.sol\":16477:16479  to */\n      dup4\n        /* \"contracts/vanthenaNft.sol\":16477:16493  to != address(0) */\n      0xffffffffffffffffffffffffffffffffffffffff\n      and\n      eq\n        /* \"contracts/vanthenaNft.sol\":16473:16554  if (to != address(0)) {... */\n      tag_263\n      jumpi\n        /* \"contracts/vanthenaNft.sol\":16530:16539  batchSize */\n      dup1\n        /* \"contracts/vanthenaNft.sol\":16513:16522  _balances */\n      0x04\n        /* \"contracts/vanthenaNft.sol\":16513:16526  _balances[to] */\n      0x00\n        /* \"contracts/vanthenaNft.sol\":16523:16525  to */\n      dup6\n        /* \"contracts/vanthenaNft.sol\":16513:16526  _balances[to] */\n      0xffffffffffffffffffffffffffffffffffffffff\n      and\n      0xffffffffffffffffffffffffffffffffffffffff\n      and\n      dup2\n      mstore\n      0x20\n      add\n      swap1\n      dup2\n      mstore\n      0x20\n      add\n      0x00\n      keccak256\n      0x00\n        /* \"contracts/vanthenaNft.sol\":16513:16539  _balances[to] += batchSize */\n      dup3\n      dup3\n      sload\n      tag_264\n      swap2\n      swap1\n      tag_252\n      jump\t// in\n    tag_264:\n      swap3\n      pop\n      pop\n      dup2\n      swap1\n      sstore\n      pop\n        /* \"contracts/vanthenaNft.sol\":16473:16554  if (to != address(0)) {... */\n    tag_263:\n        /* \"contracts/vanthenaNft.sol\":16342:16564  if (batchSize > 1) {... */\n    tag_260:\n        /* \"contracts/vanthenaNft.sol\":16174:16570  function _beforeTokenTransfer(... */\n      pop\n      pop\n      pop\n      pop\n      jump\t// out\n        /* \"contracts/vanthenaNft.sol\":17276:17429  function _afterTokenTransfer(... */\n    tag_204:\n      pop\n      pop\n      pop\n      pop\n      jump\t// out\n        /* \"contracts/vanthenaNft.sol\":14627:15458  function _checkOnERC721Received(... */\n    tag_229:\n        /* \"contracts/vanthenaNft.sol\":14776:14780  bool */\n      0x00\n        /* \"contracts/vanthenaNft.sol\":14796:14811  to.isContract() */\n      tag_267\n        /* \"contracts/vanthenaNft.sol\":14796:14798  to */\n      dup5\n        /* \"contracts/vanthenaNft.sol\":14796:14809  to.isContract */\n      0xffffffffffffffffffffffffffffffffffffffff\n      and\n      tag_268\n        /* \"contracts/vanthenaNft.sol\":14796:14811  to.isContract() */\n      jump\t// in\n    tag_267:\n        /* \"contracts/vanthenaNft.sol\":14792:15452  if (to.isContract()) {... */\n      iszero\n      tag_269\n      jumpi\n        /* \"contracts/vanthenaNft.sol\":14847:14849  to */\n      dup4\n        /* \"contracts/vanthenaNft.sol\":14831:14867  IERC721Receiver(to).onERC721Received */\n      0xffffffffffffffffffffffffffffffffffffffff\n      and\n      0x150b7a02\n        /* \"contracts/vanthenaNft.sol\":14868:14880  _msgSender() */\n      tag_270\n        /* \"contracts/vanthenaNft.sol\":14868:14878  _msgSender */\n      tag_106\n        /* \"contracts/vanthenaNft.sol\":14868:14880  _msgSender() */\n      jump\t// in\n    tag_270:\n        /* \"contracts/vanthenaNft.sol\":14882:14886  from */\n      dup8\n        /* \"contracts/vanthenaNft.sol\":14888:14895  tokenId */\n      dup7\n        /* \"contracts/vanthenaNft.sol\":14897:14901  data */\n      dup7\n        /* \"contracts/vanthenaNft.sol\":14831:14902  IERC721Receiver(to).onERC721Received(_msgSender(), from, tokenId, data) */\n      mload(0x40)\n      dup6\n      0xffffffff\n      and\n      0xe0\n      shl\n      dup2\n      mstore\n      0x04\n      add\n      tag_271\n      swap5\n      swap4\n      swap3\n      swap2\n      swap1\n      tag_272\n      jump\t// in\n    tag_271:\n      0x20\n      mload(0x40)\n      dup1\n      dup4\n      sub\n      dup2\n      0x00\n      dup8\n      dup1\n      extcodesize\n      iszero\n      dup1\n      iszero\n      tag_273\n      jumpi\n      0x00\n      dup1\n      revert\n    tag_273:\n      pop\n      gas\n      call\n      swap3\n      pop\n      pop\n      pop\n      dup1\n      iszero\n      tag_274\n      jumpi\n      pop\n      mload(0x40)\n      returndatasize\n      not(0x1f)\n      0x1f\n      dup3\n      add\n      and\n      dup3\n      add\n      dup1\n      0x40\n      mstore\n      pop\n      dup2\n      add\n      swap1\n      tag_275\n      swap2\n      swap1\n      tag_276\n      jump\t// in\n    tag_275:\n      0x01\n    tag_274:\n        /* \"contracts/vanthenaNft.sol\":14827:15400  try IERC721Receiver(to).onERC721Received(_msgSender(), from, tokenId, data) returns (bytes4 retval) {... */\n      tag_277\n      jumpi\n      returndatasize\n      dup1\n      0x00\n      dup2\n      eq\n      tag_282\n      jumpi\n      mload(0x40)\n      swap2\n      pop\n      and(add(returndatasize, 0x3f), not(0x1f))\n      dup3\n      add\n      0x40\n      mstore\n      returndatasize\n      dup3\n      mstore\n      returndatasize\n      0x00\n      0x20\n      dup5\n      add\n      returndatacopy\n      jump(tag_281)\n    tag_282:\n      0x60\n      swap2\n      pop\n    tag_281:\n      pop\n        /* \"contracts/vanthenaNft.sol\":15086:15087  0 */\n      0x00\n        /* \"contracts/vanthenaNft.sol\":15069:15075  reason */\n      dup2\n        /* \"contracts/vanthenaNft.sol\":15069:15082  reason.length */\n      mload\n        /* \"contracts/vanthenaNft.sol\":15069:15087  reason.length == 0 */\n      eq\n        /* \"contracts/vanthenaNft.sol\":15065:15386  if (reason.length == 0) {... */\n      iszero\n      tag_283\n      jumpi\n        /* \"contracts/vanthenaNft.sol\":15111:15171  revert(\"ERC721: transfer to non ERC721Receiver implementer\") */\n      mload(0x40)\n      0x08c379a000000000000000000000000000000000000000000000000000000000\n      dup2\n      mstore\n      0x04\n      add\n      tag_284\n      swap1\n      tag_232\n      jump\t// in\n    tag_284:\n      mload(0x40)\n      dup1\n      swap2\n      sub\n      swap1\n      revert\n        /* \"contracts/vanthenaNft.sol\":15065:15386  if (reason.length == 0) {... */\n    tag_283:\n        /* \"contracts/vanthenaNft.sol\":15338:15344  reason */\n      dup1\n        /* \"contracts/vanthenaNft.sol\":15332:15345  mload(reason) */\n      mload\n        /* \"contracts/vanthenaNft.sol\":15323:15329  reason */\n      dup2\n        /* \"contracts/vanthenaNft.sol\":15319:15321  32 */\n      0x20\n        /* \"contracts/vanthenaNft.sol\":15315:15330  add(32, reason) */\n      add\n        /* \"contracts/vanthenaNft.sol\":15308:15346  revert(add(32, reason), mload(reason)) */\n      revert\n        /* \"contracts/vanthenaNft.sol\":14827:15400  try IERC721Receiver(to).onERC721Received(_msgSender(), from, tokenId, data) returns (bytes4 retval) {... */\n    tag_277:\n        /* \"contracts/vanthenaNft.sol\":14962:15003  IERC721Receiver.onERC721Received.selector */\n      shl(0xe0, 0x150b7a02)\n        /* \"contracts/vanthenaNft.sol\":14952:15003  retval == IERC721Receiver.onERC721Received.selector */\n      not(0xffffffffffffffffffffffffffffffffffffffffffffffffffffffff)\n      and\n        /* \"contracts/vanthenaNft.sol\":14952:14958  retval */\n      dup2\n        /* \"contracts/vanthenaNft.sol\":14952:15003  retval == IERC721Receiver.onERC721Received.selector */\n      not(0xffffffffffffffffffffffffffffffffffffffffffffffffffffffff)\n      and\n      eq\n        /* \"contracts/vanthenaNft.sol\":14945:15003  return retval == IERC721Receiver.onERC721Received.selector */\n      swap2\n      pop\n      pop\n      jump(tag_266)\n        /* \"contracts/vanthenaNft.sol\":14792:15452  if (to.isContract()) {... */\n    tag_269:\n        /* \"contracts/vanthenaNft.sol\":15437:15441  true */\n      0x01\n        /* \"contracts/vanthenaNft.sol\":15430:15441  return true */\n      swap1\n      pop\n        /* \"contracts/vanthenaNft.sol\":14627:15458  function _checkOnERC721Received(... */\n    tag_266:\n      swap5\n      swap4\n      pop\n      pop\n      pop\n      pop\n      jump\t// out\n        /* \"@openzeppelin/contracts/utils/Address.sol\":1175:1495  function isContract(address account) internal view returns (bool) {... */\n    tag_268:\n        /* \"@openzeppelin/contracts/utils/Address.sol\":1235:1239  bool */\n      0x00\n        /* \"@openzeppelin/contracts/utils/Address.sol\":1487:1488  0 */\n      dup1\n        /* \"@openzeppelin/contracts/utils/Address.sol\":1465:1472  account */\n      dup3\n        /* \"@openzeppelin/contracts/utils/Address.sol\":1465:1484  account.code.length */\n      0xffffffffffffffffffffffffffffffffffffffff\n      and\n      extcodesize\n        /* \"@openzeppelin/contracts/utils/Address.sol\":1465:1488  account.code.length > 0 */\n      gt\n        /* \"@openzeppelin/contracts/utils/Address.sol\":1458:1488  return account.code.length > 0 */\n      swap1\n      pop\n        /* \"@openzeppelin/contracts/utils/Address.sol\":1175:1495  function isContract(address account) internal view returns (bool) {... */\n      swap2\n      swap1\n      pop\n      jump\t// out\n        /* \"#utility.yul\":7:417   */\n    tag_290:\n        /* \"#utility.yul\":84:89   */\n      0x00\n        /* \"#utility.yul\":109:174   */\n      tag_292\n        /* \"#utility.yul\":125:173   */\n      tag_293\n        /* \"#utility.yul\":166:172   */\n      dup5\n        /* \"#utility.yul\":125:173   */\n      tag_294\n      jump\t// in\n    tag_293:\n        /* \"#utility.yul\":109:174   */\n      tag_295\n      jump\t// in\n    tag_292:\n        /* \"#utility.yul\":100:174   */\n      swap1\n      pop\n        /* \"#utility.yul\":197:203   */\n      dup3\n        /* \"#utility.yul\":190:195   */\n      dup2\n        /* \"#utility.yul\":183:204   */\n      mstore\n        /* \"#utility.yul\":235:239   */\n      0x20\n        /* \"#utility.yul\":228:233   */\n      dup2\n        /* \"#utility.yul\":224:240   */\n      add\n        /* \"#utility.yul\":273:276   */\n      dup5\n        /* \"#utility.yul\":264:270   */\n      dup5\n        /* \"#utility.yul\":259:262   */\n      dup5\n        /* \"#utility.yul\":255:271   */\n      add\n        /* \"#utility.yul\":252:277   */\n      gt\n        /* \"#utility.yul\":249:361   */\n      iszero\n      tag_296\n      jumpi\n        /* \"#utility.yul\":280:359   */\n      tag_297\n      tag_298\n      jump\t// in\n    tag_297:\n        /* \"#utility.yul\":249:361   */\n    tag_296:\n        /* \"#utility.yul\":370:411   */\n      tag_299\n        /* \"#utility.yul\":404:410   */\n      dup5\n        /* \"#utility.yul\":399:402   */\n      dup3\n        /* \"#utility.yul\":394:397   */\n      dup6\n        /* \"#utility.yul\":370:411   */\n      tag_300\n      jump\t// in\n    tag_299:\n        /* \"#utility.yul\":90:417   */\n      pop\n        /* \"#utility.yul\":7:417   */\n      swap4\n      swap3\n      pop\n      pop\n      pop\n      jump\t// out\n        /* \"#utility.yul\":423:562   */\n    tag_301:\n        /* \"#utility.yul\":469:474   */\n      0x00\n        /* \"#utility.yul\":507:513   */\n      dup2\n        /* \"#utility.yul\":494:514   */\n      calldataload\n        /* \"#utility.yul\":485:514   */\n      swap1\n      pop\n        /* \"#utility.yul\":523:556   */\n      tag_303\n        /* \"#utility.yul\":550:555   */\n      dup2\n        /* \"#utility.yul\":523:556   */\n      tag_304\n      jump\t// in\n    tag_303:\n        /* \"#utility.yul\":423:562   */\n      swap3\n      swap2\n      pop\n      pop\n      jump\t// out\n        /* \"#utility.yul\":568:701   */\n    tag_305:\n        /* \"#utility.yul\":611:616   */\n      0x00\n        /* \"#utility.yul\":649:655   */\n      dup2\n        /* \"#utility.yul\":636:656   */\n      calldataload\n        /* \"#utility.yul\":627:656   */\n      swap1\n      pop\n        /* \"#utility.yul\":665:695   */\n      tag_307\n        /* \"#utility.yul\":689:694   */\n      dup2\n        /* \"#utility.yul\":665:695   */\n      tag_308\n      jump\t// in\n    tag_307:\n        /* \"#utility.yul\":568:701   */\n      swap3\n      swap2\n      pop\n      pop\n      jump\t// out\n        /* \"#utility.yul\":707:844   */\n    tag_309:\n        /* \"#utility.yul\":752:757   */\n      0x00\n        /* \"#utility.yul\":790:796   */\n      dup2\n        /* \"#utility.yul\":777:797   */\n      calldataload\n        /* \"#utility.yul\":768:797   */\n      swap1\n      pop\n        /* \"#utility.yul\":806:838   */\n      tag_311\n        /* \"#utility.yul\":832:837   */\n      dup2\n        /* \"#utility.yul\":806:838   */\n      tag_312\n      jump\t// in\n    tag_311:\n        /* \"#utility.yul\":707:844   */\n      swap3\n      swap2\n      pop\n      pop\n      jump\t// out\n        /* \"#utility.yul\":850:991   */\n    tag_313:\n        /* \"#utility.yul\":906:911   */\n      0x00\n        /* \"#utility.yul\":937:943   */\n      dup2\n        /* \"#utility.yul\":931:944   */\n      mload\n        /* \"#utility.yul\":922:944   */\n      swap1\n      pop\n        /* \"#utility.yul\":953:985   */\n      tag_315\n        /* \"#utility.yul\":979:984   */\n      dup2\n        /* \"#utility.yul\":953:985   */\n      tag_312\n      jump\t// in\n    tag_315:\n        /* \"#utility.yul\":850:991   */\n      swap3\n      swap2\n      pop\n      pop\n      jump\t// out\n        /* \"#utility.yul\":1010:1348   */\n    tag_316:\n        /* \"#utility.yul\":1065:1070   */\n      0x00\n        /* \"#utility.yul\":1114:1117   */\n      dup3\n        /* \"#utility.yul\":1107:1111   */\n      0x1f\n        /* \"#utility.yul\":1099:1105   */\n      dup4\n        /* \"#utility.yul\":1095:1112   */\n      add\n        /* \"#utility.yul\":1091:1118   */\n      slt\n        /* \"#utility.yul\":1081:1203   */\n      tag_318\n      jumpi\n        /* \"#utility.yul\":1122:1201   */\n      tag_319\n      tag_320\n      jump\t// in\n    tag_319:\n        /* \"#utility.yul\":1081:1203   */\n    tag_318:\n        /* \"#utility.yul\":1239:1245   */\n      dup2\n        /* \"#utility.yul\":1226:1246   */\n      calldataload\n        /* \"#utility.yul\":1264:1342   */\n      tag_321\n        /* \"#utility.yul\":1338:1341   */\n      dup5\n        /* \"#utility.yul\":1330:1336   */\n      dup3\n        /* \"#utility.yul\":1323:1327   */\n      0x20\n        /* \"#utility.yul\":1315:1321   */\n      dup7\n        /* \"#utility.yul\":1311:1328   */\n      add\n        /* \"#utility.yul\":1264:1342   */\n      tag_290\n      jump\t// in\n    tag_321:\n        /* \"#utility.yul\":1255:1342   */\n      swap2\n      pop\n        /* \"#utility.yul\":1071:1348   */\n      pop\n        /* \"#utility.yul\":1010:1348   */\n      swap3\n      swap2\n      pop\n      pop\n      jump\t// out\n        /* \"#utility.yul\":1354:1493   */\n    tag_322:\n        /* \"#utility.yul\":1400:1405   */\n      0x00\n        /* \"#utility.yul\":1438:1444   */\n      dup2\n        /* \"#utility.yul\":1425:1445   */\n      calldataload\n        /* \"#utility.yul\":1416:1445   */\n      swap1\n      pop\n        /* \"#utility.yul\":1454:1487   */\n      tag_324\n        /* \"#utility.yul\":1481:1486   */\n      dup2\n        /* \"#utility.yul\":1454:1487   */\n      tag_325\n      jump\t// in\n    tag_324:\n        /* \"#utility.yul\":1354:1493   */\n      swap3\n      swap2\n      pop\n      pop\n      jump\t// out\n        /* \"#utility.yul\":1499:1828   */\n    tag_57:\n        /* \"#utility.yul\":1558:1564   */\n      0x00\n        /* \"#utility.yul\":1607:1609   */\n      0x20\n        /* \"#utility.yul\":1595:1604   */\n      dup3\n        /* \"#utility.yul\":1586:1593   */\n      dup5\n        /* \"#utility.yul\":1582:1605   */\n      sub\n        /* \"#utility.yul\":1578:1610   */\n      slt\n        /* \"#utility.yul\":1575:1694   */\n      iszero\n      tag_327\n      jumpi\n        /* \"#utility.yul\":1613:1692   */\n      tag_328\n      tag_329\n      jump\t// in\n    tag_328:\n        /* \"#utility.yul\":1575:1694   */\n    tag_327:\n        /* \"#utility.yul\":1733:1734   */\n      0x00\n        /* \"#utility.yul\":1758:1811   */\n      tag_330\n        /* \"#utility.yul\":1803:1810   */\n      dup5\n        /* \"#utility.yul\":1794:1800   */\n      dup3\n        /* \"#utility.yul\":1783:1792   */\n      dup6\n        /* \"#utility.yul\":1779:1801   */\n      add\n        /* \"#utility.yul\":1758:1811   */\n      tag_301\n      jump\t// in\n    tag_330:\n        /* \"#utility.yul\":1748:1811   */\n      swap2\n      pop\n        /* \"#utility.yul\":1704:1821   */\n      pop\n        /* \"#utility.yul\":1499:1828   */\n      swap3\n      swap2\n      pop\n      pop\n      jump\t// out\n        /* \"#utility.yul\":1834:2308   */\n    tag_82:\n        /* \"#utility.yul\":1902:1908   */\n      0x00\n        /* \"#utility.yul\":1910:1916   */\n      dup1\n        /* \"#utility.yul\":1959:1961   */\n      0x40\n        /* \"#utility.yul\":1947:1956   */\n      dup4\n        /* \"#utility.yul\":1938:1945   */\n      dup6\n        /* \"#utility.yul\":1934:1957   */\n      sub\n        /* \"#utility.yul\":1930:1962   */\n      slt\n        /* \"#utility.yul\":1927:2046   */\n      iszero\n      tag_332\n      jumpi\n        /* \"#utility.yul\":1965:2044   */\n      tag_333\n      tag_329\n      jump\t// in\n    tag_333:\n        /* \"#utility.yul\":1927:2046   */\n    tag_332:\n        /* \"#utility.yul\":2085:2086   */\n      0x00\n        /* \"#utility.yul\":2110:2163   */\n      tag_334\n        /* \"#utility.yul\":2155:2162   */\n      dup6\n        /* \"#utility.yul\":2146:2152   */\n      dup3\n        /* \"#utility.yul\":2135:2144   */\n      dup7\n        /* \"#utility.yul\":2131:2153   */\n      add\n        /* \"#utility.yul\":2110:2163   */\n      tag_301\n      jump\t// in\n    tag_334:\n        /* \"#utility.yul\":2100:2163   */\n      swap3\n      pop\n        /* \"#utility.yul\":2056:2173   */\n      pop\n        /* \"#utility.yul\":2212:2214   */\n      0x20\n        /* \"#utility.yul\":2238:2291   */\n      tag_335\n        /* \"#utility.yul\":2283:2290   */\n      dup6\n        /* \"#utility.yul\":2274:2280   */\n      dup3\n        /* \"#utility.yul\":2263:2272   */\n      dup7\n        /* \"#utility.yul\":2259:2281   */\n      add\n        /* \"#utility.yul\":2238:2291   */\n      tag_301\n      jump\t// in\n    tag_335:\n        /* \"#utility.yul\":2228:2291   */\n      swap2\n      pop\n        /* \"#utility.yul\":2183:2301   */\n      pop\n        /* \"#utility.yul\":1834:2308   */\n      swap3\n      pop\n      swap3\n      swap1\n      pop\n      jump\t// out\n        /* \"#utility.yul\":2314:2933   */\n    tag_43:\n        /* \"#utility.yul\":2391:2397   */\n      0x00\n        /* \"#utility.yul\":2399:2405   */\n      dup1\n        /* \"#utility.yul\":2407:2413   */\n      0x00\n        /* \"#utility.yul\":2456:2458   */\n      0x60\n        /* \"#utility.yul\":2444:2453   */\n      dup5\n        /* \"#utility.yul\":2435:2442   */\n      dup7\n        /* \"#utility.yul\":2431:2454   */\n      sub\n        /* \"#utility.yul\":2427:2459   */\n      slt\n        /* \"#utility.yul\":2424:2543   */\n      iszero\n      tag_337\n      jumpi\n        /* \"#utility.yul\":2462:2541   */\n      tag_338\n      tag_329\n      jump\t// in\n    tag_338:\n        /* \"#utility.yul\":2424:2543   */\n    tag_337:\n        /* \"#utility.yul\":2582:2583   */\n      0x00\n        /* \"#utility.yul\":2607:2660   */\n      tag_339\n        /* \"#utility.yul\":2652:2659   */\n      dup7\n        /* \"#utility.yul\":2643:2649   */\n      dup3\n        /* \"#utility.yul\":2632:2641   */\n      dup8\n        /* \"#utility.yul\":2628:2650   */\n      add\n        /* \"#utility.yul\":2607:2660   */\n      tag_301\n      jump\t// in\n    tag_339:\n        /* \"#utility.yul\":2597:2660   */\n      swap4\n      pop\n        /* \"#utility.yul\":2553:2670   */\n      pop\n        /* \"#utility.yul\":2709:2711   */\n      0x20\n        /* \"#utility.yul\":2735:2788   */\n      tag_340\n        /* \"#utility.yul\":2780:2787   */\n      dup7\n        /* \"#utility.yul\":2771:2777   */\n      dup3\n        /* \"#utility.yul\":2760:2769   */\n      dup8\n        /* \"#utility.yul\":2756:2778   */\n      add\n        /* \"#utility.yul\":2735:2788   */\n      tag_301\n      jump\t// in\n    tag_340:\n        /* \"#utility.yul\":2725:2788   */\n      swap3\n      pop\n        /* \"#utility.yul\":2680:2798   */\n      pop\n        /* \"#utility.yul\":2837:2839   */\n      0x40\n        /* \"#utility.yul\":2863:2916   */\n      tag_341\n        /* \"#utility.yul\":2908:2915   */\n      dup7\n        /* \"#utility.yul\":2899:2905   */\n      dup3\n        /* \"#utility.yul\":2888:2897   */\n      dup8\n        /* \"#utility.yul\":2884:2906   */\n      add\n        /* \"#utility.yul\":2863:2916   */\n      tag_322\n      jump\t// in\n    tag_341:\n        /* \"#utility.yul\":2853:2916   */\n      swap2\n      pop\n        /* \"#utility.yul\":2808:2926   */\n      pop\n        /* \"#utility.yul\":2314:2933   */\n      swap3\n      pop\n      swap3\n      pop\n      swap3\n      jump\t// out\n        /* \"#utility.yul\":2939:3882   */\n    tag_74:\n        /* \"#utility.yul\":3034:3040   */\n      0x00\n        /* \"#utility.yul\":3042:3048   */\n      dup1\n        /* \"#utility.yul\":3050:3056   */\n      0x00\n        /* \"#utility.yul\":3058:3064   */\n      dup1\n        /* \"#utility.yul\":3107:3110   */\n      0x80\n        /* \"#utility.yul\":3095:3104   */\n      dup6\n        /* \"#utility.yul\":3086:3093   */\n      dup8\n        /* \"#utility.yul\":3082:3105   */\n      sub\n        /* \"#utility.yul\":3078:3111   */\n      slt\n        /* \"#utility.yul\":3075:3195   */\n      iszero\n      tag_343\n      jumpi\n        /* \"#utility.yul\":3114:3193   */\n      tag_344\n      tag_329\n      jump\t// in\n    tag_344:\n        /* \"#utility.yul\":3075:3195   */\n    tag_343:\n        /* \"#utility.yul\":3234:3235   */\n      0x00\n        /* \"#utility.yul\":3259:3312   */\n      tag_345\n        /* \"#utility.yul\":3304:3311   */\n      dup8\n        /* \"#utility.yul\":3295:3301   */\n      dup3\n        /* \"#utility.yul\":3284:3293   */\n      dup9\n        /* \"#utility.yul\":3280:3302   */\n      add\n        /* \"#utility.yul\":3259:3312   */\n      tag_301\n      jump\t// in\n    tag_345:\n        /* \"#utility.yul\":3249:3312   */\n      swap5\n      pop\n        /* \"#utility.yul\":3205:3322   */\n      pop\n        /* \"#utility.yul\":3361:3363   */\n      0x20\n        /* \"#utility.yul\":3387:3440   */\n      tag_346\n        /* \"#utility.yul\":3432:3439   */\n      dup8\n        /* \"#utility.yul\":3423:3429   */\n      dup3\n        /* \"#utility.yul\":3412:3421   */\n      dup9\n        /* \"#utility.yul\":3408:3430   */\n      add\n        /* \"#utility.yul\":3387:3440   */\n      tag_301\n      jump\t// in\n    tag_346:\n        /* \"#utility.yul\":3377:3440   */\n      swap4\n      pop\n        /* \"#utility.yul\":3332:3450   */\n      pop\n        /* \"#utility.yul\":3489:3491   */\n      0x40\n        /* \"#utility.yul\":3515:3568   */\n      tag_347\n        /* \"#utility.yul\":3560:3567   */\n      dup8\n        /* \"#utility.yul\":3551:3557   */\n      dup3\n        /* \"#utility.yul\":3540:3549   */\n      dup9\n        /* \"#utility.yul\":3536:3558   */\n      add\n        /* \"#utility.yul\":3515:3568   */\n      tag_322\n      jump\t// in\n    tag_347:\n        /* \"#utility.yul\":3505:3568   */\n      swap3\n      pop\n        /* \"#utility.yul\":3460:3578   */\n      pop\n        /* \"#utility.yul\":3645:3647   */\n      0x60\n        /* \"#utility.yul\":3634:3643   */\n      dup6\n        /* \"#utility.yul\":3630:3648   */\n      add\n        /* \"#utility.yul\":3617:3649   */\n      calldataload\n        /* \"#utility.yul\":3676:3694   */\n      0xffffffffffffffff\n        /* \"#utility.yul\":3668:3674   */\n      dup2\n        /* \"#utility.yul\":3665:3695   */\n      gt\n        /* \"#utility.yul\":3662:3779   */\n      iszero\n      tag_348\n      jumpi\n        /* \"#utility.yul\":3698:3777   */\n      tag_349\n      tag_350\n      jump\t// in\n    tag_349:\n        /* \"#utility.yul\":3662:3779   */\n    tag_348:\n        /* \"#utility.yul\":3803:3865   */\n      tag_351\n        /* \"#utility.yul\":3857:3864   */\n      dup8\n        /* \"#utility.yul\":3848:3854   */\n      dup3\n        /* \"#utility.yul\":3837:3846   */\n      dup9\n        /* \"#utility.yul\":3833:3855   */\n      add\n        /* \"#utility.yul\":3803:3865   */\n      tag_316\n      jump\t// in\n    tag_351:\n        /* \"#utility.yul\":3793:3865   */\n      swap2\n      pop\n        /* \"#utility.yul\":3588:3875   */\n      pop\n        /* \"#utility.yul\":2939:3882   */\n      swap3\n      swap6\n      swap2\n      swap5\n      pop\n      swap3\n      pop\n      jump\t// out\n        /* \"#utility.yul\":3888:4356   */\n    tag_70:\n        /* \"#utility.yul\":3953:3959   */\n      0x00\n        /* \"#utility.yul\":3961:3967   */\n      dup1\n        /* \"#utility.yul\":4010:4012   */\n      0x40\n        /* \"#utility.yul\":3998:4007   */\n      dup4\n        /* \"#utility.yul\":3989:3996   */\n      dup6\n        /* \"#utility.yul\":3985:4008   */\n      sub\n        /* \"#utility.yul\":3981:4013   */\n      slt\n        /* \"#utility.yul\":3978:4097   */\n      iszero\n      tag_353\n      jumpi\n        /* \"#utility.yul\":4016:4095   */\n      tag_354\n      tag_329\n      jump\t// in\n    tag_354:\n        /* \"#utility.yul\":3978:4097   */\n    tag_353:\n        /* \"#utility.yul\":4136:4137   */\n      0x00\n        /* \"#utility.yul\":4161:4214   */\n      tag_355\n        /* \"#utility.yul\":4206:4213   */\n      dup6\n        /* \"#utility.yul\":4197:4203   */\n      dup3\n        /* \"#utility.yul\":4186:4195   */\n      dup7\n        /* \"#utility.yul\":4182:4204   */\n      add\n        /* \"#utility.yul\":4161:4214   */\n      tag_301\n      jump\t// in\n    tag_355:\n        /* \"#utility.yul\":4151:4214   */\n      swap3\n      pop\n        /* \"#utility.yul\":4107:4224   */\n      pop\n        /* \"#utility.yul\":4263:4265   */\n      0x20\n        /* \"#utility.yul\":4289:4339   */\n      tag_356\n        /* \"#utility.yul\":4331:4338   */\n      dup6\n        /* \"#utility.yul\":4322:4328   */\n      dup3\n        /* \"#utility.yul\":4311:4320   */\n      dup7\n        /* \"#utility.yul\":4307:4329   */\n      add\n        /* \"#utility.yul\":4289:4339   */\n      tag_305\n      jump\t// in\n    tag_356:\n        /* \"#utility.yul\":4279:4339   */\n      swap2\n      pop\n        /* \"#utility.yul\":4234:4349   */\n      pop\n        /* \"#utility.yul\":3888:4356   */\n      swap3\n      pop\n      swap3\n      swap1\n      pop\n      jump\t// out\n        /* \"#utility.yul\":4362:4836   */\n    tag_39:\n        /* \"#utility.yul\":4430:4436   */\n      0x00\n        /* \"#utility.yul\":4438:4444   */\n      dup1\n        /* \"#utility.yul\":4487:4489   */\n      0x40\n        /* \"#utility.yul\":4475:4484   */\n      dup4\n        /* \"#utility.yul\":4466:4473   */\n      dup6\n        /* \"#utility.yul\":4462:4485   */\n      sub\n        /* \"#utility.yul\":4458:4490   */\n      slt\n        /* \"#utility.yul\":4455:4574   */\n      iszero\n      tag_358\n      jumpi\n        /* \"#utility.yul\":4493:4572   */\n      tag_359\n      tag_329\n      jump\t// in\n    tag_359:\n        /* \"#utility.yul\":4455:4574   */\n    tag_358:\n        /* \"#utility.yul\":4613:4614   */\n      0x00\n        /* \"#utility.yul\":4638:4691   */\n      tag_360\n        /* \"#utility.yul\":4683:4690   */\n      dup6\n        /* \"#utility.yul\":4674:4680   */\n      dup3\n        /* \"#utility.yul\":4663:4672   */\n      dup7\n        /* \"#utility.yul\":4659:4681   */\n      add\n        /* \"#utility.yul\":4638:4691   */\n      tag_301\n      jump\t// in\n    tag_360:\n        /* \"#utility.yul\":4628:4691   */\n      swap3\n      pop\n        /* \"#utility.yul\":4584:4701   */\n      pop\n        /* \"#utility.yul\":4740:4742   */\n      0x20\n        /* \"#utility.yul\":4766:4819   */\n      tag_361\n        /* \"#utility.yul\":4811:4818   */\n      dup6\n        /* \"#utility.yul\":4802:4808   */\n      dup3\n        /* \"#utility.yul\":4791:4800   */\n      dup7\n        /* \"#utility.yul\":4787:4809   */\n      add\n        /* \"#utility.yul\":4766:4819   */\n      tag_322\n      jump\t// in\n    tag_361:\n        /* \"#utility.yul\":4756:4819   */\n      swap2\n      pop\n        /* \"#utility.yul\":4711:4829   */\n      pop\n        /* \"#utility.yul\":4362:4836   */\n      swap3\n      pop\n      swap3\n      swap1\n      pop\n      jump\t// out\n        /* \"#utility.yul\":4842:5169   */\n    tag_23:\n        /* \"#utility.yul\":4900:4906   */\n      0x00\n        /* \"#utility.yul\":4949:4951   */\n      0x20\n        /* \"#utility.yul\":4937:4946   */\n      dup3\n        /* \"#utility.yul\":4928:4935   */\n      dup5\n        /* \"#utility.yul\":4924:4947   */\n      sub\n        /* \"#utility.yul\":4920:4952   */\n      slt\n        /* \"#utility.yul\":4917:5036   */\n      iszero\n      tag_363\n      jumpi\n        /* \"#utility.yul\":4955:5034   */\n      tag_364\n      tag_329\n      jump\t// in\n    tag_364:\n        /* \"#utility.yul\":4917:5036   */\n    tag_363:\n        /* \"#utility.yul\":5075:5076   */\n      0x00\n        /* \"#utility.yul\":5100:5152   */\n      tag_365\n        /* \"#utility.yul\":5144:5151   */\n      dup5\n        /* \"#utility.yul\":5135:5141   */\n      dup3\n        /* \"#utility.yul\":5124:5133   */\n      dup6\n        /* \"#utility.yul\":5120:5142   */\n      add\n        /* \"#utility.yul\":5100:5152   */\n      tag_309\n      jump\t// in\n    tag_365:\n        /* \"#utility.yul\":5090:5152   */\n      swap2\n      pop\n        /* \"#utility.yul\":5046:5162   */\n      pop\n        /* \"#utility.yul\":4842:5169   */\n      swap3\n      swap2\n      pop\n      pop\n      jump\t// out\n        /* \"#utility.yul\":5175:5524   */\n    tag_276:\n        /* \"#utility.yul\":5244:5250   */\n      0x00\n        /* \"#utility.yul\":5293:5295   */\n      0x20\n        /* \"#utility.yul\":5281:5290   */\n      dup3\n        /* \"#utility.yul\":5272:5279   */\n      dup5\n        /* \"#utility.yul\":5268:5291   */\n      sub\n        /* \"#utility.yul\":5264:5296   */\n      slt\n        /* \"#utility.yul\":5261:5380   */\n      iszero\n      tag_367\n      jumpi\n        /* \"#utility.yul\":5299:5378   */\n      tag_368\n      tag_329\n      jump\t// in\n    tag_368:\n        /* \"#utility.yul\":5261:5380   */\n    tag_367:\n        /* \"#utility.yul\":5419:5420   */\n      0x00\n        /* \"#utility.yul\":5444:5507   */\n      tag_369\n        /* \"#utility.yul\":5499:5506   */\n      dup5\n        /* \"#utility.yul\":5490:5496   */\n      dup3\n        /* \"#utility.yul\":5479:5488   */\n      dup6\n        /* \"#utility.yul\":5475:5497   */\n      add\n        /* \"#utility.yul\":5444:5507   */\n      tag_313\n      jump\t// in\n    tag_369:\n        /* \"#utility.yul\":5434:5507   */\n      swap2\n      pop\n        /* \"#utility.yul\":5390:5517   */\n      pop\n        /* \"#utility.yul\":5175:5524   */\n      swap3\n      swap2\n      pop\n      pop\n      jump\t// out\n        /* \"#utility.yul\":5530:5859   */\n    tag_33:\n        /* \"#utility.yul\":5589:5595   */\n      0x00\n        /* \"#utility.yul\":5638:5640   */\n      0x20\n        /* \"#utility.yul\":5626:5635   */\n      dup3\n        /* \"#utility.yul\":5617:5624   */\n      dup5\n        /* \"#utility.yul\":5613:5636   */\n      sub\n        /* \"#utility.yul\":5609:5641   */\n      slt\n        /* \"#utility.yul\":5606:5725   */\n      iszero\n      tag_371\n      jumpi\n        /* \"#utility.yul\":5644:5723   */\n      tag_372\n      tag_329\n      jump\t// in\n    tag_372:\n        /* \"#utility.yul\":5606:5725   */\n    tag_371:\n        /* \"#utility.yul\":5764:5765   */\n      0x00\n        /* \"#utility.yul\":5789:5842   */\n      tag_373\n        /* \"#utility.yul\":5834:5841   */\n      dup5\n        /* \"#utility.yul\":5825:5831   */\n      dup3\n        /* \"#utility.yul\":5814:5823   */\n      dup6\n        /* \"#utility.yul\":5810:5832   */\n      add\n        /* \"#utility.yul\":5789:5842   */\n      tag_322\n      jump\t// in\n    tag_373:\n        /* \"#utility.yul\":5779:5842   */\n      swap2\n      pop\n        /* \"#utility.yul\":5735:5852   */\n      pop\n        /* \"#utility.yul\":5530:5859   */\n      swap3\n      swap2\n      pop\n      pop\n      jump\t// out\n        /* \"#utility.yul\":5865:5983   */\n    tag_374:\n        /* \"#utility.yul\":5952:5976   */\n      tag_376\n        /* \"#utility.yul\":5970:5975   */\n      dup2\n        /* \"#utility.yul\":5952:5976   */\n      tag_377\n      jump\t// in\n    tag_376:\n        /* \"#utility.yul\":5947:5950   */\n      dup3\n        /* \"#utility.yul\":5940:5977   */\n      mstore\n        /* \"#utility.yul\":5865:5983   */\n      pop\n      pop\n      jump\t// out\n        /* \"#utility.yul\":5989:6098   */\n    tag_378:\n        /* \"#utility.yul\":6070:6091   */\n      tag_380\n        /* \"#utility.yul\":6085:6090   */\n      dup2\n        /* \"#utility.yul\":6070:6091   */\n      tag_381\n      jump\t// in\n    tag_380:\n        /* \"#utility.yul\":6065:6068   */\n      dup3\n        /* \"#utility.yul\":6058:6092   */\n      mstore\n        /* \"#utility.yul\":5989:6098   */\n      pop\n      pop\n      jump\t// out\n        /* \"#utility.yul\":6104:6464   */\n    tag_382:\n        /* \"#utility.yul\":6190:6193   */\n      0x00\n        /* \"#utility.yul\":6218:6256   */\n      tag_384\n        /* \"#utility.yul\":6250:6255   */\n      dup3\n        /* \"#utility.yul\":6218:6256   */\n      tag_385\n      jump\t// in\n    tag_384:\n        /* \"#utility.yul\":6272:6342   */\n      tag_386\n        /* \"#utility.yul\":6335:6341   */\n      dup2\n        /* \"#utility.yul\":6330:6333   */\n      dup6\n        /* \"#utility.yul\":6272:6342   */\n      tag_387\n      jump\t// in\n    tag_386:\n        /* \"#utility.yul\":6265:6342   */\n      swap4\n      pop\n        /* \"#utility.yul\":6351:6403   */\n      tag_388\n        /* \"#utility.yul\":6396:6402   */\n      dup2\n        /* \"#utility.yul\":6391:6394   */\n      dup6\n        /* \"#utility.yul\":6384:6388   */\n      0x20\n        /* \"#utility.yul\":6377:6382   */\n      dup7\n        /* \"#utility.yul\":6373:6389   */\n      add\n        /* \"#utility.yul\":6351:6403   */\n      tag_389\n      jump\t// in\n    tag_388:\n        /* \"#utility.yul\":6428:6457   */\n      tag_390\n        /* \"#utility.yul\":6450:6456   */\n      dup2\n        /* \"#utility.yul\":6428:6457   */\n      tag_391\n      jump\t// in\n    tag_390:\n        /* \"#utility.yul\":6423:6426   */\n      dup5\n        /* \"#utility.yul\":6419:6458   */\n      add\n        /* \"#utility.yul\":6412:6458   */\n      swap2\n      pop\n        /* \"#utility.yul\":6194:6464   */\n      pop\n        /* \"#utility.yul\":6104:6464   */\n      swap3\n      swap2\n      pop\n      pop\n      jump\t// out\n        /* \"#utility.yul\":6470:6834   */\n    tag_392:\n        /* \"#utility.yul\":6558:6561   */\n      0x00\n        /* \"#utility.yul\":6586:6625   */\n      tag_394\n        /* \"#utility.yul\":6619:6624   */\n      dup3\n        /* \"#utility.yul\":6586:6625   */\n      tag_395\n      jump\t// in\n    tag_394:\n        /* \"#utility.yul\":6641:6712   */\n      tag_396\n        /* \"#utility.yul\":6705:6711   */\n      dup2\n        /* \"#utility.yul\":6700:6703   */\n      dup6\n        /* \"#utility.yul\":6641:6712   */\n      tag_397\n      jump\t// in\n    tag_396:\n        /* \"#utility.yul\":6634:6712   */\n      swap4\n      pop\n        /* \"#utility.yul\":6721:6773   */\n      tag_398\n        /* \"#utility.yul\":6766:6772   */\n      dup2\n        /* \"#utility.yul\":6761:6764   */\n      dup6\n        /* \"#utility.yul\":6754:6758   */\n      0x20\n        /* \"#utility.yul\":6747:6752   */\n      dup7\n        /* \"#utility.yul\":6743:6759   */\n      add\n        /* \"#utility.yul\":6721:6773   */\n      tag_389\n      jump\t// in\n    tag_398:\n        /* \"#utility.yul\":6798:6827   */\n      tag_399\n        /* \"#utility.yul\":6820:6826   */\n      dup2\n        /* \"#utility.yul\":6798:6827   */\n      tag_391\n      jump\t// in\n    tag_399:\n        /* \"#utility.yul\":6793:6796   */\n      dup5\n        /* \"#utility.yul\":6789:6828   */\n      add\n        /* \"#utility.yul\":6782:6828   */\n      swap2\n      pop\n        /* \"#utility.yul\":6562:6834   */\n      pop\n        /* \"#utility.yul\":6470:6834   */\n      swap3\n      swap2\n      pop\n      pop\n      jump\t// out\n        /* \"#utility.yul\":6840:7217   */\n    tag_400:\n        /* \"#utility.yul\":6946:6949   */\n      0x00\n        /* \"#utility.yul\":6974:7013   */\n      tag_402\n        /* \"#utility.yul\":7007:7012   */\n      dup3\n        /* \"#utility.yul\":6974:7013   */\n      tag_395\n      jump\t// in\n    tag_402:\n        /* \"#utility.yul\":7029:7118   */\n      tag_403\n        /* \"#utility.yul\":7111:7117   */\n      dup2\n        /* \"#utility.yul\":7106:7109   */\n      dup6\n        /* \"#utility.yul\":7029:7118   */\n      tag_404\n      jump\t// in\n    tag_403:\n        /* \"#utility.yul\":7022:7118   */\n      swap4\n      pop\n        /* \"#utility.yul\":7127:7179   */\n      tag_405\n        /* \"#utility.yul\":7172:7178   */\n      dup2\n        /* \"#utility.yul\":7167:7170   */\n      dup6\n        /* \"#utility.yul\":7160:7164   */\n      0x20\n        /* \"#utility.yul\":7153:7158   */\n      dup7\n        /* \"#utility.yul\":7149:7165   */\n      add\n        /* \"#utility.yul\":7127:7179   */\n      tag_389\n      jump\t// in\n    tag_405:\n        /* \"#utility.yul\":7204:7210   */\n      dup1\n        /* \"#utility.yul\":7199:7202   */\n      dup5\n        /* \"#utility.yul\":7195:7211   */\n      add\n        /* \"#utility.yul\":7188:7211   */\n      swap2\n      pop\n        /* \"#utility.yul\":6950:7217   */\n      pop\n        /* \"#utility.yul\":6840:7217   */\n      swap3\n      swap2\n      pop\n      pop\n      jump\t// out\n        /* \"#utility.yul\":7223:7589   */\n    tag_406:\n        /* \"#utility.yul\":7365:7368   */\n      0x00\n        /* \"#utility.yul\":7386:7453   */\n      tag_408\n        /* \"#utility.yul\":7450:7452   */\n      0x2d\n        /* \"#utility.yul\":7445:7448   */\n      dup4\n        /* \"#utility.yul\":7386:7453   */\n      tag_397\n      jump\t// in\n    tag_408:\n        /* \"#utility.yul\":7379:7453   */\n      swap2\n      pop\n        /* \"#utility.yul\":7462:7555   */\n      tag_409\n        /* \"#utility.yul\":7551:7554   */\n      dup3\n        /* \"#utility.yul\":7462:7555   */\n      tag_410\n      jump\t// in\n    tag_409:\n        /* \"#utility.yul\":7580:7582   */\n      0x40\n        /* \"#utility.yul\":7575:7578   */\n      dup3\n        /* \"#utility.yul\":7571:7583   */\n      add\n        /* \"#utility.yul\":7564:7583   */\n      swap1\n      pop\n        /* \"#utility.yul\":7223:7589   */\n      swap2\n      swap1\n      pop\n      jump\t// out\n        /* \"#utility.yul\":7595:7961   */\n    tag_411:\n        /* \"#utility.yul\":7737:7740   */\n      0x00\n        /* \"#utility.yul\":7758:7825   */\n      tag_413\n        /* \"#utility.yul\":7822:7824   */\n      0x32\n        /* \"#utility.yul\":7817:7820   */\n      dup4\n        /* \"#utility.yul\":7758:7825   */\n      tag_397\n      jump\t// in\n    tag_413:\n        /* \"#utility.yul\":7751:7825   */\n      swap2\n      pop\n        /* \"#utility.yul\":7834:7927   */\n      tag_414\n        /* \"#utility.yul\":7923:7926   */\n      dup3\n        /* \"#utility.yul\":7834:7927   */\n      tag_415\n      jump\t// in\n    tag_414:\n        /* \"#utility.yul\":7952:7954   */\n      0x40\n        /* \"#utility.yul\":7947:7950   */\n      dup3\n        /* \"#utility.yul\":7943:7955   */\n      add\n        /* \"#utility.yul\":7936:7955   */\n      swap1\n      pop\n        /* \"#utility.yul\":7595:7961   */\n      swap2\n      swap1\n      pop\n      jump\t// out\n        /* \"#utility.yul\":7967:8333   */\n    tag_416:\n        /* \"#utility.yul\":8109:8112   */\n      0x00\n        /* \"#utility.yul\":8130:8197   */\n      tag_418\n        /* \"#utility.yul\":8194:8196   */\n      0x25\n        /* \"#utility.yul\":8189:8192   */\n      dup4\n        /* \"#utility.yul\":8130:8197   */\n      tag_397\n      jump\t// in\n    tag_418:\n        /* \"#utility.yul\":8123:8197   */\n      swap2\n      pop\n        /* \"#utility.yul\":8206:8299   */\n      tag_419\n        /* \"#utility.yul\":8295:8298   */\n      dup3\n        /* \"#utility.yul\":8206:8299   */\n      tag_420\n      jump\t// in\n    tag_419:\n        /* \"#utility.yul\":8324:8326   */\n      0x40\n        /* \"#utility.yul\":8319:8322   */\n      dup3\n        /* \"#utility.yul\":8315:8327   */\n      add\n        /* \"#utility.yul\":8308:8327   */\n      swap1\n      pop\n        /* \"#utility.yul\":7967:8333   */\n      swap2\n      swap1\n      pop\n      jump\t// out\n        /* \"#utility.yul\":8339:8705   */\n    tag_421:\n        /* \"#utility.yul\":8481:8484   */\n      0x00\n        /* \"#utility.yul\":8502:8569   */\n      tag_423\n        /* \"#utility.yul\":8566:8568   */\n      0x1c\n        /* \"#utility.yul\":8561:8564   */\n      dup4\n        /* \"#utility.yul\":8502:8569   */\n      tag_397\n      jump\t// in\n    tag_423:\n        /* \"#utility.yul\":8495:8569   */\n      swap2\n      pop\n        /* \"#utility.yul\":8578:8671   */\n      tag_424\n        /* \"#utility.yul\":8667:8670   */\n      dup3\n        /* \"#utility.yul\":8578:8671   */\n      tag_425\n      jump\t// in\n    tag_424:\n        /* \"#utility.yul\":8696:8698   */\n      0x20\n        /* \"#utility.yul\":8691:8694   */\n      dup3\n        /* \"#utility.yul\":8687:8699   */\n      add\n        /* \"#utility.yul\":8680:8699   */\n      swap1\n      pop\n        /* \"#utility.yul\":8339:8705   */\n      swap2\n      swap1\n      pop\n      jump\t// out\n        /* \"#utility.yul\":8711:9077   */\n    tag_426:\n        /* \"#utility.yul\":8853:8856   */\n      0x00\n        /* \"#utility.yul\":8874:8941   */\n      tag_428\n        /* \"#utility.yul\":8938:8940   */\n      0x24\n        /* \"#utility.yul\":8933:8936   */\n      dup4\n        /* \"#utility.yul\":8874:8941   */\n      tag_397\n      jump\t// in\n    tag_428:\n        /* \"#utility.yul\":8867:8941   */\n      swap2\n      pop\n        /* \"#utility.yul\":8950:9043   */\n      tag_429\n        /* \"#utility.yul\":9039:9042   */\n      dup3\n        /* \"#utility.yul\":8950:9043   */\n      tag_430\n      jump\t// in\n    tag_429:\n        /* \"#utility.yul\":9068:9070   */\n      0x40\n        /* \"#utility.yul\":9063:9066   */\n      dup3\n        /* \"#utility.yul\":9059:9071   */\n      add\n        /* \"#utility.yul\":9052:9071   */\n      swap1\n      pop\n        /* \"#utility.yul\":8711:9077   */\n      swap2\n      swap1\n      pop\n      jump\t// out\n        /* \"#utility.yul\":9083:9449   */\n    tag_431:\n        /* \"#utility.yul\":9225:9228   */\n      0x00\n        /* \"#utility.yul\":9246:9313   */\n      tag_433\n        /* \"#utility.yul\":9310:9312   */\n      0x19\n        /* \"#utility.yul\":9305:9308   */\n      dup4\n        /* \"#utility.yul\":9246:9313   */\n      tag_397\n      jump\t// in\n    tag_433:\n        /* \"#utility.yul\":9239:9313   */\n      swap2\n      pop\n        /* \"#utility.yul\":9322:9415   */\n      tag_434\n        /* \"#utility.yul\":9411:9414   */\n      dup3\n        /* \"#utility.yul\":9322:9415   */\n      tag_435\n      jump\t// in\n    tag_434:\n        /* \"#utility.yul\":9440:9442   */\n      0x20\n        /* \"#utility.yul\":9435:9438   */\n      dup3\n        /* \"#utility.yul\":9431:9443   */\n      add\n        /* \"#utility.yul\":9424:9443   */\n      swap1\n      pop\n        /* \"#utility.yul\":9083:9449   */\n      swap2\n      swap1\n      pop\n      jump\t// out\n        /* \"#utility.yul\":9455:9821   */\n    tag_436:\n        /* \"#utility.yul\":9597:9600   */\n      0x00\n        /* \"#utility.yul\":9618:9685   */\n      tag_438\n        /* \"#utility.yul\":9682:9684   */\n      0x29\n        /* \"#utility.yul\":9677:9680   */\n      dup4\n        /* \"#utility.yul\":9618:9685   */\n      tag_397\n      jump\t// in\n    tag_438:\n        /* \"#utility.yul\":9611:9685   */\n      swap2\n      pop\n        /* \"#utility.yul\":9694:9787   */\n      tag_439\n        /* \"#utility.yul\":9783:9786   */\n      dup3\n        /* \"#utility.yul\":9694:9787   */\n      tag_440\n      jump\t// in\n    tag_439:\n        /* \"#utility.yul\":9812:9814   */\n      0x40\n        /* \"#utility.yul\":9807:9810   */\n      dup3\n        /* \"#utility.yul\":9803:9815   */\n      add\n        /* \"#utility.yul\":9796:9815   */\n      swap1\n      pop\n        /* \"#utility.yul\":9455:9821   */\n      swap2\n      swap1\n      pop\n      jump\t// out\n        /* \"#utility.yul\":9827:10193   */\n    tag_441:\n        /* \"#utility.yul\":9969:9972   */\n      0x00\n        /* \"#utility.yul\":9990:10057   */\n      tag_443\n        /* \"#utility.yul\":10054:10056   */\n      0x20\n        /* \"#utility.yul\":10049:10052   */\n      dup4\n        /* \"#utility.yul\":9990:10057   */\n      tag_397\n      jump\t// in\n    tag_443:\n        /* \"#utility.yul\":9983:10057   */\n      swap2\n      pop\n        /* \"#utility.yul\":10066:10159   */\n      tag_444\n        /* \"#utility.yul\":10155:10158   */\n      dup3\n        /* \"#utility.yul\":10066:10159   */\n      tag_445\n      jump\t// in\n    tag_444:\n        /* \"#utility.yul\":10184:10186   */\n      0x20\n        /* \"#utility.yul\":10179:10182   */\n      dup3\n        /* \"#utility.yul\":10175:10187   */\n      add\n        /* \"#utility.yul\":10168:10187   */\n      swap1\n      pop\n        /* \"#utility.yul\":9827:10193   */\n      swap2\n      swap1\n      pop\n      jump\t// out\n        /* \"#utility.yul\":10199:10565   */\n    tag_446:\n        /* \"#utility.yul\":10341:10344   */\n      0x00\n        /* \"#utility.yul\":10362:10429   */\n      tag_448\n        /* \"#utility.yul\":10426:10428   */\n      0x18\n        /* \"#utility.yul\":10421:10424   */\n      dup4\n        /* \"#utility.yul\":10362:10429   */\n      tag_397\n      jump\t// in\n    tag_448:\n        /* \"#utility.yul\":10355:10429   */\n      swap2\n      pop\n        /* \"#utility.yul\":10438:10531   */\n      tag_449\n        /* \"#utility.yul\":10527:10530   */\n      dup3\n        /* \"#utility.yul\":10438:10531   */\n      tag_450\n      jump\t// in\n    tag_449:\n        /* \"#utility.yul\":10556:10558   */\n      0x20\n        /* \"#utility.yul\":10551:10554   */\n      dup3\n        /* \"#utility.yul\":10547:10559   */\n      add\n        /* \"#utility.yul\":10540:10559   */\n      swap1\n      pop\n        /* \"#utility.yul\":10199:10565   */\n      swap2\n      swap1\n      pop\n      jump\t// out\n        /* \"#utility.yul\":10571:10937   */\n    tag_451:\n        /* \"#utility.yul\":10713:10716   */\n      0x00\n        /* \"#utility.yul\":10734:10801   */\n      tag_453\n        /* \"#utility.yul\":10798:10800   */\n      0x21\n        /* \"#utility.yul\":10793:10796   */\n      dup4\n        /* \"#utility.yul\":10734:10801   */\n      tag_397\n      jump\t// in\n    tag_453:\n        /* \"#utility.yul\":10727:10801   */\n      swap2\n      pop\n        /* \"#utility.yul\":10810:10903   */\n      tag_454\n        /* \"#utility.yul\":10899:10902   */\n      dup3\n        /* \"#utility.yul\":10810:10903   */\n      tag_455\n      jump\t// in\n    tag_454:\n        /* \"#utility.yul\":10928:10930   */\n      0x40\n        /* \"#utility.yul\":10923:10926   */\n      dup3\n        /* \"#utility.yul\":10919:10931   */\n      add\n        /* \"#utility.yul\":10912:10931   */\n      swap1\n      pop\n        /* \"#utility.yul\":10571:10937   */\n      swap2\n      swap1\n      pop\n      jump\t// out\n        /* \"#utility.yul\":10943:11309   */\n    tag_456:\n        /* \"#utility.yul\":11085:11088   */\n      0x00\n        /* \"#utility.yul\":11106:11173   */\n      tag_458\n        /* \"#utility.yul\":11170:11172   */\n      0x3d\n        /* \"#utility.yul\":11165:11168   */\n      dup4\n        /* \"#utility.yul\":11106:11173   */\n      tag_397\n      jump\t// in\n    tag_458:\n        /* \"#utility.yul\":11099:11173   */\n      swap2\n      pop\n        /* \"#utility.yul\":11182:11275   */\n      tag_459\n        /* \"#utility.yul\":11271:11274   */\n      dup3\n        /* \"#utility.yul\":11182:11275   */\n      tag_460\n      jump\t// in\n    tag_459:\n        /* \"#utility.yul\":11300:11302   */\n      0x40\n        /* \"#utility.yul\":11295:11298   */\n      dup3\n        /* \"#utility.yul\":11291:11303   */\n      add\n        /* \"#utility.yul\":11284:11303   */\n      swap1\n      pop\n        /* \"#utility.yul\":10943:11309   */\n      swap2\n      swap1\n      pop\n      jump\t// out\n        /* \"#utility.yul\":11315:11433   */\n    tag_461:\n        /* \"#utility.yul\":11402:11426   */\n      tag_463\n        /* \"#utility.yul\":11420:11425   */\n      dup2\n        /* \"#utility.yul\":11402:11426   */\n      tag_464\n      jump\t// in\n    tag_463:\n        /* \"#utility.yul\":11397:11400   */\n      dup3\n        /* \"#utility.yul\":11390:11427   */\n      mstore\n        /* \"#utility.yul\":11315:11433   */\n      pop\n      pop\n      jump\t// out\n        /* \"#utility.yul\":11439:11874   */\n    tag_173:\n        /* \"#utility.yul\":11619:11622   */\n      0x00\n        /* \"#utility.yul\":11641:11736   */\n      tag_466\n        /* \"#utility.yul\":11732:11735   */\n      dup3\n        /* \"#utility.yul\":11723:11729   */\n      dup6\n        /* \"#utility.yul\":11641:11736   */\n      tag_400\n      jump\t// in\n    tag_466:\n        /* \"#utility.yul\":11634:11736   */\n      swap2\n      pop\n        /* \"#utility.yul\":11753:11848   */\n      tag_467\n        /* \"#utility.yul\":11844:11847   */\n      dup3\n        /* \"#utility.yul\":11835:11841   */\n      dup5\n        /* \"#utility.yul\":11753:11848   */\n      tag_400\n      jump\t// in\n    tag_467:\n        /* \"#utility.yul\":11746:11848   */\n      swap2\n      pop\n        /* \"#utility.yul\":11865:11868   */\n      dup2\n        /* \"#utility.yul\":11858:11868   */\n      swap1\n      pop\n        /* \"#utility.yul\":11439:11874   */\n      swap4\n      swap3\n      pop\n      pop\n      pop\n      jump\t// out\n        /* \"#utility.yul\":11880:12102   */\n    tag_36:\n        /* \"#utility.yul\":11973:11977   */\n      0x00\n        /* \"#utility.yul\":12011:12013   */\n      0x20\n        /* \"#utility.yul\":12000:12009   */\n      dup3\n        /* \"#utility.yul\":11996:12014   */\n      add\n        /* \"#utility.yul\":11988:12014   */\n      swap1\n      pop\n        /* \"#utility.yul\":12024:12095   */\n      tag_469\n        /* \"#utility.yul\":12092:12093   */\n      0x00\n        /* \"#utility.yul\":12081:12090   */\n      dup4\n        /* \"#utility.yul\":12077:12094   */\n      add\n        /* \"#utility.yul\":12068:12074   */\n      dup5\n        /* \"#utility.yul\":12024:12095   */\n      tag_374\n      jump\t// in\n    tag_469:\n        /* \"#utility.yul\":11880:12102   */\n      swap3\n      swap2\n      pop\n      pop\n      jump\t// out\n        /* \"#utility.yul\":12108:12748   */\n    tag_272:\n        /* \"#utility.yul\":12303:12307   */\n      0x00\n        /* \"#utility.yul\":12341:12344   */\n      0x80\n        /* \"#utility.yul\":12330:12339   */\n      dup3\n        /* \"#utility.yul\":12326:12345   */\n      add\n        /* \"#utility.yul\":12318:12345   */\n      swap1\n      pop\n        /* \"#utility.yul\":12355:12426   */\n      tag_471\n        /* \"#utility.yul\":12423:12424   */\n      0x00\n        /* \"#utility.yul\":12412:12421   */\n      dup4\n        /* \"#utility.yul\":12408:12425   */\n      add\n        /* \"#utility.yul\":12399:12405   */\n      dup8\n        /* \"#utility.yul\":12355:12426   */\n      tag_374\n      jump\t// in\n    tag_471:\n        /* \"#utility.yul\":12436:12508   */\n      tag_472\n        /* \"#utility.yul\":12504:12506   */\n      0x20\n        /* \"#utility.yul\":12493:12502   */\n      dup4\n        /* \"#utility.yul\":12489:12507   */\n      add\n        /* \"#utility.yul\":12480:12486   */\n      dup7\n        /* \"#utility.yul\":12436:12508   */\n      tag_374\n      jump\t// in\n    tag_472:\n        /* \"#utility.yul\":12518:12590   */\n      tag_473\n        /* \"#utility.yul\":12586:12588   */\n      0x40\n        /* \"#utility.yul\":12575:12584   */\n      dup4\n        /* \"#utility.yul\":12571:12589   */\n      add\n        /* \"#utility.yul\":12562:12568   */\n      dup6\n        /* \"#utility.yul\":12518:12590   */\n      tag_461\n      jump\t// in\n    tag_473:\n        /* \"#utility.yul\":12637:12646   */\n      dup2\n        /* \"#utility.yul\":12631:12635   */\n      dup2\n        /* \"#utility.yul\":12627:12647   */\n      sub\n        /* \"#utility.yul\":12622:12624   */\n      0x60\n        /* \"#utility.yul\":12611:12620   */\n      dup4\n        /* \"#utility.yul\":12607:12625   */\n      add\n        /* \"#utility.yul\":12600:12648   */\n      mstore\n        /* \"#utility.yul\":12665:12741   */\n      tag_474\n        /* \"#utility.yul\":12736:12740   */\n      dup2\n        /* \"#utility.yul\":12727:12733   */\n      dup5\n        /* \"#utility.yul\":12665:12741   */\n      tag_382\n      jump\t// in\n    tag_474:\n        /* \"#utility.yul\":12657:12741   */\n      swap1\n      pop\n        /* \"#utility.yul\":12108:12748   */\n      swap6\n      swap5\n      pop\n      pop\n      pop\n      pop\n      pop\n      jump\t// out\n        /* \"#utility.yul\":12754:12964   */\n    tag_26:\n        /* \"#utility.yul\":12841:12845   */\n      0x00\n        /* \"#utility.yul\":12879:12881   */\n      0x20\n        /* \"#utility.yul\":12868:12877   */\n      dup3\n        /* \"#utility.yul\":12864:12882   */\n      add\n        /* \"#utility.yul\":12856:12882   */\n      swap1\n      pop\n        /* \"#utility.yul\":12892:12957   */\n      tag_476\n        /* \"#utility.yul\":12954:12955   */\n      0x00\n        /* \"#utility.yul\":12943:12952   */\n      dup4\n        /* \"#utility.yul\":12939:12956   */\n      add\n        /* \"#utility.yul\":12930:12936   */\n      dup5\n        /* \"#utility.yul\":12892:12957   */\n      tag_378\n      jump\t// in\n    tag_476:\n        /* \"#utility.yul\":12754:12964   */\n      swap3\n      swap2\n      pop\n      pop\n      jump\t// out\n        /* \"#utility.yul\":12970:13283   */\n    tag_30:\n        /* \"#utility.yul\":13083:13087   */\n      0x00\n        /* \"#utility.yul\":13121:13123   */\n      0x20\n        /* \"#utility.yul\":13110:13119   */\n      dup3\n        /* \"#utility.yul\":13106:13124   */\n      add\n        /* \"#utility.yul\":13098:13124   */\n      swap1\n      pop\n        /* \"#utility.yul\":13170:13179   */\n      dup2\n        /* \"#utility.yul\":13164:13168   */\n      dup2\n        /* \"#utility.yul\":13160:13180   */\n      sub\n        /* \"#utility.yul\":13156:13157   */\n      0x00\n        /* \"#utility.yul\":13145:13154   */\n      dup4\n        /* \"#utility.yul\":13141:13158   */\n      add\n        /* \"#utility.yul\":13134:13181   */\n      mstore\n        /* \"#utility.yul\":13198:13276   */\n      tag_478\n        /* \"#utility.yul\":13271:13275   */\n      dup2\n        /* \"#utility.yul\":13262:13268   */\n      dup5\n        /* \"#utility.yul\":13198:13276   */\n      tag_392\n      jump\t// in\n    tag_478:\n        /* \"#utility.yul\":13190:13276   */\n      swap1\n      pop\n        /* \"#utility.yul\":12970:13283   */\n      swap3\n      swap2\n      pop\n      pop\n      jump\t// out\n        /* \"#utility.yul\":13289:13708   */\n    tag_121:\n        /* \"#utility.yul\":13455:13459   */\n      0x00\n        /* \"#utility.yul\":13493:13495   */\n      0x20\n        /* \"#utility.yul\":13482:13491   */\n      dup3\n        /* \"#utility.yul\":13478:13496   */\n      add\n        /* \"#utility.yul\":13470:13496   */\n      swap1\n      pop\n        /* \"#utility.yul\":13542:13551   */\n      dup2\n        /* \"#utility.yul\":13536:13540   */\n      dup2\n        /* \"#utility.yul\":13532:13552   */\n      sub\n        /* \"#utility.yul\":13528:13529   */\n      0x00\n        /* \"#utility.yul\":13517:13526   */\n      dup4\n        /* \"#utility.yul\":13513:13530   */\n      add\n        /* \"#utility.yul\":13506:13553   */\n      mstore\n        /* \"#utility.yul\":13570:13701   */\n      tag_480\n        /* \"#utility.yul\":13696:13700   */\n      dup2\n        /* \"#utility.yul\":13570:13701   */\n      tag_406\n      jump\t// in\n    tag_480:\n        /* \"#utility.yul\":13562:13701   */\n      swap1\n      pop\n        /* \"#utility.yul\":13289:13708   */\n      swap2\n      swap1\n      pop\n      jump\t// out\n        /* \"#utility.yul\":13714:14133   */\n    tag_232:\n        /* \"#utility.yul\":13880:13884   */\n      0x00\n        /* \"#utility.yul\":13918:13920   */\n      0x20\n        /* \"#utility.yul\":13907:13916   */\n      dup3\n        /* \"#utility.yul\":13903:13921   */\n      add\n        /* \"#utility.yul\":13895:13921   */\n      swap1\n      pop\n        /* \"#utility.yul\":13967:13976   */\n      dup2\n        /* \"#utility.yul\":13961:13965   */\n      dup2\n        /* \"#utility.yul\":13957:13977   */\n      sub\n        /* \"#utility.yul\":13953:13954   */\n      0x00\n        /* \"#utility.yul\":13942:13951   */\n      dup4\n        /* \"#utility.yul\":13938:13955   */\n      add\n        /* \"#utility.yul\":13931:13978   */\n      mstore\n        /* \"#utility.yul\":13995:14126   */\n      tag_482\n        /* \"#utility.yul\":14121:14125   */\n      dup2\n        /* \"#utility.yul\":13995:14126   */\n      tag_411\n      jump\t// in\n    tag_482:\n        /* \"#utility.yul\":13987:14126   */\n      swap1\n      pop\n        /* \"#utility.yul\":13714:14133   */\n      swap2\n      swap1\n      pop\n      jump\t// out\n        /* \"#utility.yul\":14139:14558   */\n    tag_194:\n        /* \"#utility.yul\":14305:14309   */\n      0x00\n        /* \"#utility.yul\":14343:14345   */\n      0x20\n        /* \"#utility.yul\":14332:14341   */\n      dup3\n        /* \"#utility.yul\":14328:14346   */\n      add\n        /* \"#utility.yul\":14320:14346   */\n      swap1\n      pop\n        /* \"#utility.yul\":14392:14401   */\n      dup2\n        /* \"#utility.yul\":14386:14390   */\n      dup2\n        /* \"#utility.yul\":14382:14402   */\n      sub\n        /* \"#utility.yul\":14378:14379   */\n      0x00\n        /* \"#utility.yul\":14367:14376   */\n      dup4\n        /* \"#utility.yul\":14363:14380   */\n      add\n        /* \"#utility.yul\":14356:14403   */\n      mstore\n        /* \"#utility.yul\":14420:14551   */\n      tag_484\n        /* \"#utility.yul\":14546:14550   */\n      dup2\n        /* \"#utility.yul\":14420:14551   */\n      tag_416\n      jump\t// in\n    tag_484:\n        /* \"#utility.yul\":14412:14551   */\n      swap1\n      pop\n        /* \"#utility.yul\":14139:14558   */\n      swap2\n      swap1\n      pop\n      jump\t// out\n        /* \"#utility.yul\":14564:14983   */\n    tag_214:\n        /* \"#utility.yul\":14730:14734   */\n      0x00\n        /* \"#utility.yul\":14768:14770   */\n      0x20\n        /* \"#utility.yul\":14757:14766   */\n      dup3\n        /* \"#utility.yul\":14753:14771   */\n      add\n        /* \"#utility.yul\":14745:14771   */\n      swap1\n      pop\n        /* \"#utility.yul\":14817:14826   */\n      dup2\n        /* \"#utility.yul\":14811:14815   */\n      dup2\n        /* \"#utility.yul\":14807:14827   */\n      sub\n        /* \"#utility.yul\":14803:14804   */\n      0x00\n        /* \"#utility.yul\":14792:14801   */\n      dup4\n        /* \"#utility.yul\":14788:14805   */\n      add\n        /* \"#utility.yul\":14781:14828   */\n      mstore\n        /* \"#utility.yul\":14845:14976   */\n      tag_486\n        /* \"#utility.yul\":14971:14975   */\n      dup2\n        /* \"#utility.yul\":14845:14976   */\n      tag_421\n      jump\t// in\n    tag_486:\n        /* \"#utility.yul\":14837:14976   */\n      swap1\n      pop\n        /* \"#utility.yul\":14564:14983   */\n      swap2\n      swap1\n      pop\n      jump\t// out\n        /* \"#utility.yul\":14989:15408   */\n    tag_197:\n        /* \"#utility.yul\":15155:15159   */\n      0x00\n        /* \"#utility.yul\":15193:15195   */\n      0x20\n        /* \"#utility.yul\":15182:15191   */\n      dup3\n        /* \"#utility.yul\":15178:15196   */\n      add\n        /* \"#utility.yul\":15170:15196   */\n      swap1\n      pop\n        /* \"#utility.yul\":15242:15251   */\n      dup2\n        /* \"#utility.yul\":15236:15240   */\n      dup2\n        /* \"#utility.yul\":15232:15252   */\n      sub\n        /* \"#utility.yul\":15228:15229   */\n      0x00\n        /* \"#utility.yul\":15217:15226   */\n      dup4\n        /* \"#utility.yul\":15213:15230   */\n      add\n        /* \"#utility.yul\":15206:15253   */\n      mstore\n        /* \"#utility.yul\":15270:15401   */\n      tag_488\n        /* \"#utility.yul\":15396:15400   */\n      dup2\n        /* \"#utility.yul\":15270:15401   */\n      tag_426\n      jump\t// in\n    tag_488:\n        /* \"#utility.yul\":15262:15401   */\n      swap1\n      pop\n        /* \"#utility.yul\":14989:15408   */\n      swap2\n      swap1\n      pop\n      jump\t// out\n        /* \"#utility.yul\":15414:15833   */\n    tag_224:\n        /* \"#utility.yul\":15580:15584   */\n      0x00\n        /* \"#utility.yul\":15618:15620   */\n      0x20\n        /* \"#utility.yul\":15607:15616   */\n      dup3\n        /* \"#utility.yul\":15603:15621   */\n      add\n        /* \"#utility.yul\":15595:15621   */\n      swap1\n      pop\n        /* \"#utility.yul\":15667:15676   */\n      dup2\n        /* \"#utility.yul\":15661:15665   */\n      dup2\n        /* \"#utility.yul\":15657:15677   */\n      sub\n        /* \"#utility.yul\":15653:15654   */\n      0x00\n        /* \"#utility.yul\":15642:15651   */\n      dup4\n        /* \"#utility.yul\":15638:15655   */\n      add\n        /* \"#utility.yul\":15631:15678   */\n      mstore\n        /* \"#utility.yul\":15695:15826   */\n      tag_490\n        /* \"#utility.yul\":15821:15825   */\n      dup2\n        /* \"#utility.yul\":15695:15826   */\n      tag_431\n      jump\t// in\n    tag_490:\n        /* \"#utility.yul\":15687:15826   */\n      swap1\n      pop\n        /* \"#utility.yul\":15414:15833   */\n      swap2\n      swap1\n      pop\n      jump\t// out\n        /* \"#utility.yul\":15839:16258   */\n    tag_146:\n        /* \"#utility.yul\":16005:16009   */\n      0x00\n        /* \"#utility.yul\":16043:16045   */\n      0x20\n        /* \"#utility.yul\":16032:16041   */\n      dup3\n        /* \"#utility.yul\":16028:16046   */\n      add\n        /* \"#utility.yul\":16020:16046   */\n      swap1\n      pop\n        /* \"#utility.yul\":16092:16101   */\n      dup2\n        /* \"#utility.yul\":16086:16090   */\n      dup2\n        /* \"#utility.yul\":16082:16102   */\n      sub\n        /* \"#utility.yul\":16078:16079   */\n      0x00\n        /* \"#utility.yul\":16067:16076   */\n      dup4\n        /* \"#utility.yul\":16063:16080   */\n      add\n        /* \"#utility.yul\":16056:16103   */\n      mstore\n        /* \"#utility.yul\":16120:16251   */\n      tag_492\n        /* \"#utility.yul\":16246:16250   */\n      dup2\n        /* \"#utility.yul\":16120:16251   */\n      tag_436\n      jump\t// in\n    tag_492:\n        /* \"#utility.yul\":16112:16251   */\n      swap1\n      pop\n        /* \"#utility.yul\":15839:16258   */\n      swap2\n      swap1\n      pop\n      jump\t// out\n        /* \"#utility.yul\":16264:16683   */\n    tag_210:\n        /* \"#utility.yul\":16430:16434   */\n      0x00\n        /* \"#utility.yul\":16468:16470   */\n      0x20\n        /* \"#utility.yul\":16457:16466   */\n      dup3\n        /* \"#utility.yul\":16453:16471   */\n      add\n        /* \"#utility.yul\":16445:16471   */\n      swap1\n      pop\n        /* \"#utility.yul\":16517:16526   */\n      dup2\n        /* \"#utility.yul\":16511:16515   */\n      dup2\n        /* \"#utility.yul\":16507:16527   */\n      sub\n        /* \"#utility.yul\":16503:16504   */\n      0x00\n        /* \"#utility.yul\":16492:16501   */\n      dup4\n        /* \"#utility.yul\":16488:16505   */\n      add\n        /* \"#utility.yul\":16481:16528   */\n      mstore\n        /* \"#utility.yul\":16545:16676   */\n      tag_494\n        /* \"#utility.yul\":16671:16675   */\n      dup2\n        /* \"#utility.yul\":16545:16676   */\n      tag_441\n      jump\t// in\n    tag_494:\n        /* \"#utility.yul\":16537:16676   */\n      swap1\n      pop\n        /* \"#utility.yul\":16264:16683   */\n      swap2\n      swap1\n      pop\n      jump\t// out\n        /* \"#utility.yul\":16689:17108   */\n    tag_135:\n        /* \"#utility.yul\":16855:16859   */\n      0x00\n        /* \"#utility.yul\":16893:16895   */\n      0x20\n        /* \"#utility.yul\":16882:16891   */\n      dup3\n        /* \"#utility.yul\":16878:16896   */\n      add\n        /* \"#utility.yul\":16870:16896   */\n      swap1\n      pop\n        /* \"#utility.yul\":16942:16951   */\n      dup2\n        /* \"#utility.yul\":16936:16940   */\n      dup2\n        /* \"#utility.yul\":16932:16952   */\n      sub\n        /* \"#utility.yul\":16928:16929   */\n      0x00\n        /* \"#utility.yul\":16917:16926   */\n      dup4\n        /* \"#utility.yul\":16913:16930   */\n      add\n        /* \"#utility.yul\":16906:16953   */\n      mstore\n        /* \"#utility.yul\":16970:17101   */\n      tag_496\n        /* \"#utility.yul\":17096:17100   */\n      dup2\n        /* \"#utility.yul\":16970:17101   */\n      tag_446\n      jump\t// in\n    tag_496:\n        /* \"#utility.yul\":16962:17101   */\n      swap1\n      pop\n        /* \"#utility.yul\":16689:17108   */\n      swap2\n      swap1\n      pop\n      jump\t// out\n        /* \"#utility.yul\":17114:17533   */\n    tag_104:\n        /* \"#utility.yul\":17280:17284   */\n      0x00\n        /* \"#utility.yul\":17318:17320   */\n      0x20\n        /* \"#utility.yul\":17307:17316   */\n      dup3\n        /* \"#utility.yul\":17303:17321   */\n      add\n        /* \"#utility.yul\":17295:17321   */\n      swap1\n      pop\n        /* \"#utility.yul\":17367:17376   */\n      dup2\n        /* \"#utility.yul\":17361:17365   */\n      dup2\n        /* \"#utility.yul\":17357:17377   */\n      sub\n        /* \"#utility.yul\":17353:17354   */\n      0x00\n        /* \"#utility.yul\":17342:17351   */\n      dup4\n        /* \"#utility.yul\":17338:17355   */\n      add\n        /* \"#utility.yul\":17331:17378   */\n      mstore\n        /* \"#utility.yul\":17395:17526   */\n      tag_498\n        /* \"#utility.yul\":17521:17525   */\n      dup2\n        /* \"#utility.yul\":17395:17526   */\n      tag_451\n      jump\t// in\n    tag_498:\n        /* \"#utility.yul\":17387:17526   */\n      swap1\n      pop\n        /* \"#utility.yul\":17114:17533   */\n      swap2\n      swap1\n      pop\n      jump\t// out\n        /* \"#utility.yul\":17539:17958   */\n    tag_112:\n        /* \"#utility.yul\":17705:17709   */\n      0x00\n        /* \"#utility.yul\":17743:17745   */\n      0x20\n        /* \"#utility.yul\":17732:17741   */\n      dup3\n        /* \"#utility.yul\":17728:17746   */\n      add\n        /* \"#utility.yul\":17720:17746   */\n      swap1\n      pop\n        /* \"#utility.yul\":17792:17801   */\n      dup2\n        /* \"#utility.yul\":17786:17790   */\n      dup2\n        /* \"#utility.yul\":17782:17802   */\n      sub\n        /* \"#utility.yul\":17778:17779   */\n      0x00\n        /* \"#utility.yul\":17767:17776   */\n      dup4\n        /* \"#utility.yul\":17763:17780   */\n      add\n        /* \"#utility.yul\":17756:17803   */\n      mstore\n        /* \"#utility.yul\":17820:17951   */\n      tag_500\n        /* \"#utility.yul\":17946:17950   */\n      dup2\n        /* \"#utility.yul\":17820:17951   */\n      tag_456\n      jump\t// in\n    tag_500:\n        /* \"#utility.yul\":17812:17951   */\n      swap1\n      pop\n        /* \"#utility.yul\":17539:17958   */\n      swap2\n      swap1\n      pop\n      jump\t// out\n        /* \"#utility.yul\":17964:18186   */\n    tag_60:\n        /* \"#utility.yul\":18057:18061   */\n      0x00\n        /* \"#utility.yul\":18095:18097   */\n      0x20\n        /* \"#utility.yul\":18084:18093   */\n      dup3\n        /* \"#utility.yul\":18080:18098   */\n      add\n        /* \"#utility.yul\":18072:18098   */\n      swap1\n      pop\n        /* \"#utility.yul\":18108:18179   */\n      tag_502\n        /* \"#utility.yul\":18176:18177   */\n      0x00\n        /* \"#utility.yul\":18165:18174   */\n      dup4\n        /* \"#utility.yul\":18161:18178   */\n      add\n        /* \"#utility.yul\":18152:18158   */\n      dup5\n        /* \"#utility.yul\":18108:18179   */\n      tag_461\n      jump\t// in\n    tag_502:\n        /* \"#utility.yul\":17964:18186   */\n      swap3\n      swap2\n      pop\n      pop\n      jump\t// out\n        /* \"#utility.yul\":18192:18321   */\n    tag_295:\n        /* \"#utility.yul\":18226:18232   */\n      0x00\n        /* \"#utility.yul\":18253:18273   */\n      tag_504\n      tag_505\n      jump\t// in\n    tag_504:\n        /* \"#utility.yul\":18243:18273   */\n      swap1\n      pop\n        /* \"#utility.yul\":18282:18315   */\n      tag_506\n        /* \"#utility.yul\":18310:18314   */\n      dup3\n        /* \"#utility.yul\":18302:18308   */\n      dup3\n        /* \"#utility.yul\":18282:18315   */\n      tag_507\n      jump\t// in\n    tag_506:\n        /* \"#utility.yul\":18192:18321   */\n      swap2\n      swap1\n      pop\n      jump\t// out\n        /* \"#utility.yul\":18327:18402   */\n    tag_505:\n        /* \"#utility.yul\":18360:18366   */\n      0x00\n        /* \"#utility.yul\":18393:18395   */\n      0x40\n        /* \"#utility.yul\":18387:18396   */\n      mload\n        /* \"#utility.yul\":18377:18396   */\n      swap1\n      pop\n        /* \"#utility.yul\":18327:18402   */\n      swap1\n      jump\t// out\n        /* \"#utility.yul\":18408:18715   */\n    tag_294:\n        /* \"#utility.yul\":18469:18473   */\n      0x00\n        /* \"#utility.yul\":18559:18577   */\n      0xffffffffffffffff\n        /* \"#utility.yul\":18551:18557   */\n      dup3\n        /* \"#utility.yul\":18548:18578   */\n      gt\n        /* \"#utility.yul\":18545:18601   */\n      iszero\n      tag_510\n      jumpi\n        /* \"#utility.yul\":18581:18599   */\n      tag_511\n      tag_244\n      jump\t// in\n    tag_511:\n        /* \"#utility.yul\":18545:18601   */\n    tag_510:\n        /* \"#utility.yul\":18619:18648   */\n      tag_512\n        /* \"#utility.yul\":18641:18647   */\n      dup3\n        /* \"#utility.yul\":18619:18648   */\n      tag_391\n      jump\t// in\n    tag_512:\n        /* \"#utility.yul\":18611:18648   */\n      swap1\n      pop\n        /* \"#utility.yul\":18703:18707   */\n      0x20\n        /* \"#utility.yul\":18697:18701   */\n      dup2\n        /* \"#utility.yul\":18693:18708   */\n      add\n        /* \"#utility.yul\":18685:18708   */\n      swap1\n      pop\n        /* \"#utility.yul\":18408:18715   */\n      swap2\n      swap1\n      pop\n      jump\t// out\n        /* \"#utility.yul\":18721:18819   */\n    tag_385:\n        /* \"#utility.yul\":18772:18778   */\n      0x00\n        /* \"#utility.yul\":18806:18811   */\n      dup2\n        /* \"#utility.yul\":18800:18812   */\n      mload\n        /* \"#utility.yul\":18790:18812   */\n      swap1\n      pop\n        /* \"#utility.yul\":18721:18819   */\n      swap2\n      swap1\n      pop\n      jump\t// out\n        /* \"#utility.yul\":18825:18924   */\n    tag_395:\n        /* \"#utility.yul\":18877:18883   */\n      0x00\n        /* \"#utility.yul\":18911:18916   */\n      dup2\n        /* \"#utility.yul\":18905:18917   */\n      mload\n        /* \"#utility.yul\":18895:18917   */\n      swap1\n      pop\n        /* \"#utility.yul\":18825:18924   */\n      swap2\n      swap1\n      pop\n      jump\t// out\n        /* \"#utility.yul\":18930:19098   */\n    tag_387:\n        /* \"#utility.yul\":19013:19024   */\n      0x00\n        /* \"#utility.yul\":19047:19053   */\n      dup3\n        /* \"#utility.yul\":19042:19045   */\n      dup3\n        /* \"#utility.yul\":19035:19054   */\n      mstore\n        /* \"#utility.yul\":19087:19091   */\n      0x20\n        /* \"#utility.yul\":19082:19085   */\n      dup3\n        /* \"#utility.yul\":19078:19092   */\n      add\n        /* \"#utility.yul\":19063:19092   */\n      swap1\n      pop\n        /* \"#utility.yul\":18930:19098   */\n      swap3\n      swap2\n      pop\n      pop\n      jump\t// out\n        /* \"#utility.yul\":19104:19273   */\n    tag_397:\n        /* \"#utility.yul\":19188:19199   */\n      0x00\n        /* \"#utility.yul\":19222:19228   */\n      dup3\n        /* \"#utility.yul\":19217:19220   */\n      dup3\n        /* \"#utility.yul\":19210:19229   */\n      mstore\n        /* \"#utility.yul\":19262:19266   */\n      0x20\n        /* \"#utility.yul\":19257:19260   */\n      dup3\n        /* \"#utility.yul\":19253:19267   */\n      add\n        /* \"#utility.yul\":19238:19267   */\n      swap1\n      pop\n        /* \"#utility.yul\":19104:19273   */\n      swap3\n      swap2\n      pop\n      pop\n      jump\t// out\n        /* \"#utility.yul\":19279:19427   */\n    tag_404:\n        /* \"#utility.yul\":19381:19392   */\n      0x00\n        /* \"#utility.yul\":19418:19421   */\n      dup2\n        /* \"#utility.yul\":19403:19421   */\n      swap1\n      pop\n        /* \"#utility.yul\":19279:19427   */\n      swap3\n      swap2\n      pop\n      pop\n      jump\t// out\n        /* \"#utility.yul\":19433:19738   */\n    tag_252:\n        /* \"#utility.yul\":19473:19476   */\n      0x00\n        /* \"#utility.yul\":19492:19512   */\n      tag_519\n        /* \"#utility.yul\":19510:19511   */\n      dup3\n        /* \"#utility.yul\":19492:19512   */\n      tag_464\n      jump\t// in\n    tag_519:\n        /* \"#utility.yul\":19487:19512   */\n      swap2\n      pop\n        /* \"#utility.yul\":19526:19546   */\n      tag_520\n        /* \"#utility.yul\":19544:19545   */\n      dup4\n        /* \"#utility.yul\":19526:19546   */\n      tag_464\n      jump\t// in\n    tag_520:\n        /* \"#utility.yul\":19521:19546   */\n      swap3\n      pop\n        /* \"#utility.yul\":19680:19681   */\n      dup3\n        /* \"#utility.yul\":19612:19678   */\n      0xffffffffffffffffffffffffffffffffffffffffffffffffffffffffffffffff\n        /* \"#utility.yul\":19608:19682   */\n      sub\n        /* \"#utility.yul\":19605:19606   */\n      dup3\n        /* \"#utility.yul\":19602:19683   */\n      gt\n        /* \"#utility.yul\":19599:19706   */\n      iszero\n      tag_521\n      jumpi\n        /* \"#utility.yul\":19686:19704   */\n      tag_522\n      tag_523\n      jump\t// in\n    tag_522:\n        /* \"#utility.yul\":19599:19706   */\n    tag_521:\n        /* \"#utility.yul\":19730:19731   */\n      dup3\n        /* \"#utility.yul\":19727:19728   */\n      dup3\n        /* \"#utility.yul\":19723:19732   */\n      add\n        /* \"#utility.yul\":19716:19732   */\n      swap1\n      pop\n        /* \"#utility.yul\":19433:19738   */\n      swap3\n      swap2\n      pop\n      pop\n      jump\t// out\n        /* \"#utility.yul\":19744:19929   */\n    tag_241:\n        /* \"#utility.yul\":19784:19785   */\n      0x00\n        /* \"#utility.yul\":19801:19821   */\n      tag_525\n        /* \"#utility.yul\":19819:19820   */\n      dup3\n        /* \"#utility.yul\":19801:19821   */\n      tag_464\n      jump\t// in\n    tag_525:\n        /* \"#utility.yul\":19796:19821   */\n      swap2\n      pop\n        /* \"#utility.yul\":19835:19855   */\n      tag_526\n        /* \"#utility.yul\":19853:19854   */\n      dup4\n        /* \"#utility.yul\":19835:19855   */\n      tag_464\n      jump\t// in\n    tag_526:\n        /* \"#utility.yul\":19830:19855   */\n      swap3\n      pop\n        /* \"#utility.yul\":19874:19875   */\n      dup3\n        /* \"#utility.yul\":19864:19899   */\n      tag_527\n      jumpi\n        /* \"#utility.yul\":19879:19897   */\n      tag_528\n      tag_529\n      jump\t// in\n    tag_528:\n        /* \"#utility.yul\":19864:19899   */\n    tag_527:\n        /* \"#utility.yul\":19921:19922   */\n      dup3\n        /* \"#utility.yul\":19918:19919   */\n      dup3\n        /* \"#utility.yul\":19914:19923   */\n      div\n        /* \"#utility.yul\":19909:19923   */\n      swap1\n      pop\n        /* \"#utility.yul\":19744:19929   */\n      swap3\n      swap2\n      pop\n      pop\n      jump\t// out\n        /* \"#utility.yul\":19935:20126   */\n    tag_129:\n        /* \"#utility.yul\":19975:19979   */\n      0x00\n        /* \"#utility.yul\":19995:20015   */\n      tag_531\n        /* \"#utility.yul\":20013:20014   */\n      dup3\n        /* \"#utility.yul\":19995:20015   */\n      tag_464\n      jump\t// in\n    tag_531:\n        /* \"#utility.yul\":19990:20015   */\n      swap2\n      pop\n        /* \"#utility.yul\":20029:20049   */\n      tag_532\n        /* \"#utility.yul\":20047:20048   */\n      dup4\n        /* \"#utility.yul\":20029:20049   */\n      tag_464\n      jump\t// in\n    tag_532:\n        /* \"#utility.yul\":20024:20049   */\n      swap3\n      pop\n        /* \"#utility.yul\":20068:20069   */\n      dup3\n        /* \"#utility.yul\":20065:20066   */\n      dup3\n        /* \"#utility.yul\":20062:20070   */\n      lt\n        /* \"#utility.yul\":20059:20093   */\n      iszero\n      tag_533\n      jumpi\n        /* \"#utility.yul\":20073:20091   */\n      tag_534\n      tag_523\n      jump\t// in\n    tag_534:\n        /* \"#utility.yul\":20059:20093   */\n    tag_533:\n        /* \"#utility.yul\":20118:20119   */\n      dup3\n        /* \"#utility.yul\":20115:20116   */\n      dup3\n        /* \"#utility.yul\":20111:20120   */\n      sub\n        /* \"#utility.yul\":20103:20120   */\n      swap1\n      pop\n        /* \"#utility.yul\":19935:20126   */\n      swap3\n      swap2\n      pop\n      pop\n      jump\t// out\n        /* \"#utility.yul\":20132:20228   */\n    tag_377:\n        /* \"#utility.yul\":20169:20176   */\n      0x00\n        /* \"#utility.yul\":20198:20222   */\n      tag_536\n        /* \"#utility.yul\":20216:20221   */\n      dup3\n        /* \"#utility.yul\":20198:20222   */\n      tag_537\n      jump\t// in\n    tag_536:\n        /* \"#utility.yul\":20187:20222   */\n      swap1\n      pop\n        /* \"#utility.yul\":20132:20228   */\n      swap2\n      swap1\n      pop\n      jump\t// out\n        /* \"#utility.yul\":20234:20324   */\n    tag_381:\n        /* \"#utility.yul\":20268:20275   */\n      0x00\n        /* \"#utility.yul\":20311:20316   */\n      dup2\n        /* \"#utility.yul\":20304:20317   */\n      iszero\n        /* \"#utility.yul\":20297:20318   */\n      iszero\n        /* \"#utility.yul\":20286:20318   */\n      swap1\n      pop\n        /* \"#utility.yul\":20234:20324   */\n      swap2\n      swap1\n      pop\n      jump\t// out\n        /* \"#utility.yul\":20330:20479   */\n    tag_539:\n        /* \"#utility.yul\":20366:20373   */\n      0x00\n        /* \"#utility.yul\":20406:20472   */\n      0xffffffff00000000000000000000000000000000000000000000000000000000\n        /* \"#utility.yul\":20399:20404   */\n      dup3\n        /* \"#utility.yul\":20395:20473   */\n      and\n        /* \"#utility.yul\":20384:20473   */\n      swap1\n      pop\n        /* \"#utility.yul\":20330:20479   */\n      swap2\n      swap1\n      pop\n      jump\t// out\n        /* \"#utility.yul\":20485:20611   */\n    tag_537:\n        /* \"#utility.yul\":20522:20529   */\n      0x00\n        /* \"#utility.yul\":20562:20604   */\n      0xffffffffffffffffffffffffffffffffffffffff\n        /* \"#utility.yul\":20555:20560   */\n      dup3\n        /* \"#utility.yul\":20551:20605   */\n      and\n        /* \"#utility.yul\":20540:20605   */\n      swap1\n      pop\n        /* \"#utility.yul\":20485:20611   */\n      swap2\n      swap1\n      pop\n      jump\t// out\n        /* \"#utility.yul\":20617:20694   */\n    tag_464:\n        /* \"#utility.yul\":20654:20661   */\n      0x00\n        /* \"#utility.yul\":20683:20688   */\n      dup2\n        /* \"#utility.yul\":20672:20688   */\n      swap1\n      pop\n        /* \"#utility.yul\":20617:20694   */\n      swap2\n      swap1\n      pop\n      jump\t// out\n        /* \"#utility.yul\":20700:20854   */\n    tag_300:\n        /* \"#utility.yul\":20784:20790   */\n      dup3\n        /* \"#utility.yul\":20779:20782   */\n      dup2\n        /* \"#utility.yul\":20774:20777   */\n      dup4\n        /* \"#utility.yul\":20761:20791   */\n      calldatacopy\n        /* \"#utility.yul\":20846:20847   */\n      0x00\n        /* \"#utility.yul\":20837:20843   */\n      dup4\n        /* \"#utility.yul\":20832:20835   */\n      dup4\n        /* \"#utility.yul\":20828:20844   */\n      add\n        /* \"#utility.yul\":20821:20848   */\n      mstore\n        /* \"#utility.yul\":20700:20854   */\n      pop\n      pop\n      pop\n      jump\t// out\n        /* \"#utility.yul\":20860:21167   */\n    tag_389:\n        /* \"#utility.yul\":20928:20929   */\n      0x00\n        /* \"#utility.yul\":20938:21051   */\n    tag_545:\n        /* \"#utility.yul\":20952:20958   */\n      dup4\n        /* \"#utility.yul\":20949:20950   */\n      dup2\n        /* \"#utility.yul\":20946:20959   */\n      lt\n        /* \"#utility.yul\":20938:21051   */\n      iszero\n      tag_547\n      jumpi\n        /* \"#utility.yul\":21037:21038   */\n      dup1\n        /* \"#utility.yul\":21032:21035   */\n      dup3\n        /* \"#utility.yul\":21028:21039   */\n      add\n        /* \"#utility.yul\":21022:21040   */\n      mload\n        /* \"#utility.yul\":21018:21019   */\n      dup2\n        /* \"#utility.yul\":21013:21016   */\n      dup5\n        /* \"#utility.yul\":21009:21020   */\n      add\n        /* \"#utility.yul\":21002:21041   */\n      mstore\n        /* \"#utility.yul\":20974:20976   */\n      0x20\n        /* \"#utility.yul\":20971:20972   */\n      dup2\n        /* \"#utility.yul\":20967:20977   */\n      add\n        /* \"#utility.yul\":20962:20977   */\n      swap1\n      pop\n        /* \"#utility.yul\":20938:21051   */\n      jump(tag_545)\n    tag_547:\n        /* \"#utility.yul\":21069:21075   */\n      dup4\n        /* \"#utility.yul\":21066:21067   */\n      dup2\n        /* \"#utility.yul\":21063:21076   */\n      gt\n        /* \"#utility.yul\":21060:21161   */\n      iszero\n      tag_548\n      jumpi\n        /* \"#utility.yul\":21149:21150   */\n      0x00\n        /* \"#utility.yul\":21140:21146   */\n      dup5\n        /* \"#utility.yul\":21135:21138   */\n      dup5\n        /* \"#utility.yul\":21131:21147   */\n      add\n        /* \"#utility.yul\":21124:21151   */\n      mstore\n        /* \"#utility.yul\":21060:21161   */\n    tag_548:\n        /* \"#utility.yul\":20909:21167   */\n      pop\n        /* \"#utility.yul\":20860:21167   */\n      pop\n      pop\n      pop\n      jump\t// out\n        /* \"#utility.yul\":21173:21493   */\n    tag_92:\n        /* \"#utility.yul\":21217:21223   */\n      0x00\n        /* \"#utility.yul\":21254:21255   */\n      0x02\n        /* \"#utility.yul\":21248:21252   */\n      dup3\n        /* \"#utility.yul\":21244:21256   */\n      div\n        /* \"#utility.yul\":21234:21256   */\n      swap1\n      pop\n        /* \"#utility.yul\":21301:21302   */\n      0x01\n        /* \"#utility.yul\":21295:21299   */\n      dup3\n        /* \"#utility.yul\":21291:21303   */\n      and\n        /* \"#utility.yul\":21322:21340   */\n      dup1\n        /* \"#utility.yul\":21312:21393   */\n      tag_550\n      jumpi\n        /* \"#utility.yul\":21378:21382   */\n      0x7f\n        /* \"#utility.yul\":21370:21376   */\n      dup3\n        /* \"#utility.yul\":21366:21383   */\n      and\n        /* \"#utility.yul\":21356:21383   */\n      swap2\n      pop\n        /* \"#utility.yul\":21312:21393   */\n    tag_550:\n        /* \"#utility.yul\":21440:21442   */\n      0x20\n        /* \"#utility.yul\":21432:21438   */\n      dup3\n        /* \"#utility.yul\":21429:21443   */\n      lt\n        /* \"#utility.yul\":21409:21427   */\n      dup2\n        /* \"#utility.yul\":21406:21444   */\n      eq\n        /* \"#utility.yul\":21403:21487   */\n      iszero\n      tag_551\n      jumpi\n        /* \"#utility.yul\":21459:21477   */\n      tag_552\n      tag_553\n      jump\t// in\n    tag_552:\n        /* \"#utility.yul\":21403:21487   */\n    tag_551:\n        /* \"#utility.yul\":21224:21493   */\n      pop\n        /* \"#utility.yul\":21173:21493   */\n      swap2\n      swap1\n      pop\n      jump\t// out\n        /* \"#utility.yul\":21499:21780   */\n    tag_507:\n        /* \"#utility.yul\":21582:21609   */\n      tag_555\n        /* \"#utility.yul\":21604:21608   */\n      dup3\n        /* \"#utility.yul\":21582:21609   */\n      tag_391\n      jump\t// in\n    tag_555:\n        /* \"#utility.yul\":21574:21580   */\n      dup2\n        /* \"#utility.yul\":21570:21610   */\n      add\n        /* \"#utility.yul\":21712:21718   */\n      dup2\n        /* \"#utility.yul\":21700:21710   */\n      dup2\n        /* \"#utility.yul\":21697:21719   */\n      lt\n        /* \"#utility.yul\":21676:21694   */\n      0xffffffffffffffff\n        /* \"#utility.yul\":21664:21674   */\n      dup3\n        /* \"#utility.yul\":21661:21695   */\n      gt\n        /* \"#utility.yul\":21658:21720   */\n      or\n        /* \"#utility.yul\":21655:21743   */\n      iszero\n      tag_556\n      jumpi\n        /* \"#utility.yul\":21723:21741   */\n      tag_557\n      tag_244\n      jump\t// in\n    tag_557:\n        /* \"#utility.yul\":21655:21743   */\n    tag_556:\n        /* \"#utility.yul\":21763:21773   */\n      dup1\n        /* \"#utility.yul\":21759:21761   */\n      0x40\n        /* \"#utility.yul\":21752:21774   */\n      mstore\n        /* \"#utility.yul\":21542:21780   */\n      pop\n        /* \"#utility.yul\":21499:21780   */\n      pop\n      pop\n      jump\t// out\n        /* \"#utility.yul\":21786:22019   */\n    tag_239:\n        /* \"#utility.yul\":21825:21828   */\n      0x00\n        /* \"#utility.yul\":21848:21872   */\n      tag_559\n        /* \"#utility.yul\":21866:21871   */\n      dup3\n        /* \"#utility.yul\":21848:21872   */\n      tag_464\n      jump\t// in\n    tag_559:\n        /* \"#utility.yul\":21839:21872   */\n      swap2\n      pop\n        /* \"#utility.yul\":21894:21960   */\n      0xffffffffffffffffffffffffffffffffffffffffffffffffffffffffffffffff\n        /* \"#utility.yul\":21887:21892   */\n      dup3\n        /* \"#utility.yul\":21884:21961   */\n      eq\n        /* \"#utility.yul\":21881:21984   */\n      iszero\n      tag_560\n      jumpi\n        /* \"#utility.yul\":21964:21982   */\n      tag_561\n      tag_523\n      jump\t// in\n    tag_561:\n        /* \"#utility.yul\":21881:21984   */\n    tag_560:\n        /* \"#utility.yul\":22011:22012   */\n      0x01\n        /* \"#utility.yul\":22004:22009   */\n      dup3\n        /* \"#utility.yul\":22000:22013   */\n      add\n        /* \"#utility.yul\":21993:22013   */\n      swap1\n      pop\n        /* \"#utility.yul\":21786:22019   */\n      swap2\n      swap1\n      pop\n      jump\t// out\n        /* \"#utility.yul\":22025:22201   */\n    tag_250:\n        /* \"#utility.yul\":22057:22058   */\n      0x00\n        /* \"#utility.yul\":22074:22094   */\n      tag_563\n        /* \"#utility.yul\":22092:22093   */\n      dup3\n        /* \"#utility.yul\":22074:22094   */\n      tag_464\n      jump\t// in\n    tag_563:\n        /* \"#utility.yul\":22069:22094   */\n      swap2\n      pop\n        /* \"#utility.yul\":22108:22128   */\n      tag_564\n        /* \"#utility.yul\":22126:22127   */\n      dup4\n        /* \"#utility.yul\":22108:22128   */\n      tag_464\n      jump\t// in\n    tag_564:\n        /* \"#utility.yul\":22103:22128   */\n      swap3\n      pop\n        /* \"#utility.yul\":22147:22148   */\n      dup3\n        /* \"#utility.yul\":22137:22172   */\n      tag_565\n      jumpi\n        /* \"#utility.yul\":22152:22170   */\n      tag_566\n      tag_529\n      jump\t// in\n    tag_566:\n        /* \"#utility.yul\":22137:22172   */\n    tag_565:\n        /* \"#utility.yul\":22193:22194   */\n      dup3\n        /* \"#utility.yul\":22190:22191   */\n      dup3\n        /* \"#utility.yul\":22186:22195   */\n      mod\n        /* \"#utility.yul\":22181:22195   */\n      swap1\n      pop\n        /* \"#utility.yul\":22025:22201   */\n      swap3\n      swap2\n      pop\n      pop\n      jump\t// out\n        /* \"#utility.yul\":22207:22387   */\n    tag_523:\n        /* \"#utility.yul\":22255:22332   */\n      0x4e487b7100000000000000000000000000000000000000000000000000000000\n        /* \"#utility.yul\":22252:22253   */\n      0x00\n        /* \"#utility.yul\":22245:22333   */\n      mstore\n        /* \"#utility.yul\":22352:22356   */\n      0x11\n        /* \"#utility.yul\":22349:22350   */\n      0x04\n        /* \"#utility.yul\":22342:22357   */\n      mstore\n        /* \"#utility.yul\":22376:22380   */\n      0x24\n        /* \"#utility.yul\":22373:22374   */\n      0x00\n        /* \"#utility.yul\":22366:22381   */\n      revert\n        /* \"#utility.yul\":22393:22573   */\n    tag_529:\n        /* \"#utility.yul\":22441:22518   */\n      0x4e487b7100000000000000000000000000000000000000000000000000000000\n        /* \"#utility.yul\":22438:22439   */\n      0x00\n        /* \"#utility.yul\":22431:22519   */\n      mstore\n        /* \"#utility.yul\":22538:22542   */\n      0x12\n        /* \"#utility.yul\":22535:22536   */\n      0x04\n        /* \"#utility.yul\":22528:22543   */\n      mstore\n        /* \"#utility.yul\":22562:22566   */\n      0x24\n        /* \"#utility.yul\":22559:22560   */\n      0x00\n        /* \"#utility.yul\":22552:22567   */\n      revert\n        /* \"#utility.yul\":22579:22759   */\n    tag_553:\n        /* \"#utility.yul\":22627:22704   */\n      0x4e487b7100000000000000000000000000000000000000000000000000000000\n        /* \"#utility.yul\":22624:22625   */\n      0x00\n        /* \"#utility.yul\":22617:22705   */\n      mstore\n        /* \"#utility.yul\":22724:22728   */\n      0x22\n        /* \"#utility.yul\":22721:22722   */\n      0x04\n        /* \"#utility.yul\":22714:22729   */\n      mstore\n        /* \"#utility.yul\":22748:22752   */\n      0x24\n        /* \"#utility.yul\":22745:22746   */\n      0x00\n        /* \"#utility.yul\":22738:22753   */\n      revert\n        /* \"#utility.yul\":22765:22945   */\n    tag_255:\n        /* \"#utility.yul\":22813:22890   */\n      0x4e487b7100000000000000000000000000000000000000000000000000000000\n        /* \"#utility.yul\":22810:22811   */\n      0x00\n        /* \"#utility.yul\":22803:22891   */\n      mstore\n        /* \"#utility.yul\":22910:22914   */\n      0x32\n        /* \"#utility.yul\":22907:22908   */\n      0x04\n        /* \"#utility.yul\":22900:22915   */\n      mstore\n        /* \"#utility.yul\":22934:22938   */\n      0x24\n        /* \"#utility.yul\":22931:22932   */\n      0x00\n        /* \"#utility.yul\":22924:22939   */\n      revert\n        /* \"#utility.yul\":22951:23131   */\n    tag_244:\n        /* \"#utility.yul\":22999:23076   */\n      0x4e487b7100000000000000000000000000000000000000000000000000000000\n        /* \"#utility.yul\":22996:22997   */\n      0x00\n        /* \"#utility.yul\":22989:23077   */\n      mstore\n        /* \"#utility.yul\":23096:23100   */\n      0x41\n        /* \"#utility.yul\":23093:23094   */\n      0x04\n        /* \"#utility.yul\":23086:23101   */\n      mstore\n        /* \"#utility.yul\":23120:23124   */\n      0x24\n        /* \"#utility.yul\":23117:23118   */\n      0x00\n        /* \"#utility.yul\":23110:23125   */\n      revert\n        /* \"#utility.yul\":23137:23254   */\n    tag_320:\n        /* \"#utility.yul\":23246:23247   */\n      0x00\n        /* \"#utility.yul\":23243:23244   */\n      dup1\n        /* \"#utility.yul\":23236:23248   */\n      revert\n        /* \"#utility.yul\":23260:23377   */\n    tag_298:\n        /* \"#utility.yul\":23369:23370   */\n      0x00\n        /* \"#utility.yul\":23366:23367   */\n      dup1\n        /* \"#utility.yul\":23359:23371   */\n      revert\n        /* \"#utility.yul\":23383:23500   */\n    tag_350:\n        /* \"#utility.yul\":23492:23493   */\n      0x00\n        /* \"#utility.yul\":23489:23490   */\n      dup1\n        /* \"#utility.yul\":23482:23494   */\n      revert\n        /* \"#utility.yul\":23506:23623   */\n    tag_329:\n        /* \"#utility.yul\":23615:23616   */\n      0x00\n        /* \"#utility.yul\":23612:23613   */\n      dup1\n        /* \"#utility.yul\":23605:23617   */\n      revert\n        /* \"#utility.yul\":23629:23731   */\n    tag_391:\n        /* \"#utility.yul\":23670:23676   */\n      0x00\n        /* \"#utility.yul\":23721:23723   */\n      0x1f\n        /* \"#utility.yul\":23717:23724   */\n      not\n        /* \"#utility.yul\":23712:23714   */\n      0x1f\n        /* \"#utility.yul\":23705:23710   */\n      dup4\n        /* \"#utility.yul\":23701:23715   */\n      add\n        /* \"#utility.yul\":23697:23725   */\n      and\n        /* \"#utility.yul\":23687:23725   */\n      swap1\n      pop\n        /* \"#utility.yul\":23629:23731   */\n      swap2\n      swap1\n      pop\n      jump\t// out\n        /* \"#utility.yul\":23737:23969   */\n    tag_410:\n        /* \"#utility.yul\":23877:23911   */\n      0x4552433732313a2063616c6c6572206973206e6f7420746f6b656e206f776e65\n        /* \"#utility.yul\":23873:23874   */\n      0x00\n        /* \"#utility.yul\":23865:23871   */\n      dup3\n        /* \"#utility.yul\":23861:23875   */\n      add\n        /* \"#utility.yul\":23854:23912   */\n      mstore\n        /* \"#utility.yul\":23946:23961   */\n      0x72206f7220617070726f76656400000000000000000000000000000000000000\n        /* \"#utility.yul\":23941:23943   */\n      0x20\n        /* \"#utility.yul\":23933:23939   */\n      dup3\n        /* \"#utility.yul\":23929:23944   */\n      add\n        /* \"#utility.yul\":23922:23962   */\n      mstore\n        /* \"#utility.yul\":23737:23969   */\n      pop\n      jump\t// out\n        /* \"#utility.yul\":23975:24212   */\n    tag_415:\n        /* \"#utility.yul\":24115:24149   */\n      0x4552433732313a207472616e7366657220746f206e6f6e204552433732315265\n        /* \"#utility.yul\":24111:24112   */\n      0x00\n        /* \"#utility.yul\":24103:24109   */\n      dup3\n        /* \"#utility.yul\":24099:24113   */\n      add\n        /* \"#utility.yul\":24092:24150   */\n      mstore\n        /* \"#utility.yul\":24184:24204   */\n      0x63656976657220696d706c656d656e7465720000000000000000000000000000\n        /* \"#utility.yul\":24179:24181   */\n      0x20\n        /* \"#utility.yul\":24171:24177   */\n      dup3\n        /* \"#utility.yul\":24167:24182   */\n      add\n        /* \"#utility.yul\":24160:24205   */\n      mstore\n        /* \"#utility.yul\":23975:24212   */\n      pop\n      jump\t// out\n        /* \"#utility.yul\":24218:24442   */\n    tag_420:\n        /* \"#utility.yul\":24358:24392   */\n      0x4552433732313a207472616e736665722066726f6d20696e636f727265637420\n        /* \"#utility.yul\":24354:24355   */\n      0x00\n        /* \"#utility.yul\":24346:24352   */\n      dup3\n        /* \"#utility.yul\":24342:24356   */\n      add\n        /* \"#utility.yul\":24335:24393   */\n      mstore\n        /* \"#utility.yul\":24427:24434   */\n      0x6f776e6572000000000000000000000000000000000000000000000000000000\n        /* \"#utility.yul\":24422:24424   */\n      0x20\n        /* \"#utility.yul\":24414:24420   */\n      dup3\n        /* \"#utility.yul\":24410:24425   */\n      add\n        /* \"#utility.yul\":24403:24435   */\n      mstore\n        /* \"#utility.yul\":24218:24442   */\n      pop\n      jump\t// out\n        /* \"#utility.yul\":24448:24626   */\n    tag_425:\n        /* \"#utility.yul\":24588:24618   */\n      0x4552433732313a20746f6b656e20616c7265616479206d696e74656400000000\n        /* \"#utility.yul\":24584:24585   */\n      0x00\n        /* \"#utility.yul\":24576:24582   */\n      dup3\n        /* \"#utility.yul\":24572:24586   */\n      add\n        /* \"#utility.yul\":24565:24619   */\n      mstore\n        /* \"#utility.yul\":24448:24626   */\n      pop\n      jump\t// out\n        /* \"#utility.yul\":24632:24855   */\n    tag_430:\n        /* \"#utility.yul\":24772:24806   */\n      0x4552433732313a207472616e7366657220746f20746865207a65726f20616464\n        /* \"#utility.yul\":24768:24769   */\n      0x00\n        /* \"#utility.yul\":24760:24766   */\n      dup3\n        /* \"#utility.yul\":24756:24770   */\n      add\n        /* \"#utility.yul\":24749:24807   */\n      mstore\n        /* \"#utility.yul\":24841:24847   */\n      0x7265737300000000000000000000000000000000000000000000000000000000\n        /* \"#utility.yul\":24836:24838   */\n      0x20\n        /* \"#utility.yul\":24828:24834   */\n      dup3\n        /* \"#utility.yul\":24824:24839   */\n      add\n        /* \"#utility.yul\":24817:24848   */\n      mstore\n        /* \"#utility.yul\":24632:24855   */\n      pop\n      jump\t// out\n        /* \"#utility.yul\":24861:25036   */\n    tag_435:\n        /* \"#utility.yul\":25001:25028   */\n      0x4552433732313a20617070726f766520746f2063616c6c657200000000000000\n        /* \"#utility.yul\":24997:24998   */\n      0x00\n        /* \"#utility.yul\":24989:24995   */\n      dup3\n        /* \"#utility.yul\":24985:24999   */\n      add\n        /* \"#utility.yul\":24978:25029   */\n      mstore\n        /* \"#utility.yul\":24861:25036   */\n      pop\n      jump\t// out\n        /* \"#utility.yul\":25042:25270   */\n    tag_440:\n        /* \"#utility.yul\":25182:25216   */\n      0x4552433732313a2061646472657373207a65726f206973206e6f742061207661\n        /* \"#utility.yul\":25178:25179   */\n      0x00\n        /* \"#utility.yul\":25170:25176   */\n      dup3\n        /* \"#utility.yul\":25166:25180   */\n      add\n        /* \"#utility.yul\":25159:25217   */\n      mstore\n        /* \"#utility.yul\":25251:25262   */\n      0x6c6964206f776e65720000000000000000000000000000000000000000000000\n        /* \"#utility.yul\":25246:25248   */\n      0x20\n        /* \"#utility.yul\":25238:25244   */\n      dup3\n        /* \"#utility.yul\":25234:25249   */\n      add\n        /* \"#utility.yul\":25227:25263   */\n      mstore\n        /* \"#utility.yul\":25042:25270   */\n      pop\n      jump\t// out\n        /* \"#utility.yul\":25276:25458   */\n    tag_445:\n        /* \"#utility.yul\":25416:25450   */\n      0x4552433732313a206d696e7420746f20746865207a65726f2061646472657373\n        /* \"#utility.yul\":25412:25413   */\n      0x00\n        /* \"#utility.yul\":25404:25410   */\n      dup3\n        /* \"#utility.yul\":25400:25414   */\n      add\n        /* \"#utility.yul\":25393:25451   */\n      mstore\n        /* \"#utility.yul\":25276:25458   */\n      pop\n      jump\t// out\n        /* \"#utility.yul\":25464:25638   */\n    tag_450:\n        /* \"#utility.yul\":25604:25630   */\n      0x4552433732313a20696e76616c696420746f6b656e2049440000000000000000\n        /* \"#utility.yul\":25600:25601   */\n      0x00\n        /* \"#utility.yul\":25592:25598   */\n      dup3\n        /* \"#utility.yul\":25588:25602   */\n      add\n        /* \"#utility.yul\":25581:25631   */\n      mstore\n        /* \"#utility.yul\":25464:25638   */\n      pop\n      jump\t// out\n        /* \"#utility.yul\":25644:25864   */\n    tag_455:\n        /* \"#utility.yul\":25784:25818   */\n      0x4552433732313a20617070726f76616c20746f2063757272656e74206f776e65\n        /* \"#utility.yul\":25780:25781   */\n      0x00\n        /* \"#utility.yul\":25772:25778   */\n      dup3\n        /* \"#utility.yul\":25768:25782   */\n      add\n        /* \"#utility.yul\":25761:25819   */\n      mstore\n        /* \"#utility.yul\":25853:25856   */\n      0x7200000000000000000000000000000000000000000000000000000000000000\n        /* \"#utility.yul\":25848:25850   */\n      0x20\n        /* \"#utility.yul\":25840:25846   */\n      dup3\n        /* \"#utility.yul\":25836:25851   */\n      add\n        /* \"#utility.yul\":25829:25857   */\n      mstore\n        /* \"#utility.yul\":25644:25864   */\n      pop\n      jump\t// out\n        /* \"#utility.yul\":25870:26118   */\n    tag_460:\n        /* \"#utility.yul\":26010:26044   */\n      0x4552433732313a20617070726f76652063616c6c6572206973206e6f7420746f\n        /* \"#utility.yul\":26006:26007   */\n      0x00\n        /* \"#utility.yul\":25998:26004   */\n      dup3\n        /* \"#utility.yul\":25994:26008   */\n      add\n        /* \"#utility.yul\":25987:26045   */\n      mstore\n        /* \"#utility.yul\":26079:26110   */\n      0x6b656e206f776e6572206f7220617070726f76656420666f7220616c6c000000\n        /* \"#utility.yul\":26074:26076   */\n      0x20\n        /* \"#utility.yul\":26066:26072   */\n      dup3\n        /* \"#utility.yul\":26062:26077   */\n      add\n        /* \"#utility.yul\":26055:26111   */\n      mstore\n        /* \"#utility.yul\":25870:26118   */\n      pop\n      jump\t// out\n        /* \"#utility.yul\":26124:26246   */\n    tag_304:\n        /* \"#utility.yul\":26197:26221   */\n      tag_589\n        /* \"#utility.yul\":26215:26220   */\n      dup2\n        /* \"#utility.yul\":26197:26221   */\n      tag_377\n      jump\t// in\n    tag_589:\n        /* \"#utility.yul\":26190:26195   */\n      dup2\n        /* \"#utility.yul\":26187:26222   */\n      eq\n        /* \"#utility.yul\":26177:26240   */\n      tag_590\n      jumpi\n        /* \"#utility.yul\":26236:26237   */\n      0x00\n        /* \"#utility.yul\":26233:26234   */\n      dup1\n        /* \"#utility.yul\":26226:26238   */\n      revert\n        /* \"#utility.yul\":26177:26240   */\n    tag_590:\n        /* \"#utility.yul\":26124:26246   */\n      pop\n      jump\t// out\n        /* \"#utility.yul\":26252:26368   */\n    tag_308:\n        /* \"#utility.yul\":26322:26343   */\n      tag_592\n        /* \"#utility.yul\":26337:26342   */\n      dup2\n        /* \"#utility.yul\":26322:26343   */\n      tag_381\n      jump\t// in\n    tag_592:\n        /* \"#utility.yul\":26315:26320   */\n      dup2\n        /* \"#utility.yul\":26312:26344   */\n      eq\n        /* \"#utility.yul\":26302:26362   */\n      tag_593\n      jumpi\n        /* \"#utility.yul\":26358:26359   */\n      0x00\n        /* \"#utility.yul\":26355:26356   */\n      dup1\n        /* \"#utility.yul\":26348:26360   */\n      revert\n        /* \"#utility.yul\":26302:26362   */\n    tag_593:\n        /* \"#utility.yul\":26252:26368   */\n      pop\n      jump\t// out\n        /* \"#utility.yul\":26374:26494   */\n    tag_312:\n        /* \"#utility.yul\":26446:26469   */\n      tag_595\n        /* \"#utility.yul\":26463:26468   */\n      dup2\n        /* \"#utility.yul\":26446:26469   */\n      tag_539\n      jump\t// in\n    tag_595:\n        /* \"#utility.yul\":26439:26444   */\n      dup2\n        /* \"#utility.yul\":26436:26470   */\n      eq\n        /* \"#utility.yul\":26426:26488   */\n      tag_596\n      jumpi\n        /* \"#utility.yul\":26484:26485   */\n      0x00\n        /* \"#utility.yul\":26481:26482   */\n      dup1\n        /* \"#utility.yul\":26474:26486   */\n      revert\n        /* \"#utility.yul\":26426:26488   */\n    tag_596:\n        /* \"#utility.yul\":26374:26494   */\n      pop\n      jump\t// out\n        /* \"#utility.yul\":26500:26622   */\n    tag_325:\n        /* \"#utility.yul\":26573:26597   */\n      tag_598\n        /* \"#utility.yul\":26591:26596   */\n      dup2\n        /* \"#utility.yul\":26573:26597   */\n      tag_464\n      jump\t// in\n    tag_598:\n        /* \"#utility.yul\":26566:26571   */\n      dup2\n        /* \"#utility.yul\":26563:26598   */\n      eq\n        /* \"#utility.yul\":26553:26616   */\n      tag_599\n      jumpi\n        /* \"#utility.yul\":26612:26613   */\n      0x00\n        /* \"#utility.yul\":26609:26610   */\n      dup1\n        /* \"#utility.yul\":26602:26614   */\n      revert\n        /* \"#utility.yul\":26553:26616   */\n    tag_599:\n        /* \"#utility.yul\":26500:26622   */\n      pop\n      jump\t// out\n\n    auxdata: 0xa2646970667358221220893201d447c48f0e44846c9a85d084d12a39623617ce2e068335ed74343c7f7664736f6c63430008070033\n}\n",
				"bytecode": {
					"linkReferences": {},
					"object": "60806040523480156200001157600080fd5b5060405162002b9c38038062002b9c83398181016040528101906200003791906200019f565b81600190805190602001906200004f92919062000071565b5080600290805190602001906200006892919062000071565b505050620003a8565b8280546200007f90620002b9565b90600052602060002090601f016020900481019282620000a35760008555620000ef565b82601f10620000be57805160ff1916838001178555620000ef565b82800160010185558215620000ef579182015b82811115620000ee578251825591602001919060010190620000d1565b5b509050620000fe919062000102565b5090565b5b808211156200011d57600081600090555060010162000103565b5090565b60006200013862000132846200024d565b62000224565b90508281526020810184848401111562000157576200015662000388565b5b6200016484828562000283565b509392505050565b600082601f83011262000184576200018362000383565b5b81516200019684826020860162000121565b91505092915050565b60008060408385031215620001b957620001b862000392565b5b600083015167ffffffffffffffff811115620001da57620001d96200038d565b5b620001e8858286016200016c565b925050602083015167ffffffffffffffff8111156200020c576200020b6200038d565b5b6200021a858286016200016c565b9150509250929050565b60006200023062000243565b90506200023e8282620002ef565b919050565b6000604051905090565b600067ffffffffffffffff8211156200026b576200026a62000354565b5b620002768262000397565b9050602081019050919050565b60005b83811015620002a357808201518184015260208101905062000286565b83811115620002b3576000848401525b50505050565b60006002820490506001821680620002d257607f821691505b60208210811415620002e957620002e862000325565b5b50919050565b620002fa8262000397565b810181811067ffffffffffffffff821117156200031c576200031b62000354565b5b80604052505050565b7f4e487b7100000000000000000000000000000000000000000000000000000000600052602260045260246000fd5b7f4e487b7100000000000000000000000000000000000000000000000000000000600052604160045260246000fd5b600080fd5b600080fd5b600080fd5b600080fd5b6000601f19601f8301169050919050565b6127e480620003b86000396000f3fe608060405234801561001057600080fd5b50600436106100f55760003560e01c80636352211e11610097578063a22cb46511610066578063a22cb46514610296578063b88d4fde146102b2578063c87b56dd146102ce578063e985e9c5146102fe576100f5565b80636352211e146101e85780636a6278421461021857806370a082311461024857806395d89b4114610278576100f5565b8063095ea7b3116100d3578063095ea7b31461017857806323b872dd1461019457806342842e0e146101b057806342966c68146101cc576100f5565b806301ffc9a7146100fa57806306fdde031461012a578063081812fc14610148575b600080fd5b610114600480360381019061010f9190611b73565b61032e565b6040516101219190611ed6565b60405180910390f35b610132610410565b60405161013f9190611ef1565b60405180910390f35b610162600480360381019061015d9190611bcd565b6104a2565b60405161016f9190611e6f565b60405180910390f35b610192600480360381019061018d9190611b33565b6104e8565b005b6101ae60048036038101906101a99190611a1d565b610600565b005b6101ca60048036038101906101c59190611a1d565b610660565b005b6101e660048036038101906101e19190611bcd565b610680565b005b61020260048036038101906101fd9190611bcd565b61077a565b60405161020f9190611e6f565b60405180910390f35b610232600480360381019061022d91906119b0565b610801565b60405161023f9190612073565b60405180910390f35b610262600480360381019061025d91906119b0565b61082d565b60405161026f9190612073565b60405180910390f35b6102806108e5565b60405161028d9190611ef1565b60405180910390f35b6102b060048036038101906102ab9190611af3565b610977565b005b6102cc60048036038101906102c79190611a70565b61098d565b005b6102e860048036038101906102e39190611bcd565b6109ef565b6040516102f59190611ef1565b60405180910390f35b610318600480360381019061031391906119dd565b610a57565b6040516103259190611ed6565b60405180910390f35b60007f80ac58cd000000000000000000000000000000000000000000000000000000007bffffffffffffffffffffffffffffffffffffffffffffffffffffffff1916827bffffffffffffffffffffffffffffffffffffffffffffffffffffffff191614806103f957507f5b5e139f000000000000000000000000000000000000000000000000000000007bffffffffffffffffffffffffffffffffffffffffffffffffffffffff1916827bffffffffffffffffffffffffffffffffffffffffffffffffffffffff1916145b80610409575061040882610aeb565b5b9050919050565b60606001805461041f90612298565b80601f016020809104026020016040519081016040528092919081815260200182805461044b90612298565b80156104985780601f1061046d57610100808354040283529160200191610498565b820191906000526020600020905b81548152906001019060200180831161047b57829003601f168201915b5050505050905090565b60006104ad82610b55565b6005600083815260200190815260200160002060009054906101000a900473ffffffffffffffffffffffffffffffffffffffff169050919050565b60006104f38261077a565b90508073ffffffffffffffffffffffffffffffffffffffff168373ffffffffffffffffffffffffffffffffffffffff161415610564576040517f08c379a000000000000000000000000000000000000000000000000000000000815260040161055b90612033565b60405180910390fd5b8073ffffffffffffffffffffffffffffffffffffffff16610583610ba0565b73ffffffffffffffffffffffffffffffffffffffff1614806105b257506105b1816105ac610ba0565b610a57565b5b6105f1576040517f08c379a00000000000000000000000000000000000000000000000000000000081526004016105e890612053565b60405180910390fd5b6105fb8383610ba8565b505050565b61061161060b610ba0565b82610c61565b610650576040517f08c379a000000000000000000000000000000000000000000000000000000000815260040161064790611f13565b60405180910390fd5b61065b838383610cf6565b505050565b61067b8383836040518060200160405280600081525061098d565b505050565b600061068b8261077a565b90506001600460008373ffffffffffffffffffffffffffffffffffffffff1673ffffffffffffffffffffffffffffffffffffffff16815260200190815260200160002060008282546106dd91906121ae565b925050819055506003600083815260200190815260200160002060006101000a81549073ffffffffffffffffffffffffffffffffffffffff021916905581600073ffffffffffffffffffffffffffffffffffffffff168273ffffffffffffffffffffffffffffffffffffffff167fddf252ad1be2c89b69c2b068fc378daa952ba7f163c4a11628f55a4df523b3ef60405160405180910390a45050565b60008061078683610ff0565b9050600073ffffffffffffffffffffffffffffffffffffffff168173ffffffffffffffffffffffffffffffffffffffff1614156107f8576040517f08c379a00000000000000000000000000000000000000000000000000000000081526004016107ef90612013565b60405180910390fd5b80915050919050565b60008061080e600061102d565b905061081a838261103b565b6108246000611259565b80915050919050565b60008073ffffffffffffffffffffffffffffffffffffffff168273ffffffffffffffffffffffffffffffffffffffff16141561089e576040517f08c379a000000000000000000000000000000000000000000000000000000000815260040161089590611fd3565b60405180910390fd5b600460008373ffffffffffffffffffffffffffffffffffffffff1673ffffffffffffffffffffffffffffffffffffffff168152602001908152602001600020549050919050565b6060600280546108f490612298565b80601f016020809104026020016040519081016040528092919081815260200182805461092090612298565b801561096d5780601f106109425761010080835404028352916020019161096d565b820191906000526020600020905b81548152906001019060200180831161095057829003601f168201915b5050505050905090565b610989610982610ba0565b838361126f565b5050565b61099e610998610ba0565b83610c61565b6109dd576040517f08c379a00000000000000000000000000000000000000000000000000000000081526004016109d490611f13565b60405180910390fd5b6109e9848484846113dc565b50505050565b60606109fa82610b55565b6000610a04611438565b90506000815111610a245760405180602001604052806000815250610a4f565b80610a2e8461144f565b604051602001610a3f929190611e4b565b6040516020818303038152906040525b915050919050565b6000600660008473ffffffffffffffffffffffffffffffffffffffff1673ffffffffffffffffffffffffffffffffffffffff16815260200190815260200160002060008373ffffffffffffffffffffffffffffffffffffffff1673ffffffffffffffffffffffffffffffffffffffff16815260200190815260200160002060009054906101000a900460ff16905092915050565b60007f01ffc9a7000000000000000000000000000000000000000000000000000000007bffffffffffffffffffffffffffffffffffffffffffffffffffffffff1916827bffffffffffffffffffffffffffffffffffffffffffffffffffffffff1916149050919050565b610b5e816115b0565b610b9d576040517f08c379a0000000000000000000000000000000000000000000000000000000008152600401610b9490612013565b60405180910390fd5b50565b600033905090565b816005600083815260200190815260200160002060006101000a81548173ffffffffffffffffffffffffffffffffffffffff021916908373ffffffffffffffffffffffffffffffffffffffff160217905550808273ffffffffffffffffffffffffffffffffffffffff16610c1b8361077a565b73ffffffffffffffffffffffffffffffffffffffff167f8c5be1e5ebec7d5bd14f71427d1e84f3dd0314c0f7b2291e5b200ac8c7c3b92560405160405180910390a45050565b600080610c6d8361077a565b90508073ffffffffffffffffffffffffffffffffffffffff168473ffffffffffffffffffffffffffffffffffffffff161480610caf5750610cae8185610a57565b5b80610ced57508373ffffffffffffffffffffffffffffffffffffffff16610cd5846104a2565b73ffffffffffffffffffffffffffffffffffffffff16145b91505092915050565b8273ffffffffffffffffffffffffffffffffffffffff16610d168261077a565b73ffffffffffffffffffffffffffffffffffffffff1614610d6c576040517f08c379a0000000000000000000000000000000000000000000000000000000008152600401610d6390611f53565b60405180910390fd5b600073ffffffffffffffffffffffffffffffffffffffff168273ffffffffffffffffffffffffffffffffffffffff161415610ddc576040517f08c379a0000000000000000000000000000000000000000000000000000000008152600401610dd390611f93565b60405180910390fd5b610de983838360016115f1565b8273ffffffffffffffffffffffffffffffffffffffff16610e098261077a565b73ffffffffffffffffffffffffffffffffffffffff1614610e5f576040517f08c379a0000000000000000000000000000000000000000000000000000000008152600401610e5690611f53565b60405180910390fd5b6005600082815260200190815260200160002060006101000a81549073ffffffffffffffffffffffffffffffffffffffff02191690556001600460008573ffffffffffffffffffffffffffffffffffffffff1673ffffffffffffffffffffffffffffffffffffffff168152602001908152602001600020600082825403925050819055506001600460008473ffffffffffffffffffffffffffffffffffffffff1673ffffffffffffffffffffffffffffffffffffffff16815260200190815260200160002060008282540192505081905550816003600083815260200190815260200160002060006101000a81548173ffffffffffffffffffffffffffffffffffffffff021916908373ffffffffffffffffffffffffffffffffffffffff160217905550808273ffffffffffffffffffffffffffffffffffffffff168473ffffffffffffffffffffffffffffffffffffffff167fddf252ad1be2c89b69c2b068fc378daa952ba7f163c4a11628f55a4df523b3ef60405160405180910390a4610feb8383836001611717565b505050565b60006003600083815260200190815260200160002060009054906101000a900473ffffffffffffffffffffffffffffffffffffffff169050919050565b600081600001549050919050565b600073ffffffffffffffffffffffffffffffffffffffff168273ffffffffffffffffffffffffffffffffffffffff1614156110ab576040517f08c379a00000000000000000000000000000000000000000000000000000000081526004016110a290611ff3565b60405180910390fd5b6110b4816115b0565b156110f4576040517f08c379a00000000000000000000000000000000000000000000000000000000081526004016110eb90611f73565b60405180910390fd5b6111026000838360016115f1565b61110b816115b0565b1561114b576040517f08c379a000000000000000000000000000000000000000000000000000000000815260040161114290611f73565b60405180910390fd5b6001600460008473ffffffffffffffffffffffffffffffffffffffff1673ffffffffffffffffffffffffffffffffffffffff16815260200190815260200160002060008282540192505081905550816003600083815260200190815260200160002060006101000a81548173ffffffffffffffffffffffffffffffffffffffff021916908373ffffffffffffffffffffffffffffffffffffffff160217905550808273ffffffffffffffffffffffffffffffffffffffff16600073ffffffffffffffffffffffffffffffffffffffff167fddf252ad1be2c89b69c2b068fc378daa952ba7f163c4a11628f55a4df523b3ef60405160405180910390a4611255600083836001611717565b5050565b6001816000016000828254019250508190555050565b8173ffffffffffffffffffffffffffffffffffffffff168373ffffffffffffffffffffffffffffffffffffffff1614156112de576040517f08c379a00000000000000000000000000000000000000000000000000000000081526004016112d590611fb3565b60405180910390fd5b80600660008573ffffffffffffffffffffffffffffffffffffffff1673ffffffffffffffffffffffffffffffffffffffff16815260200190815260200160002060008473ffffffffffffffffffffffffffffffffffffffff1673ffffffffffffffffffffffffffffffffffffffff16815260200190815260200160002060006101000a81548160ff0219169083151502179055508173ffffffffffffffffffffffffffffffffffffffff168373ffffffffffffffffffffffffffffffffffffffff167f17307eab39ab6107e8899845ad3d59bd9653f200f220920489ca2b5937696c31836040516113cf9190611ed6565b60405180910390a3505050565b6113e7848484610cf6565b6113f38484848461171d565b611432576040517f08c379a000000000000000000000000000000000000000000000000000000000815260040161142990611f33565b60405180910390fd5b50505050565b606060405180602001604052806000815250905090565b60606000821415611497576040518060400160405280600181526020017f300000000000000000000000000000000000000000000000000000000000000081525090506115ab565b600082905060005b600082146114c95780806114b2906122fb565b915050600a826114c2919061217d565b915061149f565b60008167ffffffffffffffff8111156114e5576114e4612431565b5b6040519080825280601f01601f1916602001820160405280156115175781602001600182028036833780820191505090505b5090505b600085146115a45760018261153091906121ae565b9150600a8561153f9190612344565b603061154b9190612127565b60f81b81838151811061156157611560612402565b5b60200101907effffffffffffffffffffffffffffffffffffffffffffffffffffffffffffff1916908160001a905350600a8561159d919061217d565b945061151b565b8093505050505b919050565b60008073ffffffffffffffffffffffffffffffffffffffff166115d283610ff0565b73ffffffffffffffffffffffffffffffffffffffff1614159050919050565b600181111561171157600073ffffffffffffffffffffffffffffffffffffffff168473ffffffffffffffffffffffffffffffffffffffff16146116855780600460008673ffffffffffffffffffffffffffffffffffffffff1673ffffffffffffffffffffffffffffffffffffffff168152602001908152602001600020600082825461167d91906121ae565b925050819055505b600073ffffffffffffffffffffffffffffffffffffffff168373ffffffffffffffffffffffffffffffffffffffff16146117105780600460008573ffffffffffffffffffffffffffffffffffffffff1673ffffffffffffffffffffffffffffffffffffffff16815260200190815260200160002060008282546117089190612127565b925050819055505b5b50505050565b50505050565b600061173e8473ffffffffffffffffffffffffffffffffffffffff166118b4565b156118a7578373ffffffffffffffffffffffffffffffffffffffff1663150b7a02611767610ba0565b8786866040518563ffffffff1660e01b81526004016117899493929190611e8a565b602060405180830381600087803b1580156117a357600080fd5b505af19250505080156117d457506040513d601f19601f820116820180604052508101906117d19190611ba0565b60015b611857573d8060008114611804576040519150601f19603f3d011682016040523d82523d6000602084013e611809565b606091505b5060008151141561184f576040517f08c379a000000000000000000000000000000000000000000000000000000000815260040161184690611f33565b60405180910390fd5b805181602001fd5b63150b7a0260e01b7bffffffffffffffffffffffffffffffffffffffffffffffffffffffff1916817bffffffffffffffffffffffffffffffffffffffffffffffffffffffff1916149150506118ac565b600190505b949350505050565b6000808273ffffffffffffffffffffffffffffffffffffffff163b119050919050565b60006118ea6118e5846120b3565b61208e565b90508281526020810184848401111561190657611905612465565b5b611911848285612256565b509392505050565b60008135905061192881612752565b92915050565b60008135905061193d81612769565b92915050565b60008135905061195281612780565b92915050565b60008151905061196781612780565b92915050565b600082601f83011261198257611981612460565b5b81356119928482602086016118d7565b91505092915050565b6000813590506119aa81612797565b92915050565b6000602082840312156119c6576119c561246f565b5b60006119d484828501611919565b91505092915050565b600080604083850312156119f4576119f361246f565b5b6000611a0285828601611919565b9250506020611a1385828601611919565b9150509250929050565b600080600060608486031215611a3657611a3561246f565b5b6000611a4486828701611919565b9350506020611a5586828701611919565b9250506040611a668682870161199b565b9150509250925092565b60008060008060808587031215611a8a57611a8961246f565b5b6000611a9887828801611919565b9450506020611aa987828801611919565b9350506040611aba8782880161199b565b925050606085013567ffffffffffffffff811115611adb57611ada61246a565b5b611ae78782880161196d565b91505092959194509250565b60008060408385031215611b0a57611b0961246f565b5b6000611b1885828601611919565b9250506020611b298582860161192e565b9150509250929050565b60008060408385031215611b4a57611b4961246f565b5b6000611b5885828601611919565b9250506020611b698582860161199b565b9150509250929050565b600060208284031215611b8957611b8861246f565b5b6000611b9784828501611943565b91505092915050565b600060208284031215611bb657611bb561246f565b5b6000611bc484828501611958565b91505092915050565b600060208284031215611be357611be261246f565b5b6000611bf18482850161199b565b91505092915050565b611c03816121e2565b82525050565b611c12816121f4565b82525050565b6000611c23826120e4565b611c2d81856120fa565b9350611c3d818560208601612265565b611c4681612474565b840191505092915050565b6000611c5c826120ef565b611c66818561210b565b9350611c76818560208601612265565b611c7f81612474565b840191505092915050565b6000611c95826120ef565b611c9f818561211c565b9350611caf818560208601612265565b80840191505092915050565b6000611cc8602d8361210b565b9150611cd382612485565b604082019050919050565b6000611ceb60328361210b565b9150611cf6826124d4565b604082019050919050565b6000611d0e60258361210b565b9150611d1982612523565b604082019050919050565b6000611d31601c8361210b565b9150611d3c82612572565b602082019050919050565b6000611d5460248361210b565b9150611d5f8261259b565b604082019050919050565b6000611d7760198361210b565b9150611d82826125ea565b602082019050919050565b6000611d9a60298361210b565b9150611da582612613565b604082019050919050565b6000611dbd60208361210b565b9150611dc882612662565b602082019050919050565b6000611de060188361210b565b9150611deb8261268b565b602082019050919050565b6000611e0360218361210b565b9150611e0e826126b4565b604082019050919050565b6000611e26603d8361210b565b9150611e3182612703565b604082019050919050565b611e458161224c565b82525050565b6000611e578285611c8a565b9150611e638284611c8a565b91508190509392505050565b6000602082019050611e846000830184611bfa565b92915050565b6000608082019050611e9f6000830187611bfa565b611eac6020830186611bfa565b611eb96040830185611e3c565b8181036060830152611ecb8184611c18565b905095945050505050565b6000602082019050611eeb6000830184611c09565b92915050565b60006020820190508181036000830152611f0b8184611c51565b905092915050565b60006020820190508181036000830152611f2c81611cbb565b9050919050565b60006020820190508181036000830152611f4c81611cde565b9050919050565b60006020820190508181036000830152611f6c81611d01565b9050919050565b60006020820190508181036000830152611f8c81611d24565b9050919050565b60006020820190508181036000830152611fac81611d47565b9050919050565b60006020820190508181036000830152611fcc81611d6a565b9050919050565b60006020820190508181036000830152611fec81611d8d565b9050919050565b6000602082019050818103600083015261200c81611db0565b9050919050565b6000602082019050818103600083015261202c81611dd3565b9050919050565b6000602082019050818103600083015261204c81611df6565b9050919050565b6000602082019050818103600083015261206c81611e19565b9050919050565b60006020820190506120886000830184611e3c565b92915050565b60006120986120a9565b90506120a482826122ca565b919050565b6000604051905090565b600067ffffffffffffffff8211156120ce576120cd612431565b5b6120d782612474565b9050602081019050919050565b600081519050919050565b600081519050919050565b600082825260208201905092915050565b600082825260208201905092915050565b600081905092915050565b60006121328261224c565b915061213d8361224c565b9250827fffffffffffffffffffffffffffffffffffffffffffffffffffffffffffffffff0382111561217257612171612375565b5b828201905092915050565b60006121888261224c565b91506121938361224c565b9250826121a3576121a26123a4565b5b828204905092915050565b60006121b98261224c565b91506121c48361224c565b9250828210156121d7576121d6612375565b5b828203905092915050565b60006121ed8261222c565b9050919050565b60008115159050919050565b60007fffffffff0000000000000000000000000000000000000000000000000000000082169050919050565b600073ffffffffffffffffffffffffffffffffffffffff82169050919050565b6000819050919050565b82818337600083830152505050565b60005b83811015612283578082015181840152602081019050612268565b83811115612292576000848401525b50505050565b600060028204905060018216806122b057607f821691505b602082108114156122c4576122c36123d3565b5b50919050565b6122d382612474565b810181811067ffffffffffffffff821117156122f2576122f1612431565b5b80604052505050565b60006123068261224c565b91507fffffffffffffffffffffffffffffffffffffffffffffffffffffffffffffffff82141561233957612338612375565b5b600182019050919050565b600061234f8261224c565b915061235a8361224c565b92508261236a576123696123a4565b5b828206905092915050565b7f4e487b7100000000000000000000000000000000000000000000000000000000600052601160045260246000fd5b7f4e487b7100000000000000000000000000000000000000000000000000000000600052601260045260246000fd5b7f4e487b7100000000000000000000000000000000000000000000000000000000600052602260045260246000fd5b7f4e487b7100000000000000000000000000000000000000000000000000000000600052603260045260246000fd5b7f4e487b7100000000000000000000000000000000000000000000000000000000600052604160045260246000fd5b600080fd5b600080fd5b600080fd5b600080fd5b6000601f19601f8301169050919050565b7f4552433732313a2063616c6c6572206973206e6f7420746f6b656e206f776e6560008201527f72206f7220617070726f76656400000000000000000000000000000000000000602082015250565b7f4552433732313a207472616e7366657220746f206e6f6e20455243373231526560008201527f63656976657220696d706c656d656e7465720000000000000000000000000000602082015250565b7f4552433732313a207472616e736665722066726f6d20696e636f72726563742060008201527f6f776e6572000000000000000000000000000000000000000000000000000000602082015250565b7f4552433732313a20746f6b656e20616c7265616479206d696e74656400000000600082015250565b7f4552433732313a207472616e7366657220746f20746865207a65726f2061646460008201527f7265737300000000000000000000000000000000000000000000000000000000602082015250565b7f4552433732313a20617070726f766520746f2063616c6c657200000000000000600082015250565b7f4552433732313a2061646472657373207a65726f206973206e6f74206120766160008201527f6c6964206f776e65720000000000000000000000000000000000000000000000602082015250565b7f4552433732313a206d696e7420746f20746865207a65726f2061646472657373600082015250565b7f4552433732313a20696e76616c696420746f6b656e2049440000000000000000600082015250565b7f4552433732313a20617070726f76616c20746f2063757272656e74206f776e6560008201527f7200000000000000000000000000000000000000000000000000000000000000602082015250565b7f4552433732313a20617070726f76652063616c6c6572206973206e6f7420746f60008201527f6b656e206f776e6572206f7220617070726f76656420666f7220616c6c000000602082015250565b61275b816121e2565b811461276657600080fd5b50565b612772816121f4565b811461277d57600080fd5b50565b61278981612200565b811461279457600080fd5b50565b6127a08161224c565b81146127ab57600080fd5b5056fea2646970667358221220893201d447c48f0e44846c9a85d084d12a39623617ce2e068335ed74343c7f7664736f6c63430008070033",
					"opcodes": "PUSH1 0x80 PUSH1 0x40 MSTORE CALLVALUE DUP1 ISZERO PUSH3 0x11 JUMPI PUSH1 0x0 DUP1 REVERT JUMPDEST POP PUSH1 0x40 MLOAD PUSH3 0x2B9C CODESIZE SUB DUP1 PUSH3 0x2B9C DUP4 CODECOPY DUP2 DUP2 ADD PUSH1 0x40 MSTORE DUP2 ADD SWAP1 PUSH3 0x37 SWAP2 SWAP1 PUSH3 0x19F JUMP JUMPDEST DUP2 PUSH1 0x1 SWAP1 DUP1 MLOAD SWAP1 PUSH1 0x20 ADD SWAP1 PUSH3 0x4F SWAP3 SWAP2 SWAP1 PUSH3 0x71 JUMP JUMPDEST POP DUP1 PUSH1 0x2 SWAP1 DUP1 MLOAD SWAP1 PUSH1 0x20 ADD SWAP1 PUSH3 0x68 SWAP3 SWAP2 SWAP1 PUSH3 0x71 JUMP JUMPDEST POP POP POP PUSH3 0x3A8 JUMP JUMPDEST DUP3 DUP1 SLOAD PUSH3 0x7F SWAP1 PUSH3 0x2B9 JUMP JUMPDEST SWAP1 PUSH1 0x0 MSTORE PUSH1 0x20 PUSH1 0x0 KECCAK256 SWAP1 PUSH1 0x1F ADD PUSH1 0x20 SWAP1 DIV DUP2 ADD SWAP3 DUP3 PUSH3 0xA3 JUMPI PUSH1 0x0 DUP6 SSTORE PUSH3 0xEF JUMP JUMPDEST DUP3 PUSH1 0x1F LT PUSH3 0xBE JUMPI DUP1 MLOAD PUSH1 0xFF NOT AND DUP4 DUP1 ADD OR DUP6 SSTORE PUSH3 0xEF JUMP JUMPDEST DUP3 DUP1 ADD PUSH1 0x1 ADD DUP6 SSTORE DUP3 ISZERO PUSH3 0xEF JUMPI SWAP2 DUP3 ADD JUMPDEST DUP3 DUP2 GT ISZERO PUSH3 0xEE JUMPI DUP3 MLOAD DUP3 SSTORE SWAP2 PUSH1 0x20 ADD SWAP2 SWAP1 PUSH1 0x1 ADD SWAP1 PUSH3 0xD1 JUMP JUMPDEST JUMPDEST POP SWAP1 POP PUSH3 0xFE SWAP2 SWAP1 PUSH3 0x102 JUMP JUMPDEST POP SWAP1 JUMP JUMPDEST JUMPDEST DUP1 DUP3 GT ISZERO PUSH3 0x11D JUMPI PUSH1 0x0 DUP2 PUSH1 0x0 SWAP1 SSTORE POP PUSH1 0x1 ADD PUSH3 0x103 JUMP JUMPDEST POP SWAP1 JUMP JUMPDEST PUSH1 0x0 PUSH3 0x138 PUSH3 0x132 DUP5 PUSH3 0x24D JUMP JUMPDEST PUSH3 0x224 JUMP JUMPDEST SWAP1 POP DUP3 DUP2 MSTORE PUSH1 0x20 DUP2 ADD DUP5 DUP5 DUP5 ADD GT ISZERO PUSH3 0x157 JUMPI PUSH3 0x156 PUSH3 0x388 JUMP JUMPDEST JUMPDEST PUSH3 0x164 DUP5 DUP3 DUP6 PUSH3 0x283 JUMP JUMPDEST POP SWAP4 SWAP3 POP POP POP JUMP JUMPDEST PUSH1 0x0 DUP3 PUSH1 0x1F DUP4 ADD SLT PUSH3 0x184 JUMPI PUSH3 0x183 PUSH3 0x383 JUMP JUMPDEST JUMPDEST DUP2 MLOAD PUSH3 0x196 DUP5 DUP3 PUSH1 0x20 DUP7 ADD PUSH3 0x121 JUMP JUMPDEST SWAP2 POP POP SWAP3 SWAP2 POP POP JUMP JUMPDEST PUSH1 0x0 DUP1 PUSH1 0x40 DUP4 DUP6 SUB SLT ISZERO PUSH3 0x1B9 JUMPI PUSH3 0x1B8 PUSH3 0x392 JUMP JUMPDEST JUMPDEST PUSH1 0x0 DUP4 ADD MLOAD PUSH8 0xFFFFFFFFFFFFFFFF DUP2 GT ISZERO PUSH3 0x1DA JUMPI PUSH3 0x1D9 PUSH3 0x38D JUMP JUMPDEST JUMPDEST PUSH3 0x1E8 DUP6 DUP3 DUP7 ADD PUSH3 0x16C JUMP JUMPDEST SWAP3 POP POP PUSH1 0x20 DUP4 ADD MLOAD PUSH8 0xFFFFFFFFFFFFFFFF DUP2 GT ISZERO PUSH3 0x20C JUMPI PUSH3 0x20B PUSH3 0x38D JUMP JUMPDEST JUMPDEST PUSH3 0x21A DUP6 DUP3 DUP7 ADD PUSH3 0x16C JUMP JUMPDEST SWAP2 POP POP SWAP3 POP SWAP3 SWAP1 POP JUMP JUMPDEST PUSH1 0x0 PUSH3 0x230 PUSH3 0x243 JUMP JUMPDEST SWAP1 POP PUSH3 0x23E DUP3 DUP3 PUSH3 0x2EF JUMP JUMPDEST SWAP2 SWAP1 POP JUMP JUMPDEST PUSH1 0x0 PUSH1 0x40 MLOAD SWAP1 POP SWAP1 JUMP JUMPDEST PUSH1 0x0 PUSH8 0xFFFFFFFFFFFFFFFF DUP3 GT ISZERO PUSH3 0x26B JUMPI PUSH3 0x26A PUSH3 0x354 JUMP JUMPDEST JUMPDEST PUSH3 0x276 DUP3 PUSH3 0x397 JUMP JUMPDEST SWAP1 POP PUSH1 0x20 DUP2 ADD SWAP1 POP SWAP2 SWAP1 POP JUMP JUMPDEST PUSH1 0x0 JUMPDEST DUP4 DUP2 LT ISZERO PUSH3 0x2A3 JUMPI DUP1 DUP3 ADD MLOAD DUP2 DUP5 ADD MSTORE PUSH1 0x20 DUP2 ADD SWAP1 POP PUSH3 0x286 JUMP JUMPDEST DUP4 DUP2 GT ISZERO PUSH3 0x2B3 JUMPI PUSH1 0x0 DUP5 DUP5 ADD MSTORE JUMPDEST POP POP POP POP JUMP JUMPDEST PUSH1 0x0 PUSH1 0x2 DUP3 DIV SWAP1 POP PUSH1 0x1 DUP3 AND DUP1 PUSH3 0x2D2 JUMPI PUSH1 0x7F DUP3 AND SWAP2 POP JUMPDEST PUSH1 0x20 DUP3 LT DUP2 EQ ISZERO PUSH3 0x2E9 JUMPI PUSH3 0x2E8 PUSH3 0x325 JUMP JUMPDEST JUMPDEST POP SWAP2 SWAP1 POP JUMP JUMPDEST PUSH3 0x2FA DUP3 PUSH3 0x397 JUMP JUMPDEST DUP2 ADD DUP2 DUP2 LT PUSH8 0xFFFFFFFFFFFFFFFF DUP3 GT OR ISZERO PUSH3 0x31C JUMPI PUSH3 0x31B PUSH3 0x354 JUMP JUMPDEST JUMPDEST DUP1 PUSH1 0x40 MSTORE POP POP POP JUMP JUMPDEST PUSH32 0x4E487B7100000000000000000000000000000000000000000000000000000000 PUSH1 0x0 MSTORE PUSH1 0x22 PUSH1 0x4 MSTORE PUSH1 0x24 PUSH1 0x0 REVERT JUMPDEST PUSH32 0x4E487B7100000000000000000000000000000000000000000000000000000000 PUSH1 0x0 MSTORE PUSH1 0x41 PUSH1 0x4 MSTORE PUSH1 0x24 PUSH1 0x0 REVERT JUMPDEST PUSH1 0x0 DUP1 REVERT JUMPDEST PUSH1 0x0 DUP1 REVERT JUMPDEST PUSH1 0x0 DUP1 REVERT JUMPDEST PUSH1 0x0 DUP1 REVERT JUMPDEST PUSH1 0x0 PUSH1 0x1F NOT PUSH1 0x1F DUP4 ADD AND SWAP1 POP SWAP2 SWAP1 POP JUMP JUMPDEST PUSH2 0x27E4 DUP1 PUSH3 0x3B8 PUSH1 0x0 CODECOPY PUSH1 0x0 RETURN INVALID PUSH1 0x80 PUSH1 0x40 MSTORE CALLVALUE DUP1 ISZERO PUSH2 0x10 JUMPI PUSH1 0x0 DUP1 REVERT JUMPDEST POP PUSH1 0x4 CALLDATASIZE LT PUSH2 0xF5 JUMPI PUSH1 0x0 CALLDATALOAD PUSH1 0xE0 SHR DUP1 PUSH4 0x6352211E GT PUSH2 0x97 JUMPI DUP1 PUSH4 0xA22CB465 GT PUSH2 0x66 JUMPI DUP1 PUSH4 0xA22CB465 EQ PUSH2 0x296 JUMPI DUP1 PUSH4 0xB88D4FDE EQ PUSH2 0x2B2 JUMPI DUP1 PUSH4 0xC87B56DD EQ PUSH2 0x2CE JUMPI DUP1 PUSH4 0xE985E9C5 EQ PUSH2 0x2FE JUMPI PUSH2 0xF5 JUMP JUMPDEST DUP1 PUSH4 0x6352211E EQ PUSH2 0x1E8 JUMPI DUP1 PUSH4 0x6A627842 EQ PUSH2 0x218 JUMPI DUP1 PUSH4 0x70A08231 EQ PUSH2 0x248 JUMPI DUP1 PUSH4 0x95D89B41 EQ PUSH2 0x278 JUMPI PUSH2 0xF5 JUMP JUMPDEST DUP1 PUSH4 0x95EA7B3 GT PUSH2 0xD3 JUMPI DUP1 PUSH4 0x95EA7B3 EQ PUSH2 0x178 JUMPI DUP1 PUSH4 0x23B872DD EQ PUSH2 0x194 JUMPI DUP1 PUSH4 0x42842E0E EQ PUSH2 0x1B0 JUMPI DUP1 PUSH4 0x42966C68 EQ PUSH2 0x1CC JUMPI PUSH2 0xF5 JUMP JUMPDEST DUP1 PUSH4 0x1FFC9A7 EQ PUSH2 0xFA JUMPI DUP1 PUSH4 0x6FDDE03 EQ PUSH2 0x12A JUMPI DUP1 PUSH4 0x81812FC EQ PUSH2 0x148 JUMPI JUMPDEST PUSH1 0x0 DUP1 REVERT JUMPDEST PUSH2 0x114 PUSH1 0x4 DUP1 CALLDATASIZE SUB DUP2 ADD SWAP1 PUSH2 0x10F SWAP2 SWAP1 PUSH2 0x1B73 JUMP JUMPDEST PUSH2 0x32E JUMP JUMPDEST PUSH1 0x40 MLOAD PUSH2 0x121 SWAP2 SWAP1 PUSH2 0x1ED6 JUMP JUMPDEST PUSH1 0x40 MLOAD DUP1 SWAP2 SUB SWAP1 RETURN JUMPDEST PUSH2 0x132 PUSH2 0x410 JUMP JUMPDEST PUSH1 0x40 MLOAD PUSH2 0x13F SWAP2 SWAP1 PUSH2 0x1EF1 JUMP JUMPDEST PUSH1 0x40 MLOAD DUP1 SWAP2 SUB SWAP1 RETURN JUMPDEST PUSH2 0x162 PUSH1 0x4 DUP1 CALLDATASIZE SUB DUP2 ADD SWAP1 PUSH2 0x15D SWAP2 SWAP1 PUSH2 0x1BCD JUMP JUMPDEST PUSH2 0x4A2 JUMP JUMPDEST PUSH1 0x40 MLOAD PUSH2 0x16F SWAP2 SWAP1 PUSH2 0x1E6F JUMP JUMPDEST PUSH1 0x40 MLOAD DUP1 SWAP2 SUB SWAP1 RETURN JUMPDEST PUSH2 0x192 PUSH1 0x4 DUP1 CALLDATASIZE SUB DUP2 ADD SWAP1 PUSH2 0x18D SWAP2 SWAP1 PUSH2 0x1B33 JUMP JUMPDEST PUSH2 0x4E8 JUMP JUMPDEST STOP JUMPDEST PUSH2 0x1AE PUSH1 0x4 DUP1 CALLDATASIZE SUB DUP2 ADD SWAP1 PUSH2 0x1A9 SWAP2 SWAP1 PUSH2 0x1A1D JUMP JUMPDEST PUSH2 0x600 JUMP JUMPDEST STOP JUMPDEST PUSH2 0x1CA PUSH1 0x4 DUP1 CALLDATASIZE SUB DUP2 ADD SWAP1 PUSH2 0x1C5 SWAP2 SWAP1 PUSH2 0x1A1D JUMP JUMPDEST PUSH2 0x660 JUMP JUMPDEST STOP JUMPDEST PUSH2 0x1E6 PUSH1 0x4 DUP1 CALLDATASIZE SUB DUP2 ADD SWAP1 PUSH2 0x1E1 SWAP2 SWAP1 PUSH2 0x1BCD JUMP JUMPDEST PUSH2 0x680 JUMP JUMPDEST STOP JUMPDEST PUSH2 0x202 PUSH1 0x4 DUP1 CALLDATASIZE SUB DUP2 ADD SWAP1 PUSH2 0x1FD SWAP2 SWAP1 PUSH2 0x1BCD JUMP JUMPDEST PUSH2 0x77A JUMP JUMPDEST PUSH1 0x40 MLOAD PUSH2 0x20F SWAP2 SWAP1 PUSH2 0x1E6F JUMP JUMPDEST PUSH1 0x40 MLOAD DUP1 SWAP2 SUB SWAP1 RETURN JUMPDEST PUSH2 0x232 PUSH1 0x4 DUP1 CALLDATASIZE SUB DUP2 ADD SWAP1 PUSH2 0x22D SWAP2 SWAP1 PUSH2 0x19B0 JUMP JUMPDEST PUSH2 0x801 JUMP JUMPDEST PUSH1 0x40 MLOAD PUSH2 0x23F SWAP2 SWAP1 PUSH2 0x2073 JUMP JUMPDEST PUSH1 0x40 MLOAD DUP1 SWAP2 SUB SWAP1 RETURN JUMPDEST PUSH2 0x262 PUSH1 0x4 DUP1 CALLDATASIZE SUB DUP2 ADD SWAP1 PUSH2 0x25D SWAP2 SWAP1 PUSH2 0x19B0 JUMP JUMPDEST PUSH2 0x82D JUMP JUMPDEST PUSH1 0x40 MLOAD PUSH2 0x26F SWAP2 SWAP1 PUSH2 0x2073 JUMP JUMPDEST PUSH1 0x40 MLOAD DUP1 SWAP2 SUB SWAP1 RETURN JUMPDEST PUSH2 0x280 PUSH2 0x8E5 JUMP JUMPDEST PUSH1 0x40 MLOAD PUSH2 0x28D SWAP2 SWAP1 PUSH2 0x1EF1 JUMP JUMPDEST PUSH1 0x40 MLOAD DUP1 SWAP2 SUB SWAP1 RETURN JUMPDEST PUSH2 0x2B0 PUSH1 0x4 DUP1 CALLDATASIZE SUB DUP2 ADD SWAP1 PUSH2 0x2AB SWAP2 SWAP1 PUSH2 0x1AF3 JUMP JUMPDEST PUSH2 0x977 JUMP JUMPDEST STOP JUMPDEST PUSH2 0x2CC PUSH1 0x4 DUP1 CALLDATASIZE SUB DUP2 ADD SWAP1 PUSH2 0x2C7 SWAP2 SWAP1 PUSH2 0x1A70 JUMP JUMPDEST PUSH2 0x98D JUMP JUMPDEST STOP JUMPDEST PUSH2 0x2E8 PUSH1 0x4 DUP1 CALLDATASIZE SUB DUP2 ADD SWAP1 PUSH2 0x2E3 SWAP2 SWAP1 PUSH2 0x1BCD JUMP JUMPDEST PUSH2 0x9EF JUMP JUMPDEST PUSH1 0x40 MLOAD PUSH2 0x2F5 SWAP2 SWAP1 PUSH2 0x1EF1 JUMP JUMPDEST PUSH1 0x40 MLOAD DUP1 SWAP2 SUB SWAP1 RETURN JUMPDEST PUSH2 0x318 PUSH1 0x4 DUP1 CALLDATASIZE SUB DUP2 ADD SWAP1 PUSH2 0x313 SWAP2 SWAP1 PUSH2 0x19DD JUMP JUMPDEST PUSH2 0xA57 JUMP JUMPDEST PUSH1 0x40 MLOAD PUSH2 0x325 SWAP2 SWAP1 PUSH2 0x1ED6 JUMP JUMPDEST PUSH1 0x40 MLOAD DUP1 SWAP2 SUB SWAP1 RETURN JUMPDEST PUSH1 0x0 PUSH32 0x80AC58CD00000000000000000000000000000000000000000000000000000000 PUSH28 0xFFFFFFFFFFFFFFFFFFFFFFFFFFFFFFFFFFFFFFFFFFFFFFFFFFFFFFFF NOT AND DUP3 PUSH28 0xFFFFFFFFFFFFFFFFFFFFFFFFFFFFFFFFFFFFFFFFFFFFFFFFFFFFFFFF NOT AND EQ DUP1 PUSH2 0x3F9 JUMPI POP PUSH32 0x5B5E139F00000000000000000000000000000000000000000000000000000000 PUSH28 0xFFFFFFFFFFFFFFFFFFFFFFFFFFFFFFFFFFFFFFFFFFFFFFFFFFFFFFFF NOT AND DUP3 PUSH28 0xFFFFFFFFFFFFFFFFFFFFFFFFFFFFFFFFFFFFFFFFFFFFFFFFFFFFFFFF NOT AND EQ JUMPDEST DUP1 PUSH2 0x409 JUMPI POP PUSH2 0x408 DUP3 PUSH2 0xAEB JUMP JUMPDEST JUMPDEST SWAP1 POP SWAP2 SWAP1 POP JUMP JUMPDEST PUSH1 0x60 PUSH1 0x1 DUP1 SLOAD PUSH2 0x41F SWAP1 PUSH2 0x2298 JUMP JUMPDEST DUP1 PUSH1 0x1F ADD PUSH1 0x20 DUP1 SWAP2 DIV MUL PUSH1 0x20 ADD PUSH1 0x40 MLOAD SWAP1 DUP2 ADD PUSH1 0x40 MSTORE DUP1 SWAP3 SWAP2 SWAP1 DUP2 DUP2 MSTORE PUSH1 0x20 ADD DUP3 DUP1 SLOAD PUSH2 0x44B SWAP1 PUSH2 0x2298 JUMP JUMPDEST DUP1 ISZERO PUSH2 0x498 JUMPI DUP1 PUSH1 0x1F LT PUSH2 0x46D JUMPI PUSH2 0x100 DUP1 DUP4 SLOAD DIV MUL DUP4 MSTORE SWAP2 PUSH1 0x20 ADD SWAP2 PUSH2 0x498 JUMP JUMPDEST DUP3 ADD SWAP2 SWAP1 PUSH1 0x0 MSTORE PUSH1 0x20 PUSH1 0x0 KECCAK256 SWAP1 JUMPDEST DUP2 SLOAD DUP2 MSTORE SWAP1 PUSH1 0x1 ADD SWAP1 PUSH1 0x20 ADD DUP1 DUP4 GT PUSH2 0x47B JUMPI DUP3 SWAP1 SUB PUSH1 0x1F AND DUP3 ADD SWAP2 JUMPDEST POP POP POP POP POP SWAP1 POP SWAP1 JUMP JUMPDEST PUSH1 0x0 PUSH2 0x4AD DUP3 PUSH2 0xB55 JUMP JUMPDEST PUSH1 0x5 PUSH1 0x0 DUP4 DUP2 MSTORE PUSH1 0x20 ADD SWAP1 DUP2 MSTORE PUSH1 0x20 ADD PUSH1 0x0 KECCAK256 PUSH1 0x0 SWAP1 SLOAD SWAP1 PUSH2 0x100 EXP SWAP1 DIV PUSH20 0xFFFFFFFFFFFFFFFFFFFFFFFFFFFFFFFFFFFFFFFF AND SWAP1 POP SWAP2 SWAP1 POP JUMP JUMPDEST PUSH1 0x0 PUSH2 0x4F3 DUP3 PUSH2 0x77A JUMP JUMPDEST SWAP1 POP DUP1 PUSH20 0xFFFFFFFFFFFFFFFFFFFFFFFFFFFFFFFFFFFFFFFF AND DUP4 PUSH20 0xFFFFFFFFFFFFFFFFFFFFFFFFFFFFFFFFFFFFFFFF AND EQ ISZERO PUSH2 0x564 JUMPI PUSH1 0x40 MLOAD PUSH32 0x8C379A000000000000000000000000000000000000000000000000000000000 DUP2 MSTORE PUSH1 0x4 ADD PUSH2 0x55B SWAP1 PUSH2 0x2033 JUMP JUMPDEST PUSH1 0x40 MLOAD DUP1 SWAP2 SUB SWAP1 REVERT JUMPDEST DUP1 PUSH20 0xFFFFFFFFFFFFFFFFFFFFFFFFFFFFFFFFFFFFFFFF AND PUSH2 0x583 PUSH2 0xBA0 JUMP JUMPDEST PUSH20 0xFFFFFFFFFFFFFFFFFFFFFFFFFFFFFFFFFFFFFFFF AND EQ DUP1 PUSH2 0x5B2 JUMPI POP PUSH2 0x5B1 DUP2 PUSH2 0x5AC PUSH2 0xBA0 JUMP JUMPDEST PUSH2 0xA57 JUMP JUMPDEST JUMPDEST PUSH2 0x5F1 JUMPI PUSH1 0x40 MLOAD PUSH32 0x8C379A000000000000000000000000000000000000000000000000000000000 DUP2 MSTORE PUSH1 0x4 ADD PUSH2 0x5E8 SWAP1 PUSH2 0x2053 JUMP JUMPDEST PUSH1 0x40 MLOAD DUP1 SWAP2 SUB SWAP1 REVERT JUMPDEST PUSH2 0x5FB DUP4 DUP4 PUSH2 0xBA8 JUMP JUMPDEST POP POP POP JUMP JUMPDEST PUSH2 0x611 PUSH2 0x60B PUSH2 0xBA0 JUMP JUMPDEST DUP3 PUSH2 0xC61 JUMP JUMPDEST PUSH2 0x650 JUMPI PUSH1 0x40 MLOAD PUSH32 0x8C379A000000000000000000000000000000000000000000000000000000000 DUP2 MSTORE PUSH1 0x4 ADD PUSH2 0x647 SWAP1 PUSH2 0x1F13 JUMP JUMPDEST PUSH1 0x40 MLOAD DUP1 SWAP2 SUB SWAP1 REVERT JUMPDEST PUSH2 0x65B DUP4 DUP4 DUP4 PUSH2 0xCF6 JUMP JUMPDEST POP POP POP JUMP JUMPDEST PUSH2 0x67B DUP4 DUP4 DUP4 PUSH1 0x40 MLOAD DUP1 PUSH1 0x20 ADD PUSH1 0x40 MSTORE DUP1 PUSH1 0x0 DUP2 MSTORE POP PUSH2 0x98D JUMP JUMPDEST POP POP POP JUMP JUMPDEST PUSH1 0x0 PUSH2 0x68B DUP3 PUSH2 0x77A JUMP JUMPDEST SWAP1 POP PUSH1 0x1 PUSH1 0x4 PUSH1 0x0 DUP4 PUSH20 0xFFFFFFFFFFFFFFFFFFFFFFFFFFFFFFFFFFFFFFFF AND PUSH20 0xFFFFFFFFFFFFFFFFFFFFFFFFFFFFFFFFFFFFFFFF AND DUP2 MSTORE PUSH1 0x20 ADD SWAP1 DUP2 MSTORE PUSH1 0x20 ADD PUSH1 0x0 KECCAK256 PUSH1 0x0 DUP3 DUP3 SLOAD PUSH2 0x6DD SWAP2 SWAP1 PUSH2 0x21AE JUMP JUMPDEST SWAP3 POP POP DUP2 SWAP1 SSTORE POP PUSH1 0x3 PUSH1 0x0 DUP4 DUP2 MSTORE PUSH1 0x20 ADD SWAP1 DUP2 MSTORE PUSH1 0x20 ADD PUSH1 0x0 KECCAK256 PUSH1 0x0 PUSH2 0x100 EXP DUP2 SLOAD SWAP1 PUSH20 0xFFFFFFFFFFFFFFFFFFFFFFFFFFFFFFFFFFFFFFFF MUL NOT AND SWAP1 SSTORE DUP2 PUSH1 0x0 PUSH20 0xFFFFFFFFFFFFFFFFFFFFFFFFFFFFFFFFFFFFFFFF AND DUP3 PUSH20 0xFFFFFFFFFFFFFFFFFFFFFFFFFFFFFFFFFFFFFFFF AND PUSH32 0xDDF252AD1BE2C89B69C2B068FC378DAA952BA7F163C4A11628F55A4DF523B3EF PUSH1 0x40 MLOAD PUSH1 0x40 MLOAD DUP1 SWAP2 SUB SWAP1 LOG4 POP POP JUMP JUMPDEST PUSH1 0x0 DUP1 PUSH2 0x786 DUP4 PUSH2 0xFF0 JUMP JUMPDEST SWAP1 POP PUSH1 0x0 PUSH20 0xFFFFFFFFFFFFFFFFFFFFFFFFFFFFFFFFFFFFFFFF AND DUP2 PUSH20 0xFFFFFFFFFFFFFFFFFFFFFFFFFFFFFFFFFFFFFFFF AND EQ ISZERO PUSH2 0x7F8 JUMPI PUSH1 0x40 MLOAD PUSH32 0x8C379A000000000000000000000000000000000000000000000000000000000 DUP2 MSTORE PUSH1 0x4 ADD PUSH2 0x7EF SWAP1 PUSH2 0x2013 JUMP JUMPDEST PUSH1 0x40 MLOAD DUP1 SWAP2 SUB SWAP1 REVERT JUMPDEST DUP1 SWAP2 POP POP SWAP2 SWAP1 POP JUMP JUMPDEST PUSH1 0x0 DUP1 PUSH2 0x80E PUSH1 0x0 PUSH2 0x102D JUMP JUMPDEST SWAP1 POP PUSH2 0x81A DUP4 DUP3 PUSH2 0x103B JUMP JUMPDEST PUSH2 0x824 PUSH1 0x0 PUSH2 0x1259 JUMP JUMPDEST DUP1 SWAP2 POP POP SWAP2 SWAP1 POP JUMP JUMPDEST PUSH1 0x0 DUP1 PUSH20 0xFFFFFFFFFFFFFFFFFFFFFFFFFFFFFFFFFFFFFFFF AND DUP3 PUSH20 0xFFFFFFFFFFFFFFFFFFFFFFFFFFFFFFFFFFFFFFFF AND EQ ISZERO PUSH2 0x89E JUMPI PUSH1 0x40 MLOAD PUSH32 0x8C379A000000000000000000000000000000000000000000000000000000000 DUP2 MSTORE PUSH1 0x4 ADD PUSH2 0x895 SWAP1 PUSH2 0x1FD3 JUMP JUMPDEST PUSH1 0x40 MLOAD DUP1 SWAP2 SUB SWAP1 REVERT JUMPDEST PUSH1 0x4 PUSH1 0x0 DUP4 PUSH20 0xFFFFFFFFFFFFFFFFFFFFFFFFFFFFFFFFFFFFFFFF AND PUSH20 0xFFFFFFFFFFFFFFFFFFFFFFFFFFFFFFFFFFFFFFFF AND DUP2 MSTORE PUSH1 0x20 ADD SWAP1 DUP2 MSTORE PUSH1 0x20 ADD PUSH1 0x0 KECCAK256 SLOAD SWAP1 POP SWAP2 SWAP1 POP JUMP JUMPDEST PUSH1 0x60 PUSH1 0x2 DUP1 SLOAD PUSH2 0x8F4 SWAP1 PUSH2 0x2298 JUMP JUMPDEST DUP1 PUSH1 0x1F ADD PUSH1 0x20 DUP1 SWAP2 DIV MUL PUSH1 0x20 ADD PUSH1 0x40 MLOAD SWAP1 DUP2 ADD PUSH1 0x40 MSTORE DUP1 SWAP3 SWAP2 SWAP1 DUP2 DUP2 MSTORE PUSH1 0x20 ADD DUP3 DUP1 SLOAD PUSH2 0x920 SWAP1 PUSH2 0x2298 JUMP JUMPDEST DUP1 ISZERO PUSH2 0x96D JUMPI DUP1 PUSH1 0x1F LT PUSH2 0x942 JUMPI PUSH2 0x100 DUP1 DUP4 SLOAD DIV MUL DUP4 MSTORE SWAP2 PUSH1 0x20 ADD SWAP2 PUSH2 0x96D JUMP JUMPDEST DUP3 ADD SWAP2 SWAP1 PUSH1 0x0 MSTORE PUSH1 0x20 PUSH1 0x0 KECCAK256 SWAP1 JUMPDEST DUP2 SLOAD DUP2 MSTORE SWAP1 PUSH1 0x1 ADD SWAP1 PUSH1 0x20 ADD DUP1 DUP4 GT PUSH2 0x950 JUMPI DUP3 SWAP1 SUB PUSH1 0x1F AND DUP3 ADD SWAP2 JUMPDEST POP POP POP POP POP SWAP1 POP SWAP1 JUMP JUMPDEST PUSH2 0x989 PUSH2 0x982 PUSH2 0xBA0 JUMP JUMPDEST DUP4 DUP4 PUSH2 0x126F JUMP JUMPDEST POP POP JUMP JUMPDEST PUSH2 0x99E PUSH2 0x998 PUSH2 0xBA0 JUMP JUMPDEST DUP4 PUSH2 0xC61 JUMP JUMPDEST PUSH2 0x9DD JUMPI PUSH1 0x40 MLOAD PUSH32 0x8C379A000000000000000000000000000000000000000000000000000000000 DUP2 MSTORE PUSH1 0x4 ADD PUSH2 0x9D4 SWAP1 PUSH2 0x1F13 JUMP JUMPDEST PUSH1 0x40 MLOAD DUP1 SWAP2 SUB SWAP1 REVERT JUMPDEST PUSH2 0x9E9 DUP5 DUP5 DUP5 DUP5 PUSH2 0x13DC JUMP JUMPDEST POP POP POP POP JUMP JUMPDEST PUSH1 0x60 PUSH2 0x9FA DUP3 PUSH2 0xB55 JUMP JUMPDEST PUSH1 0x0 PUSH2 0xA04 PUSH2 0x1438 JUMP JUMPDEST SWAP1 POP PUSH1 0x0 DUP2 MLOAD GT PUSH2 0xA24 JUMPI PUSH1 0x40 MLOAD DUP1 PUSH1 0x20 ADD PUSH1 0x40 MSTORE DUP1 PUSH1 0x0 DUP2 MSTORE POP PUSH2 0xA4F JUMP JUMPDEST DUP1 PUSH2 0xA2E DUP5 PUSH2 0x144F JUMP JUMPDEST PUSH1 0x40 MLOAD PUSH1 0x20 ADD PUSH2 0xA3F SWAP3 SWAP2 SWAP1 PUSH2 0x1E4B JUMP JUMPDEST PUSH1 0x40 MLOAD PUSH1 0x20 DUP2 DUP4 SUB SUB DUP2 MSTORE SWAP1 PUSH1 0x40 MSTORE JUMPDEST SWAP2 POP POP SWAP2 SWAP1 POP JUMP JUMPDEST PUSH1 0x0 PUSH1 0x6 PUSH1 0x0 DUP5 PUSH20 0xFFFFFFFFFFFFFFFFFFFFFFFFFFFFFFFFFFFFFFFF AND PUSH20 0xFFFFFFFFFFFFFFFFFFFFFFFFFFFFFFFFFFFFFFFF AND DUP2 MSTORE PUSH1 0x20 ADD SWAP1 DUP2 MSTORE PUSH1 0x20 ADD PUSH1 0x0 KECCAK256 PUSH1 0x0 DUP4 PUSH20 0xFFFFFFFFFFFFFFFFFFFFFFFFFFFFFFFFFFFFFFFF AND PUSH20 0xFFFFFFFFFFFFFFFFFFFFFFFFFFFFFFFFFFFFFFFF AND DUP2 MSTORE PUSH1 0x20 ADD SWAP1 DUP2 MSTORE PUSH1 0x20 ADD PUSH1 0x0 KECCAK256 PUSH1 0x0 SWAP1 SLOAD SWAP1 PUSH2 0x100 EXP SWAP1 DIV PUSH1 0xFF AND SWAP1 POP SWAP3 SWAP2 POP POP JUMP JUMPDEST PUSH1 0x0 PUSH32 0x1FFC9A700000000000000000000000000000000000000000000000000000000 PUSH28 0xFFFFFFFFFFFFFFFFFFFFFFFFFFFFFFFFFFFFFFFFFFFFFFFFFFFFFFFF NOT AND DUP3 PUSH28 0xFFFFFFFFFFFFFFFFFFFFFFFFFFFFFFFFFFFFFFFFFFFFFFFFFFFFFFFF NOT AND EQ SWAP1 POP SWAP2 SWAP1 POP JUMP JUMPDEST PUSH2 0xB5E DUP2 PUSH2 0x15B0 JUMP JUMPDEST PUSH2 0xB9D JUMPI PUSH1 0x40 MLOAD PUSH32 0x8C379A000000000000000000000000000000000000000000000000000000000 DUP2 MSTORE PUSH1 0x4 ADD PUSH2 0xB94 SWAP1 PUSH2 0x2013 JUMP JUMPDEST PUSH1 0x40 MLOAD DUP1 SWAP2 SUB SWAP1 REVERT JUMPDEST POP JUMP JUMPDEST PUSH1 0x0 CALLER SWAP1 POP SWAP1 JUMP JUMPDEST DUP2 PUSH1 0x5 PUSH1 0x0 DUP4 DUP2 MSTORE PUSH1 0x20 ADD SWAP1 DUP2 MSTORE PUSH1 0x20 ADD PUSH1 0x0 KECCAK256 PUSH1 0x0 PUSH2 0x100 EXP DUP2 SLOAD DUP2 PUSH20 0xFFFFFFFFFFFFFFFFFFFFFFFFFFFFFFFFFFFFFFFF MUL NOT AND SWAP1 DUP4 PUSH20 0xFFFFFFFFFFFFFFFFFFFFFFFFFFFFFFFFFFFFFFFF AND MUL OR SWAP1 SSTORE POP DUP1 DUP3 PUSH20 0xFFFFFFFFFFFFFFFFFFFFFFFFFFFFFFFFFFFFFFFF AND PUSH2 0xC1B DUP4 PUSH2 0x77A JUMP JUMPDEST PUSH20 0xFFFFFFFFFFFFFFFFFFFFFFFFFFFFFFFFFFFFFFFF AND PUSH32 0x8C5BE1E5EBEC7D5BD14F71427D1E84F3DD0314C0F7B2291E5B200AC8C7C3B925 PUSH1 0x40 MLOAD PUSH1 0x40 MLOAD DUP1 SWAP2 SUB SWAP1 LOG4 POP POP JUMP JUMPDEST PUSH1 0x0 DUP1 PUSH2 0xC6D DUP4 PUSH2 0x77A JUMP JUMPDEST SWAP1 POP DUP1 PUSH20 0xFFFFFFFFFFFFFFFFFFFFFFFFFFFFFFFFFFFFFFFF AND DUP5 PUSH20 0xFFFFFFFFFFFFFFFFFFFFFFFFFFFFFFFFFFFFFFFF AND EQ DUP1 PUSH2 0xCAF JUMPI POP PUSH2 0xCAE DUP2 DUP6 PUSH2 0xA57 JUMP JUMPDEST JUMPDEST DUP1 PUSH2 0xCED JUMPI POP DUP4 PUSH20 0xFFFFFFFFFFFFFFFFFFFFFFFFFFFFFFFFFFFFFFFF AND PUSH2 0xCD5 DUP5 PUSH2 0x4A2 JUMP JUMPDEST PUSH20 0xFFFFFFFFFFFFFFFFFFFFFFFFFFFFFFFFFFFFFFFF AND EQ JUMPDEST SWAP2 POP POP SWAP3 SWAP2 POP POP JUMP JUMPDEST DUP3 PUSH20 0xFFFFFFFFFFFFFFFFFFFFFFFFFFFFFFFFFFFFFFFF AND PUSH2 0xD16 DUP3 PUSH2 0x77A JUMP JUMPDEST PUSH20 0xFFFFFFFFFFFFFFFFFFFFFFFFFFFFFFFFFFFFFFFF AND EQ PUSH2 0xD6C JUMPI PUSH1 0x40 MLOAD PUSH32 0x8C379A000000000000000000000000000000000000000000000000000000000 DUP2 MSTORE PUSH1 0x4 ADD PUSH2 0xD63 SWAP1 PUSH2 0x1F53 JUMP JUMPDEST PUSH1 0x40 MLOAD DUP1 SWAP2 SUB SWAP1 REVERT JUMPDEST PUSH1 0x0 PUSH20 0xFFFFFFFFFFFFFFFFFFFFFFFFFFFFFFFFFFFFFFFF AND DUP3 PUSH20 0xFFFFFFFFFFFFFFFFFFFFFFFFFFFFFFFFFFFFFFFF AND EQ ISZERO PUSH2 0xDDC JUMPI PUSH1 0x40 MLOAD PUSH32 0x8C379A000000000000000000000000000000000000000000000000000000000 DUP2 MSTORE PUSH1 0x4 ADD PUSH2 0xDD3 SWAP1 PUSH2 0x1F93 JUMP JUMPDEST PUSH1 0x40 MLOAD DUP1 SWAP2 SUB SWAP1 REVERT JUMPDEST PUSH2 0xDE9 DUP4 DUP4 DUP4 PUSH1 0x1 PUSH2 0x15F1 JUMP JUMPDEST DUP3 PUSH20 0xFFFFFFFFFFFFFFFFFFFFFFFFFFFFFFFFFFFFFFFF AND PUSH2 0xE09 DUP3 PUSH2 0x77A JUMP JUMPDEST PUSH20 0xFFFFFFFFFFFFFFFFFFFFFFFFFFFFFFFFFFFFFFFF AND EQ PUSH2 0xE5F JUMPI PUSH1 0x40 MLOAD PUSH32 0x8C379A000000000000000000000000000000000000000000000000000000000 DUP2 MSTORE PUSH1 0x4 ADD PUSH2 0xE56 SWAP1 PUSH2 0x1F53 JUMP JUMPDEST PUSH1 0x40 MLOAD DUP1 SWAP2 SUB SWAP1 REVERT JUMPDEST PUSH1 0x5 PUSH1 0x0 DUP3 DUP2 MSTORE PUSH1 0x20 ADD SWAP1 DUP2 MSTORE PUSH1 0x20 ADD PUSH1 0x0 KECCAK256 PUSH1 0x0 PUSH2 0x100 EXP DUP2 SLOAD SWAP1 PUSH20 0xFFFFFFFFFFFFFFFFFFFFFFFFFFFFFFFFFFFFFFFF MUL NOT AND SWAP1 SSTORE PUSH1 0x1 PUSH1 0x4 PUSH1 0x0 DUP6 PUSH20 0xFFFFFFFFFFFFFFFFFFFFFFFFFFFFFFFFFFFFFFFF AND PUSH20 0xFFFFFFFFFFFFFFFFFFFFFFFFFFFFFFFFFFFFFFFF AND DUP2 MSTORE PUSH1 0x20 ADD SWAP1 DUP2 MSTORE PUSH1 0x20 ADD PUSH1 0x0 KECCAK256 PUSH1 0x0 DUP3 DUP3 SLOAD SUB SWAP3 POP POP DUP2 SWAP1 SSTORE POP PUSH1 0x1 PUSH1 0x4 PUSH1 0x0 DUP5 PUSH20 0xFFFFFFFFFFFFFFFFFFFFFFFFFFFFFFFFFFFFFFFF AND PUSH20 0xFFFFFFFFFFFFFFFFFFFFFFFFFFFFFFFFFFFFFFFF AND DUP2 MSTORE PUSH1 0x20 ADD SWAP1 DUP2 MSTORE PUSH1 0x20 ADD PUSH1 0x0 KECCAK256 PUSH1 0x0 DUP3 DUP3 SLOAD ADD SWAP3 POP POP DUP2 SWAP1 SSTORE POP DUP2 PUSH1 0x3 PUSH1 0x0 DUP4 DUP2 MSTORE PUSH1 0x20 ADD SWAP1 DUP2 MSTORE PUSH1 0x20 ADD PUSH1 0x0 KECCAK256 PUSH1 0x0 PUSH2 0x100 EXP DUP2 SLOAD DUP2 PUSH20 0xFFFFFFFFFFFFFFFFFFFFFFFFFFFFFFFFFFFFFFFF MUL NOT AND SWAP1 DUP4 PUSH20 0xFFFFFFFFFFFFFFFFFFFFFFFFFFFFFFFFFFFFFFFF AND MUL OR SWAP1 SSTORE POP DUP1 DUP3 PUSH20 0xFFFFFFFFFFFFFFFFFFFFFFFFFFFFFFFFFFFFFFFF AND DUP5 PUSH20 0xFFFFFFFFFFFFFFFFFFFFFFFFFFFFFFFFFFFFFFFF AND PUSH32 0xDDF252AD1BE2C89B69C2B068FC378DAA952BA7F163C4A11628F55A4DF523B3EF PUSH1 0x40 MLOAD PUSH1 0x40 MLOAD DUP1 SWAP2 SUB SWAP1 LOG4 PUSH2 0xFEB DUP4 DUP4 DUP4 PUSH1 0x1 PUSH2 0x1717 JUMP JUMPDEST POP POP POP JUMP JUMPDEST PUSH1 0x0 PUSH1 0x3 PUSH1 0x0 DUP4 DUP2 MSTORE PUSH1 0x20 ADD SWAP1 DUP2 MSTORE PUSH1 0x20 ADD PUSH1 0x0 KECCAK256 PUSH1 0x0 SWAP1 SLOAD SWAP1 PUSH2 0x100 EXP SWAP1 DIV PUSH20 0xFFFFFFFFFFFFFFFFFFFFFFFFFFFFFFFFFFFFFFFF AND SWAP1 POP SWAP2 SWAP1 POP JUMP JUMPDEST PUSH1 0x0 DUP2 PUSH1 0x0 ADD SLOAD SWAP1 POP SWAP2 SWAP1 POP JUMP JUMPDEST PUSH1 0x0 PUSH20 0xFFFFFFFFFFFFFFFFFFFFFFFFFFFFFFFFFFFFFFFF AND DUP3 PUSH20 0xFFFFFFFFFFFFFFFFFFFFFFFFFFFFFFFFFFFFFFFF AND EQ ISZERO PUSH2 0x10AB JUMPI PUSH1 0x40 MLOAD PUSH32 0x8C379A000000000000000000000000000000000000000000000000000000000 DUP2 MSTORE PUSH1 0x4 ADD PUSH2 0x10A2 SWAP1 PUSH2 0x1FF3 JUMP JUMPDEST PUSH1 0x40 MLOAD DUP1 SWAP2 SUB SWAP1 REVERT JUMPDEST PUSH2 0x10B4 DUP2 PUSH2 0x15B0 JUMP JUMPDEST ISZERO PUSH2 0x10F4 JUMPI PUSH1 0x40 MLOAD PUSH32 0x8C379A000000000000000000000000000000000000000000000000000000000 DUP2 MSTORE PUSH1 0x4 ADD PUSH2 0x10EB SWAP1 PUSH2 0x1F73 JUMP JUMPDEST PUSH1 0x40 MLOAD DUP1 SWAP2 SUB SWAP1 REVERT JUMPDEST PUSH2 0x1102 PUSH1 0x0 DUP4 DUP4 PUSH1 0x1 PUSH2 0x15F1 JUMP JUMPDEST PUSH2 0x110B DUP2 PUSH2 0x15B0 JUMP JUMPDEST ISZERO PUSH2 0x114B JUMPI PUSH1 0x40 MLOAD PUSH32 0x8C379A000000000000000000000000000000000000000000000000000000000 DUP2 MSTORE PUSH1 0x4 ADD PUSH2 0x1142 SWAP1 PUSH2 0x1F73 JUMP JUMPDEST PUSH1 0x40 MLOAD DUP1 SWAP2 SUB SWAP1 REVERT JUMPDEST PUSH1 0x1 PUSH1 0x4 PUSH1 0x0 DUP5 PUSH20 0xFFFFFFFFFFFFFFFFFFFFFFFFFFFFFFFFFFFFFFFF AND PUSH20 0xFFFFFFFFFFFFFFFFFFFFFFFFFFFFFFFFFFFFFFFF AND DUP2 MSTORE PUSH1 0x20 ADD SWAP1 DUP2 MSTORE PUSH1 0x20 ADD PUSH1 0x0 KECCAK256 PUSH1 0x0 DUP3 DUP3 SLOAD ADD SWAP3 POP POP DUP2 SWAP1 SSTORE POP DUP2 PUSH1 0x3 PUSH1 0x0 DUP4 DUP2 MSTORE PUSH1 0x20 ADD SWAP1 DUP2 MSTORE PUSH1 0x20 ADD PUSH1 0x0 KECCAK256 PUSH1 0x0 PUSH2 0x100 EXP DUP2 SLOAD DUP2 PUSH20 0xFFFFFFFFFFFFFFFFFFFFFFFFFFFFFFFFFFFFFFFF MUL NOT AND SWAP1 DUP4 PUSH20 0xFFFFFFFFFFFFFFFFFFFFFFFFFFFFFFFFFFFFFFFF AND MUL OR SWAP1 SSTORE POP DUP1 DUP3 PUSH20 0xFFFFFFFFFFFFFFFFFFFFFFFFFFFFFFFFFFFFFFFF AND PUSH1 0x0 PUSH20 0xFFFFFFFFFFFFFFFFFFFFFFFFFFFFFFFFFFFFFFFF AND PUSH32 0xDDF252AD1BE2C89B69C2B068FC378DAA952BA7F163C4A11628F55A4DF523B3EF PUSH1 0x40 MLOAD PUSH1 0x40 MLOAD DUP1 SWAP2 SUB SWAP1 LOG4 PUSH2 0x1255 PUSH1 0x0 DUP4 DUP4 PUSH1 0x1 PUSH2 0x1717 JUMP JUMPDEST POP POP JUMP JUMPDEST PUSH1 0x1 DUP2 PUSH1 0x0 ADD PUSH1 0x0 DUP3 DUP3 SLOAD ADD SWAP3 POP POP DUP2 SWAP1 SSTORE POP POP JUMP JUMPDEST DUP2 PUSH20 0xFFFFFFFFFFFFFFFFFFFFFFFFFFFFFFFFFFFFFFFF AND DUP4 PUSH20 0xFFFFFFFFFFFFFFFFFFFFFFFFFFFFFFFFFFFFFFFF AND EQ ISZERO PUSH2 0x12DE JUMPI PUSH1 0x40 MLOAD PUSH32 0x8C379A000000000000000000000000000000000000000000000000000000000 DUP2 MSTORE PUSH1 0x4 ADD PUSH2 0x12D5 SWAP1 PUSH2 0x1FB3 JUMP JUMPDEST PUSH1 0x40 MLOAD DUP1 SWAP2 SUB SWAP1 REVERT JUMPDEST DUP1 PUSH1 0x6 PUSH1 0x0 DUP6 PUSH20 0xFFFFFFFFFFFFFFFFFFFFFFFFFFFFFFFFFFFFFFFF AND PUSH20 0xFFFFFFFFFFFFFFFFFFFFFFFFFFFFFFFFFFFFFFFF AND DUP2 MSTORE PUSH1 0x20 ADD SWAP1 DUP2 MSTORE PUSH1 0x20 ADD PUSH1 0x0 KECCAK256 PUSH1 0x0 DUP5 PUSH20 0xFFFFFFFFFFFFFFFFFFFFFFFFFFFFFFFFFFFFFFFF AND PUSH20 0xFFFFFFFFFFFFFFFFFFFFFFFFFFFFFFFFFFFFFFFF AND DUP2 MSTORE PUSH1 0x20 ADD SWAP1 DUP2 MSTORE PUSH1 0x20 ADD PUSH1 0x0 KECCAK256 PUSH1 0x0 PUSH2 0x100 EXP DUP2 SLOAD DUP2 PUSH1 0xFF MUL NOT AND SWAP1 DUP4 ISZERO ISZERO MUL OR SWAP1 SSTORE POP DUP2 PUSH20 0xFFFFFFFFFFFFFFFFFFFFFFFFFFFFFFFFFFFFFFFF AND DUP4 PUSH20 0xFFFFFFFFFFFFFFFFFFFFFFFFFFFFFFFFFFFFFFFF AND PUSH32 0x17307EAB39AB6107E8899845AD3D59BD9653F200F220920489CA2B5937696C31 DUP4 PUSH1 0x40 MLOAD PUSH2 0x13CF SWAP2 SWAP1 PUSH2 0x1ED6 JUMP JUMPDEST PUSH1 0x40 MLOAD DUP1 SWAP2 SUB SWAP1 LOG3 POP POP POP JUMP JUMPDEST PUSH2 0x13E7 DUP5 DUP5 DUP5 PUSH2 0xCF6 JUMP JUMPDEST PUSH2 0x13F3 DUP5 DUP5 DUP5 DUP5 PUSH2 0x171D JUMP JUMPDEST PUSH2 0x1432 JUMPI PUSH1 0x40 MLOAD PUSH32 0x8C379A000000000000000000000000000000000000000000000000000000000 DUP2 MSTORE PUSH1 0x4 ADD PUSH2 0x1429 SWAP1 PUSH2 0x1F33 JUMP JUMPDEST PUSH1 0x40 MLOAD DUP1 SWAP2 SUB SWAP1 REVERT JUMPDEST POP POP POP POP JUMP JUMPDEST PUSH1 0x60 PUSH1 0x40 MLOAD DUP1 PUSH1 0x20 ADD PUSH1 0x40 MSTORE DUP1 PUSH1 0x0 DUP2 MSTORE POP SWAP1 POP SWAP1 JUMP JUMPDEST PUSH1 0x60 PUSH1 0x0 DUP3 EQ ISZERO PUSH2 0x1497 JUMPI PUSH1 0x40 MLOAD DUP1 PUSH1 0x40 ADD PUSH1 0x40 MSTORE DUP1 PUSH1 0x1 DUP2 MSTORE PUSH1 0x20 ADD PUSH32 0x3000000000000000000000000000000000000000000000000000000000000000 DUP2 MSTORE POP SWAP1 POP PUSH2 0x15AB JUMP JUMPDEST PUSH1 0x0 DUP3 SWAP1 POP PUSH1 0x0 JUMPDEST PUSH1 0x0 DUP3 EQ PUSH2 0x14C9 JUMPI DUP1 DUP1 PUSH2 0x14B2 SWAP1 PUSH2 0x22FB JUMP JUMPDEST SWAP2 POP POP PUSH1 0xA DUP3 PUSH2 0x14C2 SWAP2 SWAP1 PUSH2 0x217D JUMP JUMPDEST SWAP2 POP PUSH2 0x149F JUMP JUMPDEST PUSH1 0x0 DUP2 PUSH8 0xFFFFFFFFFFFFFFFF DUP2 GT ISZERO PUSH2 0x14E5 JUMPI PUSH2 0x14E4 PUSH2 0x2431 JUMP JUMPDEST JUMPDEST PUSH1 0x40 MLOAD SWAP1 DUP1 DUP3 MSTORE DUP1 PUSH1 0x1F ADD PUSH1 0x1F NOT AND PUSH1 0x20 ADD DUP3 ADD PUSH1 0x40 MSTORE DUP1 ISZERO PUSH2 0x1517 JUMPI DUP2 PUSH1 0x20 ADD PUSH1 0x1 DUP3 MUL DUP1 CALLDATASIZE DUP4 CALLDATACOPY DUP1 DUP3 ADD SWAP2 POP POP SWAP1 POP JUMPDEST POP SWAP1 POP JUMPDEST PUSH1 0x0 DUP6 EQ PUSH2 0x15A4 JUMPI PUSH1 0x1 DUP3 PUSH2 0x1530 SWAP2 SWAP1 PUSH2 0x21AE JUMP JUMPDEST SWAP2 POP PUSH1 0xA DUP6 PUSH2 0x153F SWAP2 SWAP1 PUSH2 0x2344 JUMP JUMPDEST PUSH1 0x30 PUSH2 0x154B SWAP2 SWAP1 PUSH2 0x2127 JUMP JUMPDEST PUSH1 0xF8 SHL DUP2 DUP4 DUP2 MLOAD DUP2 LT PUSH2 0x1561 JUMPI PUSH2 0x1560 PUSH2 0x2402 JUMP JUMPDEST JUMPDEST PUSH1 0x20 ADD ADD SWAP1 PUSH31 0xFFFFFFFFFFFFFFFFFFFFFFFFFFFFFFFFFFFFFFFFFFFFFFFFFFFFFFFFFFFFFF NOT AND SWAP1 DUP2 PUSH1 0x0 BYTE SWAP1 MSTORE8 POP PUSH1 0xA DUP6 PUSH2 0x159D SWAP2 SWAP1 PUSH2 0x217D JUMP JUMPDEST SWAP5 POP PUSH2 0x151B JUMP JUMPDEST DUP1 SWAP4 POP POP POP POP JUMPDEST SWAP2 SWAP1 POP JUMP JUMPDEST PUSH1 0x0 DUP1 PUSH20 0xFFFFFFFFFFFFFFFFFFFFFFFFFFFFFFFFFFFFFFFF AND PUSH2 0x15D2 DUP4 PUSH2 0xFF0 JUMP JUMPDEST PUSH20 0xFFFFFFFFFFFFFFFFFFFFFFFFFFFFFFFFFFFFFFFF AND EQ ISZERO SWAP1 POP SWAP2 SWAP1 POP JUMP JUMPDEST PUSH1 0x1 DUP2 GT ISZERO PUSH2 0x1711 JUMPI PUSH1 0x0 PUSH20 0xFFFFFFFFFFFFFFFFFFFFFFFFFFFFFFFFFFFFFFFF AND DUP5 PUSH20 0xFFFFFFFFFFFFFFFFFFFFFFFFFFFFFFFFFFFFFFFF AND EQ PUSH2 0x1685 JUMPI DUP1 PUSH1 0x4 PUSH1 0x0 DUP7 PUSH20 0xFFFFFFFFFFFFFFFFFFFFFFFFFFFFFFFFFFFFFFFF AND PUSH20 0xFFFFFFFFFFFFFFFFFFFFFFFFFFFFFFFFFFFFFFFF AND DUP2 MSTORE PUSH1 0x20 ADD SWAP1 DUP2 MSTORE PUSH1 0x20 ADD PUSH1 0x0 KECCAK256 PUSH1 0x0 DUP3 DUP3 SLOAD PUSH2 0x167D SWAP2 SWAP1 PUSH2 0x21AE JUMP JUMPDEST SWAP3 POP POP DUP2 SWAP1 SSTORE POP JUMPDEST PUSH1 0x0 PUSH20 0xFFFFFFFFFFFFFFFFFFFFFFFFFFFFFFFFFFFFFFFF AND DUP4 PUSH20 0xFFFFFFFFFFFFFFFFFFFFFFFFFFFFFFFFFFFFFFFF AND EQ PUSH2 0x1710 JUMPI DUP1 PUSH1 0x4 PUSH1 0x0 DUP6 PUSH20 0xFFFFFFFFFFFFFFFFFFFFFFFFFFFFFFFFFFFFFFFF AND PUSH20 0xFFFFFFFFFFFFFFFFFFFFFFFFFFFFFFFFFFFFFFFF AND DUP2 MSTORE PUSH1 0x20 ADD SWAP1 DUP2 MSTORE PUSH1 0x20 ADD PUSH1 0x0 KECCAK256 PUSH1 0x0 DUP3 DUP3 SLOAD PUSH2 0x1708 SWAP2 SWAP1 PUSH2 0x2127 JUMP JUMPDEST SWAP3 POP POP DUP2 SWAP1 SSTORE POP JUMPDEST JUMPDEST POP POP POP POP JUMP JUMPDEST POP POP POP POP JUMP JUMPDEST PUSH1 0x0 PUSH2 0x173E DUP5 PUSH20 0xFFFFFFFFFFFFFFFFFFFFFFFFFFFFFFFFFFFFFFFF AND PUSH2 0x18B4 JUMP JUMPDEST ISZERO PUSH2 0x18A7 JUMPI DUP4 PUSH20 0xFFFFFFFFFFFFFFFFFFFFFFFFFFFFFFFFFFFFFFFF AND PUSH4 0x150B7A02 PUSH2 0x1767 PUSH2 0xBA0 JUMP JUMPDEST DUP8 DUP7 DUP7 PUSH1 0x40 MLOAD DUP6 PUSH4 0xFFFFFFFF AND PUSH1 0xE0 SHL DUP2 MSTORE PUSH1 0x4 ADD PUSH2 0x1789 SWAP5 SWAP4 SWAP3 SWAP2 SWAP1 PUSH2 0x1E8A JUMP JUMPDEST PUSH1 0x20 PUSH1 0x40 MLOAD DUP1 DUP4 SUB DUP2 PUSH1 0x0 DUP8 DUP1 EXTCODESIZE ISZERO DUP1 ISZERO PUSH2 0x17A3 JUMPI PUSH1 0x0 DUP1 REVERT JUMPDEST POP GAS CALL SWAP3 POP POP POP DUP1 ISZERO PUSH2 0x17D4 JUMPI POP PUSH1 0x40 MLOAD RETURNDATASIZE PUSH1 0x1F NOT PUSH1 0x1F DUP3 ADD AND DUP3 ADD DUP1 PUSH1 0x40 MSTORE POP DUP2 ADD SWAP1 PUSH2 0x17D1 SWAP2 SWAP1 PUSH2 0x1BA0 JUMP JUMPDEST PUSH1 0x1 JUMPDEST PUSH2 0x1857 JUMPI RETURNDATASIZE DUP1 PUSH1 0x0 DUP2 EQ PUSH2 0x1804 JUMPI PUSH1 0x40 MLOAD SWAP2 POP PUSH1 0x1F NOT PUSH1 0x3F RETURNDATASIZE ADD AND DUP3 ADD PUSH1 0x40 MSTORE RETURNDATASIZE DUP3 MSTORE RETURNDATASIZE PUSH1 0x0 PUSH1 0x20 DUP5 ADD RETURNDATACOPY PUSH2 0x1809 JUMP JUMPDEST PUSH1 0x60 SWAP2 POP JUMPDEST POP PUSH1 0x0 DUP2 MLOAD EQ ISZERO PUSH2 0x184F JUMPI PUSH1 0x40 MLOAD PUSH32 0x8C379A000000000000000000000000000000000000000000000000000000000 DUP2 MSTORE PUSH1 0x4 ADD PUSH2 0x1846 SWAP1 PUSH2 0x1F33 JUMP JUMPDEST PUSH1 0x40 MLOAD DUP1 SWAP2 SUB SWAP1 REVERT JUMPDEST DUP1 MLOAD DUP2 PUSH1 0x20 ADD REVERT JUMPDEST PUSH4 0x150B7A02 PUSH1 0xE0 SHL PUSH28 0xFFFFFFFFFFFFFFFFFFFFFFFFFFFFFFFFFFFFFFFFFFFFFFFFFFFFFFFF NOT AND DUP2 PUSH28 0xFFFFFFFFFFFFFFFFFFFFFFFFFFFFFFFFFFFFFFFFFFFFFFFFFFFFFFFF NOT AND EQ SWAP2 POP POP PUSH2 0x18AC JUMP JUMPDEST PUSH1 0x1 SWAP1 POP JUMPDEST SWAP5 SWAP4 POP POP POP POP JUMP JUMPDEST PUSH1 0x0 DUP1 DUP3 PUSH20 0xFFFFFFFFFFFFFFFFFFFFFFFFFFFFFFFFFFFFFFFF AND EXTCODESIZE GT SWAP1 POP SWAP2 SWAP1 POP JUMP JUMPDEST PUSH1 0x0 PUSH2 0x18EA PUSH2 0x18E5 DUP5 PUSH2 0x20B3 JUMP JUMPDEST PUSH2 0x208E JUMP JUMPDEST SWAP1 POP DUP3 DUP2 MSTORE PUSH1 0x20 DUP2 ADD DUP5 DUP5 DUP5 ADD GT ISZERO PUSH2 0x1906 JUMPI PUSH2 0x1905 PUSH2 0x2465 JUMP JUMPDEST JUMPDEST PUSH2 0x1911 DUP5 DUP3 DUP6 PUSH2 0x2256 JUMP JUMPDEST POP SWAP4 SWAP3 POP POP POP JUMP JUMPDEST PUSH1 0x0 DUP2 CALLDATALOAD SWAP1 POP PUSH2 0x1928 DUP2 PUSH2 0x2752 JUMP JUMPDEST SWAP3 SWAP2 POP POP JUMP JUMPDEST PUSH1 0x0 DUP2 CALLDATALOAD SWAP1 POP PUSH2 0x193D DUP2 PUSH2 0x2769 JUMP JUMPDEST SWAP3 SWAP2 POP POP JUMP JUMPDEST PUSH1 0x0 DUP2 CALLDATALOAD SWAP1 POP PUSH2 0x1952 DUP2 PUSH2 0x2780 JUMP JUMPDEST SWAP3 SWAP2 POP POP JUMP JUMPDEST PUSH1 0x0 DUP2 MLOAD SWAP1 POP PUSH2 0x1967 DUP2 PUSH2 0x2780 JUMP JUMPDEST SWAP3 SWAP2 POP POP JUMP JUMPDEST PUSH1 0x0 DUP3 PUSH1 0x1F DUP4 ADD SLT PUSH2 0x1982 JUMPI PUSH2 0x1981 PUSH2 0x2460 JUMP JUMPDEST JUMPDEST DUP2 CALLDATALOAD PUSH2 0x1992 DUP5 DUP3 PUSH1 0x20 DUP7 ADD PUSH2 0x18D7 JUMP JUMPDEST SWAP2 POP POP SWAP3 SWAP2 POP POP JUMP JUMPDEST PUSH1 0x0 DUP2 CALLDATALOAD SWAP1 POP PUSH2 0x19AA DUP2 PUSH2 0x2797 JUMP JUMPDEST SWAP3 SWAP2 POP POP JUMP JUMPDEST PUSH1 0x0 PUSH1 0x20 DUP3 DUP5 SUB SLT ISZERO PUSH2 0x19C6 JUMPI PUSH2 0x19C5 PUSH2 0x246F JUMP JUMPDEST JUMPDEST PUSH1 0x0 PUSH2 0x19D4 DUP5 DUP3 DUP6 ADD PUSH2 0x1919 JUMP JUMPDEST SWAP2 POP POP SWAP3 SWAP2 POP POP JUMP JUMPDEST PUSH1 0x0 DUP1 PUSH1 0x40 DUP4 DUP6 SUB SLT ISZERO PUSH2 0x19F4 JUMPI PUSH2 0x19F3 PUSH2 0x246F JUMP JUMPDEST JUMPDEST PUSH1 0x0 PUSH2 0x1A02 DUP6 DUP3 DUP7 ADD PUSH2 0x1919 JUMP JUMPDEST SWAP3 POP POP PUSH1 0x20 PUSH2 0x1A13 DUP6 DUP3 DUP7 ADD PUSH2 0x1919 JUMP JUMPDEST SWAP2 POP POP SWAP3 POP SWAP3 SWAP1 POP JUMP JUMPDEST PUSH1 0x0 DUP1 PUSH1 0x0 PUSH1 0x60 DUP5 DUP7 SUB SLT ISZERO PUSH2 0x1A36 JUMPI PUSH2 0x1A35 PUSH2 0x246F JUMP JUMPDEST JUMPDEST PUSH1 0x0 PUSH2 0x1A44 DUP7 DUP3 DUP8 ADD PUSH2 0x1919 JUMP JUMPDEST SWAP4 POP POP PUSH1 0x20 PUSH2 0x1A55 DUP7 DUP3 DUP8 ADD PUSH2 0x1919 JUMP JUMPDEST SWAP3 POP POP PUSH1 0x40 PUSH2 0x1A66 DUP7 DUP3 DUP8 ADD PUSH2 0x199B JUMP JUMPDEST SWAP2 POP POP SWAP3 POP SWAP3 POP SWAP3 JUMP JUMPDEST PUSH1 0x0 DUP1 PUSH1 0x0 DUP1 PUSH1 0x80 DUP6 DUP8 SUB SLT ISZERO PUSH2 0x1A8A JUMPI PUSH2 0x1A89 PUSH2 0x246F JUMP JUMPDEST JUMPDEST PUSH1 0x0 PUSH2 0x1A98 DUP8 DUP3 DUP9 ADD PUSH2 0x1919 JUMP JUMPDEST SWAP5 POP POP PUSH1 0x20 PUSH2 0x1AA9 DUP8 DUP3 DUP9 ADD PUSH2 0x1919 JUMP JUMPDEST SWAP4 POP POP PUSH1 0x40 PUSH2 0x1ABA DUP8 DUP3 DUP9 ADD PUSH2 0x199B JUMP JUMPDEST SWAP3 POP POP PUSH1 0x60 DUP6 ADD CALLDATALOAD PUSH8 0xFFFFFFFFFFFFFFFF DUP2 GT ISZERO PUSH2 0x1ADB JUMPI PUSH2 0x1ADA PUSH2 0x246A JUMP JUMPDEST JUMPDEST PUSH2 0x1AE7 DUP8 DUP3 DUP9 ADD PUSH2 0x196D JUMP JUMPDEST SWAP2 POP POP SWAP3 SWAP6 SWAP2 SWAP5 POP SWAP3 POP JUMP JUMPDEST PUSH1 0x0 DUP1 PUSH1 0x40 DUP4 DUP6 SUB SLT ISZERO PUSH2 0x1B0A JUMPI PUSH2 0x1B09 PUSH2 0x246F JUMP JUMPDEST JUMPDEST PUSH1 0x0 PUSH2 0x1B18 DUP6 DUP3 DUP7 ADD PUSH2 0x1919 JUMP JUMPDEST SWAP3 POP POP PUSH1 0x20 PUSH2 0x1B29 DUP6 DUP3 DUP7 ADD PUSH2 0x192E JUMP JUMPDEST SWAP2 POP POP SWAP3 POP SWAP3 SWAP1 POP JUMP JUMPDEST PUSH1 0x0 DUP1 PUSH1 0x40 DUP4 DUP6 SUB SLT ISZERO PUSH2 0x1B4A JUMPI PUSH2 0x1B49 PUSH2 0x246F JUMP JUMPDEST JUMPDEST PUSH1 0x0 PUSH2 0x1B58 DUP6 DUP3 DUP7 ADD PUSH2 0x1919 JUMP JUMPDEST SWAP3 POP POP PUSH1 0x20 PUSH2 0x1B69 DUP6 DUP3 DUP7 ADD PUSH2 0x199B JUMP JUMPDEST SWAP2 POP POP SWAP3 POP SWAP3 SWAP1 POP JUMP JUMPDEST PUSH1 0x0 PUSH1 0x20 DUP3 DUP5 SUB SLT ISZERO PUSH2 0x1B89 JUMPI PUSH2 0x1B88 PUSH2 0x246F JUMP JUMPDEST JUMPDEST PUSH1 0x0 PUSH2 0x1B97 DUP5 DUP3 DUP6 ADD PUSH2 0x1943 JUMP JUMPDEST SWAP2 POP POP SWAP3 SWAP2 POP POP JUMP JUMPDEST PUSH1 0x0 PUSH1 0x20 DUP3 DUP5 SUB SLT ISZERO PUSH2 0x1BB6 JUMPI PUSH2 0x1BB5 PUSH2 0x246F JUMP JUMPDEST JUMPDEST PUSH1 0x0 PUSH2 0x1BC4 DUP5 DUP3 DUP6 ADD PUSH2 0x1958 JUMP JUMPDEST SWAP2 POP POP SWAP3 SWAP2 POP POP JUMP JUMPDEST PUSH1 0x0 PUSH1 0x20 DUP3 DUP5 SUB SLT ISZERO PUSH2 0x1BE3 JUMPI PUSH2 0x1BE2 PUSH2 0x246F JUMP JUMPDEST JUMPDEST PUSH1 0x0 PUSH2 0x1BF1 DUP5 DUP3 DUP6 ADD PUSH2 0x199B JUMP JUMPDEST SWAP2 POP POP SWAP3 SWAP2 POP POP JUMP JUMPDEST PUSH2 0x1C03 DUP2 PUSH2 0x21E2 JUMP JUMPDEST DUP3 MSTORE POP POP JUMP JUMPDEST PUSH2 0x1C12 DUP2 PUSH2 0x21F4 JUMP JUMPDEST DUP3 MSTORE POP POP JUMP JUMPDEST PUSH1 0x0 PUSH2 0x1C23 DUP3 PUSH2 0x20E4 JUMP JUMPDEST PUSH2 0x1C2D DUP2 DUP6 PUSH2 0x20FA JUMP JUMPDEST SWAP4 POP PUSH2 0x1C3D DUP2 DUP6 PUSH1 0x20 DUP7 ADD PUSH2 0x2265 JUMP JUMPDEST PUSH2 0x1C46 DUP2 PUSH2 0x2474 JUMP JUMPDEST DUP5 ADD SWAP2 POP POP SWAP3 SWAP2 POP POP JUMP JUMPDEST PUSH1 0x0 PUSH2 0x1C5C DUP3 PUSH2 0x20EF JUMP JUMPDEST PUSH2 0x1C66 DUP2 DUP6 PUSH2 0x210B JUMP JUMPDEST SWAP4 POP PUSH2 0x1C76 DUP2 DUP6 PUSH1 0x20 DUP7 ADD PUSH2 0x2265 JUMP JUMPDEST PUSH2 0x1C7F DUP2 PUSH2 0x2474 JUMP JUMPDEST DUP5 ADD SWAP2 POP POP SWAP3 SWAP2 POP POP JUMP JUMPDEST PUSH1 0x0 PUSH2 0x1C95 DUP3 PUSH2 0x20EF JUMP JUMPDEST PUSH2 0x1C9F DUP2 DUP6 PUSH2 0x211C JUMP JUMPDEST SWAP4 POP PUSH2 0x1CAF DUP2 DUP6 PUSH1 0x20 DUP7 ADD PUSH2 0x2265 JUMP JUMPDEST DUP1 DUP5 ADD SWAP2 POP POP SWAP3 SWAP2 POP POP JUMP JUMPDEST PUSH1 0x0 PUSH2 0x1CC8 PUSH1 0x2D DUP4 PUSH2 0x210B JUMP JUMPDEST SWAP2 POP PUSH2 0x1CD3 DUP3 PUSH2 0x2485 JUMP JUMPDEST PUSH1 0x40 DUP3 ADD SWAP1 POP SWAP2 SWAP1 POP JUMP JUMPDEST PUSH1 0x0 PUSH2 0x1CEB PUSH1 0x32 DUP4 PUSH2 0x210B JUMP JUMPDEST SWAP2 POP PUSH2 0x1CF6 DUP3 PUSH2 0x24D4 JUMP JUMPDEST PUSH1 0x40 DUP3 ADD SWAP1 POP SWAP2 SWAP1 POP JUMP JUMPDEST PUSH1 0x0 PUSH2 0x1D0E PUSH1 0x25 DUP4 PUSH2 0x210B JUMP JUMPDEST SWAP2 POP PUSH2 0x1D19 DUP3 PUSH2 0x2523 JUMP JUMPDEST PUSH1 0x40 DUP3 ADD SWAP1 POP SWAP2 SWAP1 POP JUMP JUMPDEST PUSH1 0x0 PUSH2 0x1D31 PUSH1 0x1C DUP4 PUSH2 0x210B JUMP JUMPDEST SWAP2 POP PUSH2 0x1D3C DUP3 PUSH2 0x2572 JUMP JUMPDEST PUSH1 0x20 DUP3 ADD SWAP1 POP SWAP2 SWAP1 POP JUMP JUMPDEST PUSH1 0x0 PUSH2 0x1D54 PUSH1 0x24 DUP4 PUSH2 0x210B JUMP JUMPDEST SWAP2 POP PUSH2 0x1D5F DUP3 PUSH2 0x259B JUMP JUMPDEST PUSH1 0x40 DUP3 ADD SWAP1 POP SWAP2 SWAP1 POP JUMP JUMPDEST PUSH1 0x0 PUSH2 0x1D77 PUSH1 0x19 DUP4 PUSH2 0x210B JUMP JUMPDEST SWAP2 POP PUSH2 0x1D82 DUP3 PUSH2 0x25EA JUMP JUMPDEST PUSH1 0x20 DUP3 ADD SWAP1 POP SWAP2 SWAP1 POP JUMP JUMPDEST PUSH1 0x0 PUSH2 0x1D9A PUSH1 0x29 DUP4 PUSH2 0x210B JUMP JUMPDEST SWAP2 POP PUSH2 0x1DA5 DUP3 PUSH2 0x2613 JUMP JUMPDEST PUSH1 0x40 DUP3 ADD SWAP1 POP SWAP2 SWAP1 POP JUMP JUMPDEST PUSH1 0x0 PUSH2 0x1DBD PUSH1 0x20 DUP4 PUSH2 0x210B JUMP JUMPDEST SWAP2 POP PUSH2 0x1DC8 DUP3 PUSH2 0x2662 JUMP JUMPDEST PUSH1 0x20 DUP3 ADD SWAP1 POP SWAP2 SWAP1 POP JUMP JUMPDEST PUSH1 0x0 PUSH2 0x1DE0 PUSH1 0x18 DUP4 PUSH2 0x210B JUMP JUMPDEST SWAP2 POP PUSH2 0x1DEB DUP3 PUSH2 0x268B JUMP JUMPDEST PUSH1 0x20 DUP3 ADD SWAP1 POP SWAP2 SWAP1 POP JUMP JUMPDEST PUSH1 0x0 PUSH2 0x1E03 PUSH1 0x21 DUP4 PUSH2 0x210B JUMP JUMPDEST SWAP2 POP PUSH2 0x1E0E DUP3 PUSH2 0x26B4 JUMP JUMPDEST PUSH1 0x40 DUP3 ADD SWAP1 POP SWAP2 SWAP1 POP JUMP JUMPDEST PUSH1 0x0 PUSH2 0x1E26 PUSH1 0x3D DUP4 PUSH2 0x210B JUMP JUMPDEST SWAP2 POP PUSH2 0x1E31 DUP3 PUSH2 0x2703 JUMP JUMPDEST PUSH1 0x40 DUP3 ADD SWAP1 POP SWAP2 SWAP1 POP JUMP JUMPDEST PUSH2 0x1E45 DUP2 PUSH2 0x224C JUMP JUMPDEST DUP3 MSTORE POP POP JUMP JUMPDEST PUSH1 0x0 PUSH2 0x1E57 DUP3 DUP6 PUSH2 0x1C8A JUMP JUMPDEST SWAP2 POP PUSH2 0x1E63 DUP3 DUP5 PUSH2 0x1C8A JUMP JUMPDEST SWAP2 POP DUP2 SWAP1 POP SWAP4 SWAP3 POP POP POP JUMP JUMPDEST PUSH1 0x0 PUSH1 0x20 DUP3 ADD SWAP1 POP PUSH2 0x1E84 PUSH1 0x0 DUP4 ADD DUP5 PUSH2 0x1BFA JUMP JUMPDEST SWAP3 SWAP2 POP POP JUMP JUMPDEST PUSH1 0x0 PUSH1 0x80 DUP3 ADD SWAP1 POP PUSH2 0x1E9F PUSH1 0x0 DUP4 ADD DUP8 PUSH2 0x1BFA JUMP JUMPDEST PUSH2 0x1EAC PUSH1 0x20 DUP4 ADD DUP7 PUSH2 0x1BFA JUMP JUMPDEST PUSH2 0x1EB9 PUSH1 0x40 DUP4 ADD DUP6 PUSH2 0x1E3C JUMP JUMPDEST DUP2 DUP2 SUB PUSH1 0x60 DUP4 ADD MSTORE PUSH2 0x1ECB DUP2 DUP5 PUSH2 0x1C18 JUMP JUMPDEST SWAP1 POP SWAP6 SWAP5 POP POP POP POP POP JUMP JUMPDEST PUSH1 0x0 PUSH1 0x20 DUP3 ADD SWAP1 POP PUSH2 0x1EEB PUSH1 0x0 DUP4 ADD DUP5 PUSH2 0x1C09 JUMP JUMPDEST SWAP3 SWAP2 POP POP JUMP JUMPDEST PUSH1 0x0 PUSH1 0x20 DUP3 ADD SWAP1 POP DUP2 DUP2 SUB PUSH1 0x0 DUP4 ADD MSTORE PUSH2 0x1F0B DUP2 DUP5 PUSH2 0x1C51 JUMP JUMPDEST SWAP1 POP SWAP3 SWAP2 POP POP JUMP JUMPDEST PUSH1 0x0 PUSH1 0x20 DUP3 ADD SWAP1 POP DUP2 DUP2 SUB PUSH1 0x0 DUP4 ADD MSTORE PUSH2 0x1F2C DUP2 PUSH2 0x1CBB JUMP JUMPDEST SWAP1 POP SWAP2 SWAP1 POP JUMP JUMPDEST PUSH1 0x0 PUSH1 0x20 DUP3 ADD SWAP1 POP DUP2 DUP2 SUB PUSH1 0x0 DUP4 ADD MSTORE PUSH2 0x1F4C DUP2 PUSH2 0x1CDE JUMP JUMPDEST SWAP1 POP SWAP2 SWAP1 POP JUMP JUMPDEST PUSH1 0x0 PUSH1 0x20 DUP3 ADD SWAP1 POP DUP2 DUP2 SUB PUSH1 0x0 DUP4 ADD MSTORE PUSH2 0x1F6C DUP2 PUSH2 0x1D01 JUMP JUMPDEST SWAP1 POP SWAP2 SWAP1 POP JUMP JUMPDEST PUSH1 0x0 PUSH1 0x20 DUP3 ADD SWAP1 POP DUP2 DUP2 SUB PUSH1 0x0 DUP4 ADD MSTORE PUSH2 0x1F8C DUP2 PUSH2 0x1D24 JUMP JUMPDEST SWAP1 POP SWAP2 SWAP1 POP JUMP JUMPDEST PUSH1 0x0 PUSH1 0x20 DUP3 ADD SWAP1 POP DUP2 DUP2 SUB PUSH1 0x0 DUP4 ADD MSTORE PUSH2 0x1FAC DUP2 PUSH2 0x1D47 JUMP JUMPDEST SWAP1 POP SWAP2 SWAP1 POP JUMP JUMPDEST PUSH1 0x0 PUSH1 0x20 DUP3 ADD SWAP1 POP DUP2 DUP2 SUB PUSH1 0x0 DUP4 ADD MSTORE PUSH2 0x1FCC DUP2 PUSH2 0x1D6A JUMP JUMPDEST SWAP1 POP SWAP2 SWAP1 POP JUMP JUMPDEST PUSH1 0x0 PUSH1 0x20 DUP3 ADD SWAP1 POP DUP2 DUP2 SUB PUSH1 0x0 DUP4 ADD MSTORE PUSH2 0x1FEC DUP2 PUSH2 0x1D8D JUMP JUMPDEST SWAP1 POP SWAP2 SWAP1 POP JUMP JUMPDEST PUSH1 0x0 PUSH1 0x20 DUP3 ADD SWAP1 POP DUP2 DUP2 SUB PUSH1 0x0 DUP4 ADD MSTORE PUSH2 0x200C DUP2 PUSH2 0x1DB0 JUMP JUMPDEST SWAP1 POP SWAP2 SWAP1 POP JUMP JUMPDEST PUSH1 0x0 PUSH1 0x20 DUP3 ADD SWAP1 POP DUP2 DUP2 SUB PUSH1 0x0 DUP4 ADD MSTORE PUSH2 0x202C DUP2 PUSH2 0x1DD3 JUMP JUMPDEST SWAP1 POP SWAP2 SWAP1 POP JUMP JUMPDEST PUSH1 0x0 PUSH1 0x20 DUP3 ADD SWAP1 POP DUP2 DUP2 SUB PUSH1 0x0 DUP4 ADD MSTORE PUSH2 0x204C DUP2 PUSH2 0x1DF6 JUMP JUMPDEST SWAP1 POP SWAP2 SWAP1 POP JUMP JUMPDEST PUSH1 0x0 PUSH1 0x20 DUP3 ADD SWAP1 POP DUP2 DUP2 SUB PUSH1 0x0 DUP4 ADD MSTORE PUSH2 0x206C DUP2 PUSH2 0x1E19 JUMP JUMPDEST SWAP1 POP SWAP2 SWAP1 POP JUMP JUMPDEST PUSH1 0x0 PUSH1 0x20 DUP3 ADD SWAP1 POP PUSH2 0x2088 PUSH1 0x0 DUP4 ADD DUP5 PUSH2 0x1E3C JUMP JUMPDEST SWAP3 SWAP2 POP POP JUMP JUMPDEST PUSH1 0x0 PUSH2 0x2098 PUSH2 0x20A9 JUMP JUMPDEST SWAP1 POP PUSH2 0x20A4 DUP3 DUP3 PUSH2 0x22CA JUMP JUMPDEST SWAP2 SWAP1 POP JUMP JUMPDEST PUSH1 0x0 PUSH1 0x40 MLOAD SWAP1 POP SWAP1 JUMP JUMPDEST PUSH1 0x0 PUSH8 0xFFFFFFFFFFFFFFFF DUP3 GT ISZERO PUSH2 0x20CE JUMPI PUSH2 0x20CD PUSH2 0x2431 JUMP JUMPDEST JUMPDEST PUSH2 0x20D7 DUP3 PUSH2 0x2474 JUMP JUMPDEST SWAP1 POP PUSH1 0x20 DUP2 ADD SWAP1 POP SWAP2 SWAP1 POP JUMP JUMPDEST PUSH1 0x0 DUP2 MLOAD SWAP1 POP SWAP2 SWAP1 POP JUMP JUMPDEST PUSH1 0x0 DUP2 MLOAD SWAP1 POP SWAP2 SWAP1 POP JUMP JUMPDEST PUSH1 0x0 DUP3 DUP3 MSTORE PUSH1 0x20 DUP3 ADD SWAP1 POP SWAP3 SWAP2 POP POP JUMP JUMPDEST PUSH1 0x0 DUP3 DUP3 MSTORE PUSH1 0x20 DUP3 ADD SWAP1 POP SWAP3 SWAP2 POP POP JUMP JUMPDEST PUSH1 0x0 DUP2 SWAP1 POP SWAP3 SWAP2 POP POP JUMP JUMPDEST PUSH1 0x0 PUSH2 0x2132 DUP3 PUSH2 0x224C JUMP JUMPDEST SWAP2 POP PUSH2 0x213D DUP4 PUSH2 0x224C JUMP JUMPDEST SWAP3 POP DUP3 PUSH32 0xFFFFFFFFFFFFFFFFFFFFFFFFFFFFFFFFFFFFFFFFFFFFFFFFFFFFFFFFFFFFFFFF SUB DUP3 GT ISZERO PUSH2 0x2172 JUMPI PUSH2 0x2171 PUSH2 0x2375 JUMP JUMPDEST JUMPDEST DUP3 DUP3 ADD SWAP1 POP SWAP3 SWAP2 POP POP JUMP JUMPDEST PUSH1 0x0 PUSH2 0x2188 DUP3 PUSH2 0x224C JUMP JUMPDEST SWAP2 POP PUSH2 0x2193 DUP4 PUSH2 0x224C JUMP JUMPDEST SWAP3 POP DUP3 PUSH2 0x21A3 JUMPI PUSH2 0x21A2 PUSH2 0x23A4 JUMP JUMPDEST JUMPDEST DUP3 DUP3 DIV SWAP1 POP SWAP3 SWAP2 POP POP JUMP JUMPDEST PUSH1 0x0 PUSH2 0x21B9 DUP3 PUSH2 0x224C JUMP JUMPDEST SWAP2 POP PUSH2 0x21C4 DUP4 PUSH2 0x224C JUMP JUMPDEST SWAP3 POP DUP3 DUP3 LT ISZERO PUSH2 0x21D7 JUMPI PUSH2 0x21D6 PUSH2 0x2375 JUMP JUMPDEST JUMPDEST DUP3 DUP3 SUB SWAP1 POP SWAP3 SWAP2 POP POP JUMP JUMPDEST PUSH1 0x0 PUSH2 0x21ED DUP3 PUSH2 0x222C JUMP JUMPDEST SWAP1 POP SWAP2 SWAP1 POP JUMP JUMPDEST PUSH1 0x0 DUP2 ISZERO ISZERO SWAP1 POP SWAP2 SWAP1 POP JUMP JUMPDEST PUSH1 0x0 PUSH32 0xFFFFFFFF00000000000000000000000000000000000000000000000000000000 DUP3 AND SWAP1 POP SWAP2 SWAP1 POP JUMP JUMPDEST PUSH1 0x0 PUSH20 0xFFFFFFFFFFFFFFFFFFFFFFFFFFFFFFFFFFFFFFFF DUP3 AND SWAP1 POP SWAP2 SWAP1 POP JUMP JUMPDEST PUSH1 0x0 DUP2 SWAP1 POP SWAP2 SWAP1 POP JUMP JUMPDEST DUP3 DUP2 DUP4 CALLDATACOPY PUSH1 0x0 DUP4 DUP4 ADD MSTORE POP POP POP JUMP JUMPDEST PUSH1 0x0 JUMPDEST DUP4 DUP2 LT ISZERO PUSH2 0x2283 JUMPI DUP1 DUP3 ADD MLOAD DUP2 DUP5 ADD MSTORE PUSH1 0x20 DUP2 ADD SWAP1 POP PUSH2 0x2268 JUMP JUMPDEST DUP4 DUP2 GT ISZERO PUSH2 0x2292 JUMPI PUSH1 0x0 DUP5 DUP5 ADD MSTORE JUMPDEST POP POP POP POP JUMP JUMPDEST PUSH1 0x0 PUSH1 0x2 DUP3 DIV SWAP1 POP PUSH1 0x1 DUP3 AND DUP1 PUSH2 0x22B0 JUMPI PUSH1 0x7F DUP3 AND SWAP2 POP JUMPDEST PUSH1 0x20 DUP3 LT DUP2 EQ ISZERO PUSH2 0x22C4 JUMPI PUSH2 0x22C3 PUSH2 0x23D3 JUMP JUMPDEST JUMPDEST POP SWAP2 SWAP1 POP JUMP JUMPDEST PUSH2 0x22D3 DUP3 PUSH2 0x2474 JUMP JUMPDEST DUP2 ADD DUP2 DUP2 LT PUSH8 0xFFFFFFFFFFFFFFFF DUP3 GT OR ISZERO PUSH2 0x22F2 JUMPI PUSH2 0x22F1 PUSH2 0x2431 JUMP JUMPDEST JUMPDEST DUP1 PUSH1 0x40 MSTORE POP POP POP JUMP JUMPDEST PUSH1 0x0 PUSH2 0x2306 DUP3 PUSH2 0x224C JUMP JUMPDEST SWAP2 POP PUSH32 0xFFFFFFFFFFFFFFFFFFFFFFFFFFFFFFFFFFFFFFFFFFFFFFFFFFFFFFFFFFFFFFFF DUP3 EQ ISZERO PUSH2 0x2339 JUMPI PUSH2 0x2338 PUSH2 0x2375 JUMP JUMPDEST JUMPDEST PUSH1 0x1 DUP3 ADD SWAP1 POP SWAP2 SWAP1 POP JUMP JUMPDEST PUSH1 0x0 PUSH2 0x234F DUP3 PUSH2 0x224C JUMP JUMPDEST SWAP2 POP PUSH2 0x235A DUP4 PUSH2 0x224C JUMP JUMPDEST SWAP3 POP DUP3 PUSH2 0x236A JUMPI PUSH2 0x2369 PUSH2 0x23A4 JUMP JUMPDEST JUMPDEST DUP3 DUP3 MOD SWAP1 POP SWAP3 SWAP2 POP POP JUMP JUMPDEST PUSH32 0x4E487B7100000000000000000000000000000000000000000000000000000000 PUSH1 0x0 MSTORE PUSH1 0x11 PUSH1 0x4 MSTORE PUSH1 0x24 PUSH1 0x0 REVERT JUMPDEST PUSH32 0x4E487B7100000000000000000000000000000000000000000000000000000000 PUSH1 0x0 MSTORE PUSH1 0x12 PUSH1 0x4 MSTORE PUSH1 0x24 PUSH1 0x0 REVERT JUMPDEST PUSH32 0x4E487B7100000000000000000000000000000000000000000000000000000000 PUSH1 0x0 MSTORE PUSH1 0x22 PUSH1 0x4 MSTORE PUSH1 0x24 PUSH1 0x0 REVERT JUMPDEST PUSH32 0x4E487B7100000000000000000000000000000000000000000000000000000000 PUSH1 0x0 MSTORE PUSH1 0x32 PUSH1 0x4 MSTORE PUSH1 0x24 PUSH1 0x0 REVERT JUMPDEST PUSH32 0x4E487B7100000000000000000000000000000000000000000000000000000000 PUSH1 0x0 MSTORE PUSH1 0x41 PUSH1 0x4 MSTORE PUSH1 0x24 PUSH1 0x0 REVERT JUMPDEST PUSH1 0x0 DUP1 REVERT JUMPDEST PUSH1 0x0 DUP1 REVERT JUMPDEST PUSH1 0x0 DUP1 REVERT JUMPDEST PUSH1 0x0 DUP1 REVERT JUMPDEST PUSH1 0x0 PUSH1 0x1F NOT PUSH1 0x1F DUP4 ADD AND SWAP1 POP SWAP2 SWAP1 POP JUMP JUMPDEST PUSH32 0x4552433732313A2063616C6C6572206973206E6F7420746F6B656E206F776E65 PUSH1 0x0 DUP3 ADD MSTORE PUSH32 0x72206F7220617070726F76656400000000000000000000000000000000000000 PUSH1 0x20 DUP3 ADD MSTORE POP JUMP JUMPDEST PUSH32 0x4552433732313A207472616E7366657220746F206E6F6E204552433732315265 PUSH1 0x0 DUP3 ADD MSTORE PUSH32 0x63656976657220696D706C656D656E7465720000000000000000000000000000 PUSH1 0x20 DUP3 ADD MSTORE POP JUMP JUMPDEST PUSH32 0x4552433732313A207472616E736665722066726F6D20696E636F727265637420 PUSH1 0x0 DUP3 ADD MSTORE PUSH32 0x6F776E6572000000000000000000000000000000000000000000000000000000 PUSH1 0x20 DUP3 ADD MSTORE POP JUMP JUMPDEST PUSH32 0x4552433732313A20746F6B656E20616C7265616479206D696E74656400000000 PUSH1 0x0 DUP3 ADD MSTORE POP JUMP JUMPDEST PUSH32 0x4552433732313A207472616E7366657220746F20746865207A65726F20616464 PUSH1 0x0 DUP3 ADD MSTORE PUSH32 0x7265737300000000000000000000000000000000000000000000000000000000 PUSH1 0x20 DUP3 ADD MSTORE POP JUMP JUMPDEST PUSH32 0x4552433732313A20617070726F766520746F2063616C6C657200000000000000 PUSH1 0x0 DUP3 ADD MSTORE POP JUMP JUMPDEST PUSH32 0x4552433732313A2061646472657373207A65726F206973206E6F742061207661 PUSH1 0x0 DUP3 ADD MSTORE PUSH32 0x6C6964206F776E65720000000000000000000000000000000000000000000000 PUSH1 0x20 DUP3 ADD MSTORE POP JUMP JUMPDEST PUSH32 0x4552433732313A206D696E7420746F20746865207A65726F2061646472657373 PUSH1 0x0 DUP3 ADD MSTORE POP JUMP JUMPDEST PUSH32 0x4552433732313A20696E76616C696420746F6B656E2049440000000000000000 PUSH1 0x0 DUP3 ADD MSTORE POP JUMP JUMPDEST PUSH32 0x4552433732313A20617070726F76616C20746F2063757272656E74206F776E65 PUSH1 0x0 DUP3 ADD MSTORE PUSH32 0x7200000000000000000000000000000000000000000000000000000000000000 PUSH1 0x20 DUP3 ADD MSTORE POP JUMP JUMPDEST PUSH32 0x4552433732313A20617070726F76652063616C6C6572206973206E6F7420746F PUSH1 0x0 DUP3 ADD MSTORE PUSH32 0x6B656E206F776E6572206F7220617070726F76656420666F7220616C6C000000 PUSH1 0x20 DUP3 ADD MSTORE POP JUMP JUMPDEST PUSH2 0x275B DUP2 PUSH2 0x21E2 JUMP JUMPDEST DUP2 EQ PUSH2 0x2766 JUMPI PUSH1 0x0 DUP1 REVERT JUMPDEST POP JUMP JUMPDEST PUSH2 0x2772 DUP2 PUSH2 0x21F4 JUMP JUMPDEST DUP2 EQ PUSH2 0x277D JUMPI PUSH1 0x0 DUP1 REVERT JUMPDEST POP JUMP JUMPDEST PUSH2 0x2789 DUP2 PUSH2 0x2200 JUMP JUMPDEST DUP2 EQ PUSH2 0x2794 JUMPI PUSH1 0x0 DUP1 REVERT JUMPDEST POP JUMP JUMPDEST PUSH2 0x27A0 DUP2 PUSH2 0x224C JUMP JUMPDEST DUP2 EQ PUSH2 0x27AB JUMPI PUSH1 0x0 DUP1 REVERT JUMPDEST POP JUMP INVALID LOG2 PUSH5 0x6970667358 0x22 SLT KECCAK256 DUP10 ORIGIN ADD 0xD4 SELFBALANCE 0xC4 DUP16 0xE DIFFICULTY DUP5 PUSH13 0x9A85D084D12A39623617CE2E06 DUP4 CALLDATALOAD 0xED PUSH21 0x343C7F7664736F6C63430008070033000000000000 "
				},
				"gasEstimates": {
					"creation": {
						"codeDepositCost": "2042400",
						"executionCost": "infinite",
						"totalCost": "infinite"
					},
					"external": {
						"approve(address,uint256)": "infinite",
						"balanceOf(address)": "2946",
						"burn(uint256)": "infinite",
						"getApproved(uint256)": "5300",
						"isApprovedForAll(address,address)": "infinite",
						"mint(address)": "infinite",
						"name()": "infinite",
						"ownerOf(uint256)": "3025",
						"safeTransferFrom(address,address,uint256)": "infinite",
						"safeTransferFrom(address,address,uint256,bytes)": "infinite",
						"setApprovalForAll(address,bool)": "infinite",
						"supportsInterface(bytes4)": "797",
						"symbol()": "infinite",
						"tokenURI(uint256)": "3467",
						"transferFrom(address,address,uint256)": "infinite"
					},
					"internal": {
						"_afterTokenTransfer(address,address,uint256,uint256)": "17",
						"_approve(address,uint256)": "infinite",
						"_baseURI()": "infinite",
						"_beforeTokenTransfer(address,address,uint256,uint256)": "infinite",
						"_burn(uint256)": "infinite",
						"_checkOnERC721Received(address,address,uint256,bytes memory)": "infinite",
						"_exists(uint256)": "2312",
						"_isApprovedOrOwner(address,uint256)": "infinite",
						"_mint(address,uint256)": "infinite",
						"_ownerOf(uint256)": "2248",
						"_requireMinted(uint256)": "infinite",
						"_safeMint(address,uint256)": "infinite",
						"_safeMint(address,uint256,bytes memory)": "infinite",
						"_safeTransfer(address,address,uint256,bytes memory)": "infinite",
						"_setApprovalForAll(address,address,bool)": "infinite",
						"_transfer(address,address,uint256)": "infinite"
					}
				},
				"methodIdentifiers": {
					"approve(address,uint256)": "095ea7b3",
					"balanceOf(address)": "70a08231",
					"burn(uint256)": "42966c68",
					"getApproved(uint256)": "081812fc",
					"isApprovedForAll(address,address)": "e985e9c5",
					"mint(address)": "6a627842",
					"name()": "06fdde03",
					"ownerOf(uint256)": "6352211e",
					"safeTransferFrom(address,address,uint256)": "42842e0e",
					"safeTransferFrom(address,address,uint256,bytes)": "b88d4fde",
					"setApprovalForAll(address,bool)": "a22cb465",
					"supportsInterface(bytes4)": "01ffc9a7",
					"symbol()": "95d89b41",
					"tokenURI(uint256)": "c87b56dd",
					"transferFrom(address,address,uint256)": "23b872dd"
				}
			},
			"storageLayout": {
				"storage": [
					{
						"astId": 844,
						"contract": "contracts/vanthenaNft.sol:vanthenaNft",
						"label": "_tokenIdTracker",
						"offset": 0,
						"slot": "0",
						"type": "t_struct(Counter)483_storage"
					},
					{
						"astId": 846,
						"contract": "contracts/vanthenaNft.sol:vanthenaNft",
						"label": "_name",
						"offset": 0,
						"slot": "1",
						"type": "t_string_storage"
					},
					{
						"astId": 848,
						"contract": "contracts/vanthenaNft.sol:vanthenaNft",
						"label": "_symbol",
						"offset": 0,
						"slot": "2",
						"type": "t_string_storage"
					},
					{
						"astId": 852,
						"contract": "contracts/vanthenaNft.sol:vanthenaNft",
						"label": "_owners",
						"offset": 0,
						"slot": "3",
						"type": "t_mapping(t_uint256,t_address)"
					},
					{
						"astId": 856,
						"contract": "contracts/vanthenaNft.sol:vanthenaNft",
						"label": "_balances",
						"offset": 0,
						"slot": "4",
						"type": "t_mapping(t_address,t_uint256)"
					},
					{
						"astId": 860,
						"contract": "contracts/vanthenaNft.sol:vanthenaNft",
						"label": "_tokenApprovals",
						"offset": 0,
						"slot": "5",
						"type": "t_mapping(t_uint256,t_address)"
					},
					{
						"astId": 866,
						"contract": "contracts/vanthenaNft.sol:vanthenaNft",
						"label": "_operatorApprovals",
						"offset": 0,
						"slot": "6",
						"type": "t_mapping(t_address,t_mapping(t_address,t_bool))"
					}
				],
				"types": {
					"t_address": {
						"encoding": "inplace",
						"label": "address",
						"numberOfBytes": "20"
					},
					"t_bool": {
						"encoding": "inplace",
						"label": "bool",
						"numberOfBytes": "1"
					},
					"t_mapping(t_address,t_bool)": {
						"encoding": "mapping",
						"key": "t_address",
						"label": "mapping(address => bool)",
						"numberOfBytes": "32",
						"value": "t_bool"
					},
					"t_mapping(t_address,t_mapping(t_address,t_bool))": {
						"encoding": "mapping",
						"key": "t_address",
						"label": "mapping(address => mapping(address => bool))",
						"numberOfBytes": "32",
						"value": "t_mapping(t_address,t_bool)"
					},
					"t_mapping(t_address,t_uint256)": {
						"encoding": "mapping",
						"key": "t_address",
						"label": "mapping(address => uint256)",
						"numberOfBytes": "32",
						"value": "t_uint256"
					},
					"t_mapping(t_uint256,t_address)": {
						"encoding": "mapping",
						"key": "t_uint256",
						"label": "mapping(uint256 => address)",
						"numberOfBytes": "32",
						"value": "t_address"
					},
					"t_string_storage": {
						"encoding": "bytes",
						"label": "string",
						"numberOfBytes": "32"
					},
					"t_struct(Counter)483_storage": {
						"encoding": "inplace",
						"label": "struct Counters.Counter",
						"members": [
							{
								"astId": 482,
								"contract": "contracts/vanthenaNft.sol:vanthenaNft",
								"label": "_value",
								"offset": 0,
								"slot": "0",
								"type": "t_uint256"
							}
						],
						"numberOfBytes": "32"
					},
					"t_uint256": {
						"encoding": "inplace",
						"label": "uint256",
						"numberOfBytes": "32"
					}
				}
			},
			"userdoc": {
				"kind": "user",
				"methods": {},
				"version": 1
			}
		}
	}
}